{
  "contractName": "CryptoIsland",
  "abi": [
    {
      "anonymous": false,
      "inputs": [
        {
          "indexed": true,
          "internalType": "address",
          "name": "owner",
          "type": "address"
        },
        {
          "indexed": true,
          "internalType": "address",
          "name": "approved",
          "type": "address"
        },
        {
          "indexed": true,
          "internalType": "uint256",
          "name": "tokenId",
          "type": "uint256"
        }
      ],
      "name": "Approval",
      "type": "event"
    },
    {
      "anonymous": false,
      "inputs": [
        {
          "indexed": true,
          "internalType": "address",
          "name": "owner",
          "type": "address"
        },
        {
          "indexed": true,
          "internalType": "address",
          "name": "operator",
          "type": "address"
        },
        {
          "indexed": false,
          "internalType": "bool",
          "name": "approved",
          "type": "bool"
        }
      ],
      "name": "ApprovalForAll",
      "type": "event"
    },
    {
      "anonymous": false,
      "inputs": [
        {
          "indexed": true,
          "internalType": "address",
          "name": "previousOwner",
          "type": "address"
        },
        {
          "indexed": true,
          "internalType": "address",
          "name": "newOwner",
          "type": "address"
        }
      ],
      "name": "OwnershipTransferred",
      "type": "event"
    },
    {
      "anonymous": false,
      "inputs": [
        {
          "indexed": false,
          "internalType": "address",
          "name": "account",
          "type": "address"
        }
      ],
      "name": "Paused",
      "type": "event"
    },
    {
      "anonymous": false,
      "inputs": [
        {
          "indexed": true,
          "internalType": "address",
          "name": "from",
          "type": "address"
        },
        {
          "indexed": true,
          "internalType": "address",
          "name": "to",
          "type": "address"
        },
        {
          "indexed": true,
          "internalType": "uint256",
          "name": "tokenId",
          "type": "uint256"
        }
      ],
      "name": "Transfer",
      "type": "event"
    },
    {
      "anonymous": false,
      "inputs": [
        {
          "indexed": false,
          "internalType": "address",
          "name": "account",
          "type": "address"
        }
      ],
      "name": "Unpaused",
      "type": "event"
    },
    {
      "inputs": [
        {
          "internalType": "address",
          "name": "to",
          "type": "address"
        },
        {
          "internalType": "uint256",
          "name": "tokenId",
          "type": "uint256"
        }
      ],
      "name": "approve",
      "outputs": [],
      "stateMutability": "nonpayable",
      "type": "function"
    },
    {
      "inputs": [
        {
          "internalType": "address",
          "name": "owner",
          "type": "address"
        }
      ],
      "name": "balanceOf",
      "outputs": [
        {
          "internalType": "uint256",
          "name": "",
          "type": "uint256"
        }
      ],
      "stateMutability": "view",
      "type": "function",
      "constant": true
    },
    {
      "inputs": [],
      "name": "baseTokenURI",
      "outputs": [
        {
          "internalType": "string",
          "name": "",
          "type": "string"
        }
      ],
      "stateMutability": "view",
      "type": "function",
      "constant": true
    },
    {
      "inputs": [
        {
          "internalType": "uint256",
          "name": "tokenId",
          "type": "uint256"
        }
      ],
      "name": "burn",
      "outputs": [],
      "stateMutability": "nonpayable",
      "type": "function"
    },
    {
      "inputs": [
        {
          "internalType": "uint256",
          "name": "tokenId",
          "type": "uint256"
        }
      ],
      "name": "getApproved",
      "outputs": [
        {
          "internalType": "address",
          "name": "",
          "type": "address"
        }
      ],
      "stateMutability": "view",
      "type": "function",
      "constant": true
    },
    {
      "inputs": [
        {
          "internalType": "address",
          "name": "owner",
          "type": "address"
        },
        {
          "internalType": "address",
          "name": "operator",
          "type": "address"
        }
      ],
      "name": "isApprovedForAll",
      "outputs": [
        {
          "internalType": "bool",
          "name": "",
          "type": "bool"
        }
      ],
      "stateMutability": "view",
      "type": "function",
      "constant": true
    },
    {
      "inputs": [],
      "name": "name",
      "outputs": [
        {
          "internalType": "string",
          "name": "",
          "type": "string"
        }
      ],
      "stateMutability": "view",
      "type": "function",
      "constant": true
    },
    {
      "inputs": [],
      "name": "owner",
      "outputs": [
        {
          "internalType": "address",
          "name": "",
          "type": "address"
        }
      ],
      "stateMutability": "view",
      "type": "function",
      "constant": true
    },
    {
      "inputs": [
        {
          "internalType": "uint256",
          "name": "tokenId",
          "type": "uint256"
        }
      ],
      "name": "ownerOf",
      "outputs": [
        {
          "internalType": "address",
          "name": "",
          "type": "address"
        }
      ],
      "stateMutability": "view",
      "type": "function",
      "constant": true
    },
    {
      "inputs": [],
      "name": "paused",
      "outputs": [
        {
          "internalType": "bool",
          "name": "",
          "type": "bool"
        }
      ],
      "stateMutability": "view",
      "type": "function",
      "constant": true
    },
    {
      "inputs": [],
      "name": "renounceOwnership",
      "outputs": [],
      "stateMutability": "nonpayable",
      "type": "function"
    },
    {
      "inputs": [
        {
          "internalType": "address",
          "name": "from",
          "type": "address"
        },
        {
          "internalType": "address",
          "name": "to",
          "type": "address"
        },
        {
          "internalType": "uint256",
          "name": "tokenId",
          "type": "uint256"
        }
      ],
      "name": "safeTransferFrom",
      "outputs": [],
      "stateMutability": "nonpayable",
      "type": "function"
    },
    {
      "inputs": [
        {
          "internalType": "address",
          "name": "from",
          "type": "address"
        },
        {
          "internalType": "address",
          "name": "to",
          "type": "address"
        },
        {
          "internalType": "uint256",
          "name": "tokenId",
          "type": "uint256"
        },
        {
          "internalType": "bytes",
          "name": "_data",
          "type": "bytes"
        }
      ],
      "name": "safeTransferFrom",
      "outputs": [],
      "stateMutability": "nonpayable",
      "type": "function"
    },
    {
      "inputs": [
        {
          "internalType": "address",
          "name": "operator",
          "type": "address"
        },
        {
          "internalType": "bool",
          "name": "approved",
          "type": "bool"
        }
      ],
      "name": "setApprovalForAll",
      "outputs": [],
      "stateMutability": "nonpayable",
      "type": "function"
    },
    {
      "inputs": [],
      "name": "symbol",
      "outputs": [
        {
          "internalType": "string",
          "name": "",
          "type": "string"
        }
      ],
      "stateMutability": "view",
      "type": "function",
      "constant": true
    },
    {
      "inputs": [
        {
          "internalType": "uint256",
          "name": "index",
          "type": "uint256"
        }
      ],
      "name": "tokenByIndex",
      "outputs": [
        {
          "internalType": "uint256",
          "name": "",
          "type": "uint256"
        }
      ],
      "stateMutability": "view",
      "type": "function",
      "constant": true
    },
    {
      "inputs": [
        {
          "internalType": "address",
          "name": "owner",
          "type": "address"
        },
        {
          "internalType": "uint256",
          "name": "index",
          "type": "uint256"
        }
      ],
      "name": "tokenOfOwnerByIndex",
      "outputs": [
        {
          "internalType": "uint256",
          "name": "",
          "type": "uint256"
        }
      ],
      "stateMutability": "view",
      "type": "function",
      "constant": true
    },
    {
      "inputs": [],
      "name": "totalSupply",
      "outputs": [
        {
          "internalType": "uint256",
          "name": "",
          "type": "uint256"
        }
      ],
      "stateMutability": "view",
      "type": "function",
      "constant": true
    },
    {
      "inputs": [
        {
          "internalType": "address",
          "name": "from",
          "type": "address"
        },
        {
          "internalType": "address",
          "name": "to",
          "type": "address"
        },
        {
          "internalType": "uint256",
          "name": "tokenId",
          "type": "uint256"
        }
      ],
      "name": "transferFrom",
      "outputs": [],
      "stateMutability": "nonpayable",
      "type": "function"
    },
    {
      "inputs": [
        {
          "internalType": "address",
          "name": "newOwner",
          "type": "address"
        }
      ],
      "name": "transferOwnership",
      "outputs": [],
      "stateMutability": "nonpayable",
      "type": "function"
    },
    {
      "inputs": [],
      "name": "initialize",
      "outputs": [],
      "stateMutability": "nonpayable",
      "type": "function"
    },
    {
      "inputs": [
        {
          "internalType": "address",
          "name": "to",
          "type": "address"
        }
      ],
      "name": "safeMint",
      "outputs": [],
      "stateMutability": "payable",
      "type": "function",
      "payable": true
    },
    {
      "inputs": [],
      "name": "pause",
      "outputs": [],
      "stateMutability": "nonpayable",
      "type": "function"
    },
    {
      "inputs": [],
      "name": "unpause",
      "outputs": [],
      "stateMutability": "nonpayable",
      "type": "function"
    },
    {
      "inputs": [
        {
          "internalType": "string",
          "name": "_baseTokenURI",
          "type": "string"
        }
      ],
      "name": "setBaseURI",
      "outputs": [],
      "stateMutability": "nonpayable",
      "type": "function"
    },
    {
      "inputs": [
        {
          "internalType": "uint256",
          "name": "tokenId",
          "type": "uint256"
        }
      ],
      "name": "tokenURI",
      "outputs": [
        {
          "internalType": "string",
          "name": "",
          "type": "string"
        }
      ],
      "stateMutability": "view",
      "type": "function",
      "constant": true
    },
    {
      "inputs": [
        {
          "internalType": "bytes4",
          "name": "interfaceId",
          "type": "bytes4"
        }
      ],
      "name": "supportsInterface",
      "outputs": [
        {
          "internalType": "bool",
          "name": "",
          "type": "bool"
        }
      ],
      "stateMutability": "view",
      "type": "function",
      "constant": true
    }
  ],
  "bytecode": "0x608060405234801561001057600080fd5b50614f9e806100206000396000f3fe60806040526004361061019c5760003560e01c80635c975abb116100ec57806395d89b411161008a578063c87b56dd11610064578063c87b56dd1461057d578063d547cfb7146105ba578063e985e9c5146105e5578063f2fde38b146106225761019c565b806395d89b4114610500578063a22cb4651461052b578063b88d4fde146105545761019c565b8063715018a6116100c6578063715018a6146104905780638129fc1c146104a75780638456cb59146104be5780638da5cb5b146104d55761019c565b80635c975abb146103eb5780636352211e1461041657806370a08231146104535761019c565b80632f745c591161015957806342842e0e1161013357806342842e0e1461033357806342966c681461035c5780634f6ccce71461038557806355f804b3146103c25761019c565b80632f745c59146102c35780633f4ba83a1461030057806340d097c3146103175761019c565b806301ffc9a7146101a157806306fdde03146101de578063081812fc14610209578063095ea7b31461024657806318160ddd1461026f57806323b872dd1461029a575b600080fd5b3480156101ad57600080fd5b506101c860048036038101906101c39190613c7e565b61064b565b6040516101d591906141ba565b60405180910390f35b3480156101ea57600080fd5b506101f361065d565b60405161020091906141d5565b60405180910390f35b34801561021557600080fd5b50610230600480360381019061022b9190613d11565b6106ef565b60405161023d9190614153565b60405180910390f35b34801561025257600080fd5b5061026d60048036038101906102689190613c42565b610774565b005b34801561027b57600080fd5b5061028461088c565b60405161029191906144d7565b60405180910390f35b3480156102a657600080fd5b506102c160048036038101906102bc9190613b3c565b610899565b005b3480156102cf57600080fd5b506102ea60048036038101906102e59190613c42565b6108f9565b6040516102f791906144d7565b60405180910390f35b34801561030c57600080fd5b5061031561099e565b005b610331600480360381019061032c9190613ad7565b610a24565b005b34801561033f57600080fd5b5061035a60048036038101906103559190613b3c565b610a46565b005b34801561036857600080fd5b50610383600480360381019061037e9190613d11565b610a66565b005b34801561039157600080fd5b506103ac60048036038101906103a79190613d11565b610ac2565b6040516103b991906144d7565b60405180910390f35b3480156103ce57600080fd5b506103e960048036038101906103e49190613cd0565b610b59565b005b3480156103f757600080fd5b50610400610bf0565b60405161040d91906141ba565b60405180910390f35b34801561042257600080fd5b5061043d60048036038101906104389190613d11565b610c07565b60405161044a9190614153565b60405180910390f35b34801561045f57600080fd5b5061047a60048036038101906104759190613ad7565b610cb9565b60405161048791906144d7565b60405180910390f35b34801561049c57600080fd5b506104a5610d71565b005b3480156104b357600080fd5b506104bc610df9565b005b3480156104ca57600080fd5b506104d3610f6e565b005b3480156104e157600080fd5b506104ea610ff4565b6040516104f79190614153565b60405180910390f35b34801561050c57600080fd5b5061051561101f565b60405161052291906141d5565b60405180910390f35b34801561053757600080fd5b50610552600480360381019061054d9190613c06565b6110b1565b005b34801561056057600080fd5b5061057b60048036038101906105769190613b8b565b611232565b005b34801561058957600080fd5b506105a4600480360381019061059f9190613d11565b611294565b6040516105b191906141d5565b60405180910390f35b3480156105c657600080fd5b506105cf6112a6565b6040516105dc91906141d5565b60405180910390f35b3480156105f157600080fd5b5061060c60048036038101906106079190613b00565b611335565b60405161061991906141ba565b60405180910390f35b34801561062e57600080fd5b5061064960048036038101906106449190613ad7565b6113c9565b005b6000610656826114c1565b9050919050565b60606065805461066c9061472d565b80601f01602080910402602001604051908101604052809291908181526020018280546106989061472d565b80156106e55780601f106106ba576101008083540402835291602001916106e5565b820191906000526020600020905b8154815290600101906020018083116106c857829003601f168201915b5050505050905090565b60006106fa8261153b565b610739576040517f08c379a0000000000000000000000000000000000000000000000000000000008152600401610730906143d7565b60405180910390fd5b6069600083815260200190815260200160002060009054906101000a900473ffffffffffffffffffffffffffffffffffffffff169050919050565b600061077f82610c07565b90508073ffffffffffffffffffffffffffffffffffffffff168373ffffffffffffffffffffffffffffffffffffffff1614156107f0576040517f08c379a00000000000000000000000000000000000000000000000000000000081526004016107e790614457565b60405180910390fd5b8073ffffffffffffffffffffffffffffffffffffffff1661080f6115a7565b73ffffffffffffffffffffffffffffffffffffffff16148061083e575061083d816108386115a7565b611335565b5b61087d576040517f08c379a000000000000000000000000000000000000000000000000000000000815260040161087490614317565b60405180910390fd5b61088783836115af565b505050565b6000609980549050905090565b6108aa6108a46115a7565b82611668565b6108e9576040517f08c379a00000000000000000000000000000000000000000000000000000000081526004016108e090614477565b60405180910390fd5b6108f4838383611746565b505050565b600061090483610cb9565b8210610945576040517f08c379a000000000000000000000000000000000000000000000000000000000815260040161093c90614217565b60405180910390fd5b609760008473ffffffffffffffffffffffffffffffffffffffff1673ffffffffffffffffffffffffffffffffffffffff168152602001908152602001600020600083815260200190815260200160002054905092915050565b6109a66115a7565b73ffffffffffffffffffffffffffffffffffffffff166109c4610ff4565b73ffffffffffffffffffffffffffffffffffffffff1614610a1a576040517f08c379a0000000000000000000000000000000000000000000000000000000008152600401610a11906143f7565b60405180910390fd5b610a226119a2565b565b610a3881610a33610191611a44565b611a52565b610a43610191611a70565b50565b610a6183838360405180602001604052806000815250611232565b505050565b610a77610a716115a7565b82611668565b610ab6576040517f08c379a0000000000000000000000000000000000000000000000000000000008152600401610aad906144b7565b60405180910390fd5b610abf81611a86565b50565b6000610acc61088c565b8210610b0d576040517f08c379a0000000000000000000000000000000000000000000000000000000008152600401610b0490614497565b60405180910390fd5b60998281548110610b47577f4e487b7100000000000000000000000000000000000000000000000000000000600052603260045260246000fd5b90600052602060002001549050919050565b610b616115a7565b73ffffffffffffffffffffffffffffffffffffffff16610b7f610ff4565b73ffffffffffffffffffffffffffffffffffffffff1614610bd5576040517f08c379a0000000000000000000000000000000000000000000000000000000008152600401610bcc906143f7565b60405180910390fd5b806101929080519060200190610bec9291906138bb565b5050565b600060fb60009054906101000a900460ff16905090565b6000806067600084815260200190815260200160002060009054906101000a900473ffffffffffffffffffffffffffffffffffffffff169050600073ffffffffffffffffffffffffffffffffffffffff168173ffffffffffffffffffffffffffffffffffffffff161415610cb0576040517f08c379a0000000000000000000000000000000000000000000000000000000008152600401610ca790614357565b60405180910390fd5b80915050919050565b60008073ffffffffffffffffffffffffffffffffffffffff168273ffffffffffffffffffffffffffffffffffffffff161415610d2a576040517f08c379a0000000000000000000000000000000000000000000000000000000008152600401610d2190614337565b60405180910390fd5b606860008373ffffffffffffffffffffffffffffffffffffffff1673ffffffffffffffffffffffffffffffffffffffff168152602001908152602001600020549050919050565b610d796115a7565b73ffffffffffffffffffffffffffffffffffffffff16610d97610ff4565b73ffffffffffffffffffffffffffffffffffffffff1614610ded576040517f08c379a0000000000000000000000000000000000000000000000000000000008152600401610de4906143f7565b60405180910390fd5b610df76000611a92565b565b600060019054906101000a900460ff1680610e1f575060008054906101000a900460ff16155b610e5e576040517f08c379a0000000000000000000000000000000000000000000000000000000008152600401610e5590614377565b60405180910390fd5b60008060019054906101000a900460ff161590508015610eae576001600060016101000a81548160ff02191690831515021790555060016000806101000a81548160ff0219169083151502179055505b610f226040518060400160405280600c81526020017f43727970746f49736c616e6400000000000000000000000000000000000000008152506040518060400160405280600381526020017f574f4f0000000000000000000000000000000000000000000000000000000000815250611b5a565b610f2a611c4f565b610f32611d40565b610f3a611e31565b610f42611f1a565b610f4a612003565b8015610f6b5760008060016101000a81548160ff0219169083151502179055505b50565b610f766115a7565b73ffffffffffffffffffffffffffffffffffffffff16610f94610ff4565b73ffffffffffffffffffffffffffffffffffffffff1614610fea576040517f08c379a0000000000000000000000000000000000000000000000000000000008152600401610fe1906143f7565b60405180910390fd5b610ff26120f4565b565b600061012d60009054906101000a900473ffffffffffffffffffffffffffffffffffffffff16905090565b60606066805461102e9061472d565b80601f016020809104026020016040519081016040528092919081815260200182805461105a9061472d565b80156110a75780601f1061107c576101008083540402835291602001916110a7565b820191906000526020600020905b81548152906001019060200180831161108a57829003601f168201915b5050505050905090565b6110b96115a7565b73ffffffffffffffffffffffffffffffffffffffff168273ffffffffffffffffffffffffffffffffffffffff161415611127576040517f08c379a000000000000000000000000000000000000000000000000000000000815260040161111e906142b7565b60405180910390fd5b80606a60006111346115a7565b73ffffffffffffffffffffffffffffffffffffffff1673ffffffffffffffffffffffffffffffffffffffff16815260200190815260200160002060008473ffffffffffffffffffffffffffffffffffffffff1673ffffffffffffffffffffffffffffffffffffffff16815260200190815260200160002060006101000a81548160ff0219169083151502179055508173ffffffffffffffffffffffffffffffffffffffff166111e16115a7565b73ffffffffffffffffffffffffffffffffffffffff167f17307eab39ab6107e8899845ad3d59bd9653f200f220920489ca2b5937696c318360405161122691906141ba565b60405180910390a35050565b61124361123d6115a7565b83611668565b611282576040517f08c379a000000000000000000000000000000000000000000000000000000000815260040161127990614477565b60405180910390fd5b61128e84848484612197565b50505050565b606061129f826121f3565b9050919050565b61019280546112b49061472d565b80601f01602080910402602001604051908101604052809291908181526020018280546112e09061472d565b801561132d5780601f106113025761010080835404028352916020019161132d565b820191906000526020600020905b81548152906001019060200180831161131057829003601f168201915b505050505081565b6000606a60008473ffffffffffffffffffffffffffffffffffffffff1673ffffffffffffffffffffffffffffffffffffffff16815260200190815260200160002060008373ffffffffffffffffffffffffffffffffffffffff1673ffffffffffffffffffffffffffffffffffffffff16815260200190815260200160002060009054906101000a900460ff16905092915050565b6113d16115a7565b73ffffffffffffffffffffffffffffffffffffffff166113ef610ff4565b73ffffffffffffffffffffffffffffffffffffffff1614611445576040517f08c379a000000000000000000000000000000000000000000000000000000000815260040161143c906143f7565b60405180910390fd5b600073ffffffffffffffffffffffffffffffffffffffff168173ffffffffffffffffffffffffffffffffffffffff1614156114b5576040517f08c379a00000000000000000000000000000000000000000000000000000000081526004016114ac90614257565b60405180910390fd5b6114be81611a92565b50565b60007f780e9d63000000000000000000000000000000000000000000000000000000007bffffffffffffffffffffffffffffffffffffffffffffffffffffffff1916827bffffffffffffffffffffffffffffffffffffffffffffffffffffffff19161480611534575061153382612345565b5b9050919050565b60008073ffffffffffffffffffffffffffffffffffffffff166067600084815260200190815260200160002060009054906101000a900473ffffffffffffffffffffffffffffffffffffffff1673ffffffffffffffffffffffffffffffffffffffff1614159050919050565b600033905090565b816069600083815260200190815260200160002060006101000a81548173ffffffffffffffffffffffffffffffffffffffff021916908373ffffffffffffffffffffffffffffffffffffffff160217905550808273ffffffffffffffffffffffffffffffffffffffff1661162283610c07565b73ffffffffffffffffffffffffffffffffffffffff167f8c5be1e5ebec7d5bd14f71427d1e84f3dd0314c0f7b2291e5b200ac8c7c3b92560405160405180910390a45050565b60006116738261153b565b6116b2576040517f08c379a00000000000000000000000000000000000000000000000000000000081526004016116a9906142d7565b60405180910390fd5b60006116bd83610c07565b90508073ffffffffffffffffffffffffffffffffffffffff168473ffffffffffffffffffffffffffffffffffffffff16148061172c57508373ffffffffffffffffffffffffffffffffffffffff16611714846106ef565b73ffffffffffffffffffffffffffffffffffffffff16145b8061173d575061173c8185611335565b5b91505092915050565b8273ffffffffffffffffffffffffffffffffffffffff1661176682610c07565b73ffffffffffffffffffffffffffffffffffffffff16146117bc576040517f08c379a00000000000000000000000000000000000000000000000000000000081526004016117b390614417565b60405180910390fd5b600073ffffffffffffffffffffffffffffffffffffffff168273ffffffffffffffffffffffffffffffffffffffff16141561182c576040517f08c379a000000000000000000000000000000000000000000000000000000000815260040161182390614297565b60405180910390fd5b611837838383612427565b6118426000826115af565b6001606860008573ffffffffffffffffffffffffffffffffffffffff1673ffffffffffffffffffffffffffffffffffffffff16815260200190815260200160002060008282546118929190614643565b925050819055506001606860008473ffffffffffffffffffffffffffffffffffffffff1673ffffffffffffffffffffffffffffffffffffffff16815260200190815260200160002060008282546118e991906145bc565b92505081905550816067600083815260200190815260200160002060006101000a81548173ffffffffffffffffffffffffffffffffffffffff021916908373ffffffffffffffffffffffffffffffffffffffff160217905550808273ffffffffffffffffffffffffffffffffffffffff168473ffffffffffffffffffffffffffffffffffffffff167fddf252ad1be2c89b69c2b068fc378daa952ba7f163c4a11628f55a4df523b3ef60405160405180910390a4505050565b6119aa610bf0565b6119e9576040517f08c379a00000000000000000000000000000000000000000000000000000000081526004016119e0906141f7565b60405180910390fd5b600060fb60006101000a81548160ff0219169083151502179055507f5db9ee0a495bf2e6ff9c91a7834c1ba4fdd244a5e8aa4e537bd38aeae4b073aa611a2d6115a7565b604051611a3a9190614153565b60405180910390a1565b600081600001549050919050565b611a6c82826040518060200160405280600081525061247f565b5050565b6001816000016000828254019250508190555050565b611a8f816124da565b50565b600061012d60009054906101000a900473ffffffffffffffffffffffffffffffffffffffff1690508161012d60006101000a81548173ffffffffffffffffffffffffffffffffffffffff021916908373ffffffffffffffffffffffffffffffffffffffff1602179055508173ffffffffffffffffffffffffffffffffffffffff168173ffffffffffffffffffffffffffffffffffffffff167f8be0079c531659141344cd1fd0a4f28419497f9722a3daafe3b4186f6b6457e060405160405180910390a35050565b600060019054906101000a900460ff1680611b80575060008054906101000a900460ff16155b611bbf576040517f08c379a0000000000000000000000000000000000000000000000000000000008152600401611bb690614377565b60405180910390fd5b60008060019054906101000a900460ff161590508015611c0f576001600060016101000a81548160ff02191690831515021790555060016000806101000a81548160ff0219169083151502179055505b611c1761252d565b611c1f612606565b611c2983836126df565b8015611c4a5760008060016101000a81548160ff0219169083151502179055505b505050565b600060019054906101000a900460ff1680611c75575060008054906101000a900460ff16155b611cb4576040517f08c379a0000000000000000000000000000000000000000000000000000000008152600401611cab90614377565b60405180910390fd5b60008060019054906101000a900460ff161590508015611d04576001600060016101000a81548160ff02191690831515021790555060016000806101000a81548160ff0219169083151502179055505b611d0c61252d565b611d14612606565b611d1c6127e8565b8015611d3d5760008060016101000a81548160ff0219169083151502179055505b50565b600060019054906101000a900460ff1680611d66575060008054906101000a900460ff16155b611da5576040517f08c379a0000000000000000000000000000000000000000000000000000000008152600401611d9c90614377565b60405180910390fd5b60008060019054906101000a900460ff161590508015611df5576001600060016101000a81548160ff02191690831515021790555060016000806101000a81548160ff0219169083151502179055505b611dfd61252d565b611e05612606565b611e0d6128c1565b8015611e2e5760008060016101000a81548160ff0219169083151502179055505b50565b600060019054906101000a900460ff1680611e57575060008054906101000a900460ff16155b611e96576040517f08c379a0000000000000000000000000000000000000000000000000000000008152600401611e8d90614377565b60405180910390fd5b60008060019054906101000a900460ff161590508015611ee6576001600060016101000a81548160ff02191690831515021790555060016000806101000a81548160ff0219169083151502179055505b611eee61252d565b611ef661299a565b8015611f175760008060016101000a81548160ff0219169083151502179055505b50565b600060019054906101000a900460ff1680611f40575060008054906101000a900460ff16155b611f7f576040517f08c379a0000000000000000000000000000000000000000000000000000000008152600401611f7690614377565b60405180910390fd5b60008060019054906101000a900460ff161590508015611fcf576001600060016101000a81548160ff02191690831515021790555060016000806101000a81548160ff0219169083151502179055505b611fd761252d565b611fdf612a8e565b80156120005760008060016101000a81548160ff0219169083151502179055505b50565b600060019054906101000a900460ff1680612029575060008054906101000a900460ff16155b612068576040517f08c379a000000000000000000000000000000000000000000000000000000000815260040161205f90614377565b60405180910390fd5b60008060019054906101000a900460ff1615905080156120b8576001600060016101000a81548160ff02191690831515021790555060016000806101000a81548160ff0219169083151502179055505b6120c061252d565b6120c8612606565b6120d0612b77565b80156120f15760008060016101000a81548160ff0219169083151502179055505b50565b6120fc610bf0565b1561213c576040517f08c379a0000000000000000000000000000000000000000000000000000000008152600401612133906142f7565b60405180910390fd5b600160fb60006101000a81548160ff0219169083151502179055507f62e78cea01bee320cd4e420270b5ea74000d11b0c9f74754ebdbfc544b05a2586121806115a7565b60405161218d9190614153565b60405180910390a1565b6121a2848484611746565b6121ae84848484612c50565b6121ed576040517f08c379a00000000000000000000000000000000000000000000000000000000081526004016121e490614237565b60405180910390fd5b50505050565b60606121fe8261153b565b61223d576040517f08c379a0000000000000000000000000000000000000000000000000000000008152600401612234906143b7565b60405180910390fd5b600060c96000848152602001908152602001600020805461225d9061472d565b80601f01602080910402602001604051908101604052809291908181526020018280546122899061472d565b80156122d65780601f106122ab576101008083540402835291602001916122d6565b820191906000526020600020905b8154815290600101906020018083116122b957829003601f168201915b5050505050905060006122e7612de7565b90506000815114156122fd578192505050612340565b60008251111561233257808260405160200161231a92919061412f565b60405160208183030381529060405292505050612340565b61233b84612e7a565b925050505b919050565b60007f80ac58cd000000000000000000000000000000000000000000000000000000007bffffffffffffffffffffffffffffffffffffffffffffffffffffffff1916827bffffffffffffffffffffffffffffffffffffffffffffffffffffffff1916148061241057507f5b5e139f000000000000000000000000000000000000000000000000000000007bffffffffffffffffffffffffffffffffffffffffffffffffffffffff1916827bffffffffffffffffffffffffffffffffffffffffffffffffffffffff1916145b80612420575061241f82612f21565b5b9050919050565b61242f610bf0565b1561246f576040517f08c379a0000000000000000000000000000000000000000000000000000000008152600401612466906142f7565b60405180910390fd5b61247a838383612f8b565b505050565b612489838361309f565b6124966000848484612c50565b6124d5576040517f08c379a00000000000000000000000000000000000000000000000000000000081526004016124cc90614237565b60405180910390fd5b505050565b6124e38161326d565b600060c9600083815260200190815260200160002080546125039061472d565b90501461252a5760c9600082815260200190815260200160002060006125299190613941565b5b50565b600060019054906101000a900460ff1680612553575060008054906101000a900460ff16155b612592576040517f08c379a000000000000000000000000000000000000000000000000000000000815260040161258990614377565b60405180910390fd5b60008060019054906101000a900460ff1615905080156125e2576001600060016101000a81548160ff02191690831515021790555060016000806101000a81548160ff0219169083151502179055505b80156126035760008060016101000a81548160ff0219169083151502179055505b50565b600060019054906101000a900460ff168061262c575060008054906101000a900460ff16155b61266b576040517f08c379a000000000000000000000000000000000000000000000000000000000815260040161266290614377565b60405180910390fd5b60008060019054906101000a900460ff1615905080156126bb576001600060016101000a81548160ff02191690831515021790555060016000806101000a81548160ff0219169083151502179055505b80156126dc5760008060016101000a81548160ff0219169083151502179055505b50565b600060019054906101000a900460ff1680612705575060008054906101000a900460ff16155b612744576040517f08c379a000000000000000000000000000000000000000000000000000000000815260040161273b90614377565b60405180910390fd5b60008060019054906101000a900460ff161590508015612794576001600060016101000a81548160ff02191690831515021790555060016000806101000a81548160ff0219169083151502179055505b82606590805190602001906127aa9291906138bb565b5081606690805190602001906127c19291906138bb565b5080156127e35760008060016101000a81548160ff0219169083151502179055505b505050565b600060019054906101000a900460ff168061280e575060008054906101000a900460ff16155b61284d576040517f08c379a000000000000000000000000000000000000000000000000000000000815260040161284490614377565b60405180910390fd5b60008060019054906101000a900460ff16159050801561289d576001600060016101000a81548160ff02191690831515021790555060016000806101000a81548160ff0219169083151502179055505b80156128be5760008060016101000a81548160ff0219169083151502179055505b50565b600060019054906101000a900460ff16806128e7575060008054906101000a900460ff16155b612926576040517f08c379a000000000000000000000000000000000000000000000000000000000815260040161291d90614377565b60405180910390fd5b60008060019054906101000a900460ff161590508015612976576001600060016101000a81548160ff02191690831515021790555060016000806101000a81548160ff0219169083151502179055505b80156129975760008060016101000a81548160ff0219169083151502179055505b50565b600060019054906101000a900460ff16806129c0575060008054906101000a900460ff16155b6129ff576040517f08c379a00000000000000000000000000000000000000000000000000000000081526004016129f690614377565b60405180910390fd5b60008060019054906101000a900460ff161590508015612a4f576001600060016101000a81548160ff02191690831515021790555060016000806101000a81548160ff0219169083151502179055505b600060fb60006101000a81548160ff0219169083151502179055508015612a8b5760008060016101000a81548160ff0219169083151502179055505b50565b600060019054906101000a900460ff1680612ab4575060008054906101000a900460ff16155b612af3576040517f08c379a0000000000000000000000000000000000000000000000000000000008152600401612aea90614377565b60405180910390fd5b60008060019054906101000a900460ff161590508015612b43576001600060016101000a81548160ff02191690831515021790555060016000806101000a81548160ff0219169083151502179055505b612b53612b4e6115a7565b611a92565b8015612b745760008060016101000a81548160ff0219169083151502179055505b50565b600060019054906101000a900460ff1680612b9d575060008054906101000a900460ff16155b612bdc576040517f08c379a0000000000000000000000000000000000000000000000000000000008152600401612bd390614377565b60405180910390fd5b60008060019054906101000a900460ff161590508015612c2c576001600060016101000a81548160ff02191690831515021790555060016000806101000a81548160ff0219169083151502179055505b8015612c4d5760008060016101000a81548160ff0219169083151502179055505b50565b6000612c718473ffffffffffffffffffffffffffffffffffffffff1661337e565b15612dda578373ffffffffffffffffffffffffffffffffffffffff1663150b7a02612c9a6115a7565b8786866040518563ffffffff1660e01b8152600401612cbc949392919061416e565b602060405180830381600087803b158015612cd657600080fd5b505af1925050508015612d0757506040513d601f19601f82011682018060405250810190612d049190613ca7565b60015b612d8a573d8060008114612d37576040519150601f19603f3d011682016040523d82523d6000602084013e612d3c565b606091505b50600081511415612d82576040517f08c379a0000000000000000000000000000000000000000000000000000000008152600401612d7990614237565b60405180910390fd5b805181602001fd5b63150b7a0260e01b7bffffffffffffffffffffffffffffffffffffffffffffffffffffffff1916817bffffffffffffffffffffffffffffffffffffffffffffffffffffffff191614915050612ddf565b600190505b949350505050565b60606101928054612df79061472d565b80601f0160208091040260200160405190810160405280929190818152602001828054612e239061472d565b8015612e705780601f10612e4557610100808354040283529160200191612e70565b820191906000526020600020905b815481529060010190602001808311612e5357829003601f168201915b5050505050905090565b6060612e858261153b565b612ec4576040517f08c379a0000000000000000000000000000000000000000000000000000000008152600401612ebb90614437565b60405180910390fd5b6000612ece612de7565b90506000815111612eee5760405180602001604052806000815250612f19565b80612ef884613391565b604051602001612f0992919061412f565b6040516020818303038152906040525b915050919050565b60007f01ffc9a7000000000000000000000000000000000000000000000000000000007bffffffffffffffffffffffffffffffffffffffffffffffffffffffff1916827bffffffffffffffffffffffffffffffffffffffffffffffffffffffff1916149050919050565b612f9683838361353e565b600073ffffffffffffffffffffffffffffffffffffffff168373ffffffffffffffffffffffffffffffffffffffff161415612fd957612fd481613543565b613018565b8173ffffffffffffffffffffffffffffffffffffffff168373ffffffffffffffffffffffffffffffffffffffff161461301757613016838261358c565b5b5b600073ffffffffffffffffffffffffffffffffffffffff168273ffffffffffffffffffffffffffffffffffffffff16141561305b57613056816136f9565b61309a565b8273ffffffffffffffffffffffffffffffffffffffff168273ffffffffffffffffffffffffffffffffffffffff161461309957613098828261383c565b5b5b505050565b600073ffffffffffffffffffffffffffffffffffffffff168273ffffffffffffffffffffffffffffffffffffffff16141561310f576040517f08c379a000000000000000000000000000000000000000000000000000000000815260040161310690614397565b60405180910390fd5b6131188161153b565b15613158576040517f08c379a000000000000000000000000000000000000000000000000000000000815260040161314f90614277565b60405180910390fd5b61316460008383612427565b6001606860008473ffffffffffffffffffffffffffffffffffffffff1673ffffffffffffffffffffffffffffffffffffffff16815260200190815260200160002060008282546131b491906145bc565b92505081905550816067600083815260200190815260200160002060006101000a81548173ffffffffffffffffffffffffffffffffffffffff021916908373ffffffffffffffffffffffffffffffffffffffff160217905550808273ffffffffffffffffffffffffffffffffffffffff16600073ffffffffffffffffffffffffffffffffffffffff167fddf252ad1be2c89b69c2b068fc378daa952ba7f163c4a11628f55a4df523b3ef60405160405180910390a45050565b600061327882610c07565b905061328681600084612427565b6132916000836115af565b6001606860008373ffffffffffffffffffffffffffffffffffffffff1673ffffffffffffffffffffffffffffffffffffffff16815260200190815260200160002060008282546132e19190614643565b925050819055506067600083815260200190815260200160002060006101000a81549073ffffffffffffffffffffffffffffffffffffffff021916905581600073ffffffffffffffffffffffffffffffffffffffff168273ffffffffffffffffffffffffffffffffffffffff167fddf252ad1be2c89b69c2b068fc378daa952ba7f163c4a11628f55a4df523b3ef60405160405180910390a45050565b600080823b905060008111915050919050565b606060008214156133d9576040518060400160405280600181526020017f30000000000000000000000000000000000000000000000000000000000000008152509050613539565b600082905060005b6000821461340b5780806133f490614790565b915050600a826134049190614612565b91506133e1565b60008167ffffffffffffffff81111561344d577f4e487b7100000000000000000000000000000000000000000000000000000000600052604160045260246000fd5b6040519080825280601f01601f19166020018201604052801561347f5781602001600182028036833780820191505090505b5090505b60008514613532576001826134989190614643565b9150600a856134a791906147d9565b60306134b391906145bc565b60f81b8183815181106134ef577f4e487b7100000000000000000000000000000000000000000000000000000000600052603260045260246000fd5b60200101907effffffffffffffffffffffffffffffffffffffffffffffffffffffffffffff1916908160001a905350600a8561352b9190614612565b9450613483565b8093505050505b919050565b505050565b609980549050609a600083815260200190815260200160002081905550609981908060018154018082558091505060019003906000526020600020016000909190919091505550565b6000600161359984610cb9565b6135a39190614643565b9050600060986000848152602001908152602001600020549050818114613688576000609760008673ffffffffffffffffffffffffffffffffffffffff1673ffffffffffffffffffffffffffffffffffffffff168152602001908152602001600020600084815260200190815260200160002054905080609760008773ffffffffffffffffffffffffffffffffffffffff1673ffffffffffffffffffffffffffffffffffffffff168152602001908152602001600020600084815260200190815260200160002081905550816098600083815260200190815260200160002081905550505b6098600084815260200190815260200160002060009055609760008573ffffffffffffffffffffffffffffffffffffffff1673ffffffffffffffffffffffffffffffffffffffff16815260200190815260200160002060008381526020019081526020016000206000905550505050565b6000600160998054905061370d9190614643565b90506000609a6000848152602001908152602001600020549050600060998381548110613763577f4e487b7100000000000000000000000000000000000000000000000000000000600052603260045260246000fd5b9060005260206000200154905080609983815481106137ab577f4e487b7100000000000000000000000000000000000000000000000000000000600052603260045260246000fd5b906000526020600020018190555081609a600083815260200190815260200160002081905550609a6000858152602001908152602001600020600090556099805480613820577f4e487b7100000000000000000000000000000000000000000000000000000000600052603160045260246000fd5b6001900381819060005260206000200160009055905550505050565b600061384783610cb9565b905081609760008573ffffffffffffffffffffffffffffffffffffffff1673ffffffffffffffffffffffffffffffffffffffff168152602001908152602001600020600083815260200190815260200160002081905550806098600084815260200190815260200160002081905550505050565b8280546138c79061472d565b90600052602060002090601f0160209004810192826138e95760008555613930565b82601f1061390257805160ff1916838001178555613930565b82800160010185558215613930579182015b8281111561392f578251825591602001919060010190613914565b5b50905061393d9190613981565b5090565b50805461394d9061472d565b6000825580601f1061395f575061397e565b601f01602090049060005260206000209081019061397d9190613981565b5b50565b5b8082111561399a576000816000905550600101613982565b5090565b60006139b16139ac84614517565b6144f2565b9050828152602081018484840111156139c957600080fd5b6139d48482856146eb565b509392505050565b60006139ef6139ea84614548565b6144f2565b905082815260208101848484011115613a0757600080fd5b613a128482856146eb565b509392505050565b600081359050613a2981614f0c565b92915050565b600081359050613a3e81614f23565b92915050565b600081359050613a5381614f3a565b92915050565b600081519050613a6881614f3a565b92915050565b600082601f830112613a7f57600080fd5b8135613a8f84826020860161399e565b91505092915050565b600082601f830112613aa957600080fd5b8135613ab98482602086016139dc565b91505092915050565b600081359050613ad181614f51565b92915050565b600060208284031215613ae957600080fd5b6000613af784828501613a1a565b91505092915050565b60008060408385031215613b1357600080fd5b6000613b2185828601613a1a565b9250506020613b3285828601613a1a565b9150509250929050565b600080600060608486031215613b5157600080fd5b6000613b5f86828701613a1a565b9350506020613b7086828701613a1a565b9250506040613b8186828701613ac2565b9150509250925092565b60008060008060808587031215613ba157600080fd5b6000613baf87828801613a1a565b9450506020613bc087828801613a1a565b9350506040613bd187828801613ac2565b925050606085013567ffffffffffffffff811115613bee57600080fd5b613bfa87828801613a6e565b91505092959194509250565b60008060408385031215613c1957600080fd5b6000613c2785828601613a1a565b9250506020613c3885828601613a2f565b9150509250929050565b60008060408385031215613c5557600080fd5b6000613c6385828601613a1a565b9250506020613c7485828601613ac2565b9150509250929050565b600060208284031215613c9057600080fd5b6000613c9e84828501613a44565b91505092915050565b600060208284031215613cb957600080fd5b6000613cc784828501613a59565b91505092915050565b600060208284031215613ce257600080fd5b600082013567ffffffffffffffff811115613cfc57600080fd5b613d0884828501613a98565b91505092915050565b600060208284031215613d2357600080fd5b6000613d3184828501613ac2565b91505092915050565b613d4381614677565b82525050565b613d5281614689565b82525050565b6000613d6382614579565b613d6d818561458f565b9350613d7d8185602086016146fa565b613d86816148c6565b840191505092915050565b6000613d9c82614584565b613da681856145a0565b9350613db68185602086016146fa565b613dbf816148c6565b840191505092915050565b6000613dd582614584565b613ddf81856145b1565b9350613def8185602086016146fa565b80840191505092915050565b6000613e086014836145a0565b9150613e13826148d7565b602082019050919050565b6000613e2b602b836145a0565b9150613e3682614900565b604082019050919050565b6000613e4e6032836145a0565b9150613e598261494f565b604082019050919050565b6000613e716026836145a0565b9150613e7c8261499e565b604082019050919050565b6000613e94601c836145a0565b9150613e9f826149ed565b602082019050919050565b6000613eb76024836145a0565b9150613ec282614a16565b604082019050919050565b6000613eda6019836145a0565b9150613ee582614a65565b602082019050919050565b6000613efd602c836145a0565b9150613f0882614a8e565b604082019050919050565b6000613f206010836145a0565b9150613f2b82614add565b602082019050919050565b6000613f436038836145a0565b9150613f4e82614b06565b604082019050919050565b6000613f66602a836145a0565b9150613f7182614b55565b604082019050919050565b6000613f896029836145a0565b9150613f9482614ba4565b604082019050919050565b6000613fac602e836145a0565b9150613fb782614bf3565b604082019050919050565b6000613fcf6020836145a0565b9150613fda82614c42565b602082019050919050565b6000613ff26031836145a0565b9150613ffd82614c6b565b604082019050919050565b6000614015602c836145a0565b915061402082614cba565b604082019050919050565b60006140386020836145a0565b915061404382614d09565b602082019050919050565b600061405b6029836145a0565b915061406682614d32565b604082019050919050565b600061407e602f836145a0565b915061408982614d81565b604082019050919050565b60006140a16021836145a0565b91506140ac82614dd0565b604082019050919050565b60006140c46031836145a0565b91506140cf82614e1f565b604082019050919050565b60006140e7602c836145a0565b91506140f282614e6e565b604082019050919050565b600061410a6030836145a0565b915061411582614ebd565b604082019050919050565b614129816146e1565b82525050565b600061413b8285613dca565b91506141478284613dca565b91508190509392505050565b60006020820190506141686000830184613d3a565b92915050565b60006080820190506141836000830187613d3a565b6141906020830186613d3a565b61419d6040830185614120565b81810360608301526141af8184613d58565b905095945050505050565b60006020820190506141cf6000830184613d49565b92915050565b600060208201905081810360008301526141ef8184613d91565b905092915050565b6000602082019050818103600083015261421081613dfb565b9050919050565b6000602082019050818103600083015261423081613e1e565b9050919050565b6000602082019050818103600083015261425081613e41565b9050919050565b6000602082019050818103600083015261427081613e64565b9050919050565b6000602082019050818103600083015261429081613e87565b9050919050565b600060208201905081810360008301526142b081613eaa565b9050919050565b600060208201905081810360008301526142d081613ecd565b9050919050565b600060208201905081810360008301526142f081613ef0565b9050919050565b6000602082019050818103600083015261431081613f13565b9050919050565b6000602082019050818103600083015261433081613f36565b9050919050565b6000602082019050818103600083015261435081613f59565b9050919050565b6000602082019050818103600083015261437081613f7c565b9050919050565b6000602082019050818103600083015261439081613f9f565b9050919050565b600060208201905081810360008301526143b081613fc2565b9050919050565b600060208201905081810360008301526143d081613fe5565b9050919050565b600060208201905081810360008301526143f081614008565b9050919050565b600060208201905081810360008301526144108161402b565b9050919050565b600060208201905081810360008301526144308161404e565b9050919050565b6000602082019050818103600083015261445081614071565b9050919050565b6000602082019050818103600083015261447081614094565b9050919050565b60006020820190508181036000830152614490816140b7565b9050919050565b600060208201905081810360008301526144b0816140da565b9050919050565b600060208201905081810360008301526144d0816140fd565b9050919050565b60006020820190506144ec6000830184614120565b92915050565b60006144fc61450d565b9050614508828261475f565b919050565b6000604051905090565b600067ffffffffffffffff82111561453257614531614897565b5b61453b826148c6565b9050602081019050919050565b600067ffffffffffffffff82111561456357614562614897565b5b61456c826148c6565b9050602081019050919050565b600081519050919050565b600081519050919050565b600082825260208201905092915050565b600082825260208201905092915050565b600081905092915050565b60006145c7826146e1565b91506145d2836146e1565b9250827fffffffffffffffffffffffffffffffffffffffffffffffffffffffffffffffff038211156146075761460661480a565b5b828201905092915050565b600061461d826146e1565b9150614628836146e1565b92508261463857614637614839565b5b828204905092915050565b600061464e826146e1565b9150614659836146e1565b92508282101561466c5761466b61480a565b5b828203905092915050565b6000614682826146c1565b9050919050565b60008115159050919050565b60007fffffffff0000000000000000000000000000000000000000000000000000000082169050919050565b600073ffffffffffffffffffffffffffffffffffffffff82169050919050565b6000819050919050565b82818337600083830152505050565b60005b838110156147185780820151818401526020810190506146fd565b83811115614727576000848401525b50505050565b6000600282049050600182168061474557607f821691505b6020821081141561475957614758614868565b5b50919050565b614768826148c6565b810181811067ffffffffffffffff8211171561478757614786614897565b5b80604052505050565b600061479b826146e1565b91507fffffffffffffffffffffffffffffffffffffffffffffffffffffffffffffffff8214156147ce576147cd61480a565b5b600182019050919050565b60006147e4826146e1565b91506147ef836146e1565b9250826147ff576147fe614839565b5b828206905092915050565b7f4e487b7100000000000000000000000000000000000000000000000000000000600052601160045260246000fd5b7f4e487b7100000000000000000000000000000000000000000000000000000000600052601260045260246000fd5b7f4e487b7100000000000000000000000000000000000000000000000000000000600052602260045260246000fd5b7f4e487b7100000000000000000000000000000000000000000000000000000000600052604160045260246000fd5b6000601f19601f8301169050919050565b7f5061757361626c653a206e6f7420706175736564000000000000000000000000600082015250565b7f455243373231456e756d657261626c653a206f776e657220696e646578206f7560008201527f74206f6620626f756e6473000000000000000000000000000000000000000000602082015250565b7f4552433732313a207472616e7366657220746f206e6f6e20455243373231526560008201527f63656976657220696d706c656d656e7465720000000000000000000000000000602082015250565b7f4f776e61626c653a206e6577206f776e657220697320746865207a65726f206160008201527f6464726573730000000000000000000000000000000000000000000000000000602082015250565b7f4552433732313a20746f6b656e20616c7265616479206d696e74656400000000600082015250565b7f4552433732313a207472616e7366657220746f20746865207a65726f2061646460008201527f7265737300000000000000000000000000000000000000000000000000000000602082015250565b7f4552433732313a20617070726f766520746f2063616c6c657200000000000000600082015250565b7f4552433732313a206f70657261746f7220717565727920666f72206e6f6e657860008201527f697374656e7420746f6b656e0000000000000000000000000000000000000000602082015250565b7f5061757361626c653a2070617573656400000000000000000000000000000000600082015250565b7f4552433732313a20617070726f76652063616c6c6572206973206e6f74206f7760008201527f6e6572206e6f7220617070726f76656420666f7220616c6c0000000000000000602082015250565b7f4552433732313a2062616c616e636520717565727920666f7220746865207a6560008201527f726f206164647265737300000000000000000000000000000000000000000000602082015250565b7f4552433732313a206f776e657220717565727920666f72206e6f6e657869737460008201527f656e7420746f6b656e0000000000000000000000000000000000000000000000602082015250565b7f496e697469616c697a61626c653a20636f6e747261637420697320616c72656160008201527f647920696e697469616c697a6564000000000000000000000000000000000000602082015250565b7f4552433732313a206d696e7420746f20746865207a65726f2061646472657373600082015250565b7f45524337323155524953746f726167653a2055524920717565727920666f722060008201527f6e6f6e6578697374656e7420746f6b656e000000000000000000000000000000602082015250565b7f4552433732313a20617070726f76656420717565727920666f72206e6f6e657860008201527f697374656e7420746f6b656e0000000000000000000000000000000000000000602082015250565b7f4f776e61626c653a2063616c6c6572206973206e6f7420746865206f776e6572600082015250565b7f4552433732313a207472616e73666572206f6620746f6b656e2074686174206960008201527f73206e6f74206f776e0000000000000000000000000000000000000000000000602082015250565b7f4552433732314d657461646174613a2055524920717565727920666f72206e6f60008201527f6e6578697374656e7420746f6b656e0000000000000000000000000000000000602082015250565b7f4552433732313a20617070726f76616c20746f2063757272656e74206f776e6560008201527f7200000000000000000000000000000000000000000000000000000000000000602082015250565b7f4552433732313a207472616e736665722063616c6c6572206973206e6f74206f60008201527f776e6572206e6f7220617070726f766564000000000000000000000000000000602082015250565b7f455243373231456e756d657261626c653a20676c6f62616c20696e646578206f60008201527f7574206f6620626f756e64730000000000000000000000000000000000000000602082015250565b7f4552433732314275726e61626c653a2063616c6c6572206973206e6f74206f7760008201527f6e6572206e6f7220617070726f76656400000000000000000000000000000000602082015250565b614f1581614677565b8114614f2057600080fd5b50565b614f2c81614689565b8114614f3757600080fd5b50565b614f4381614695565b8114614f4e57600080fd5b50565b614f5a816146e1565b8114614f6557600080fd5b5056fea26469706673582212205c9deb594b79296db487f8ec88a0ab73bd4ab51277947248bdc957407b043f8064736f6c63430008020033",
  "immutableReferences": {},
  "source": "// SPDX-License-Identifier: MIT\r\npragma solidity ^0.8.2;\r\n\r\nimport \"./@openzeppelin/contracts-upgradeable/token/ERC721/ERC721Upgradeable.sol\";\r\nimport \"./@openzeppelin/contracts-upgradeable/token/ERC721/extensions/ERC721EnumerableUpgradeable.sol\";\r\nimport \"./@openzeppelin/contracts-upgradeable/token/ERC721/extensions/ERC721URIStorageUpgradeable.sol\";\r\nimport \"./@openzeppelin/contracts-upgradeable/security/PausableUpgradeable.sol\";\r\nimport \"./@openzeppelin/contracts-upgradeable/access/OwnableUpgradeable.sol\";\r\nimport \"./@openzeppelin/contracts-upgradeable/token/ERC721/extensions/ERC721BurnableUpgradeable.sol\";\r\nimport \"./@openzeppelin/contracts-upgradeable/proxy/utils/Initializable.sol\";\r\nimport \"./@openzeppelin/contracts-upgradeable/utils/CountersUpgradeable.sol\";\r\n\r\ncontract CryptoIsland is\r\n    Initializable,\r\n    ERC721Upgradeable,\r\n    ERC721EnumerableUpgradeable,\r\n    ERC721URIStorageUpgradeable,\r\n    PausableUpgradeable,\r\n    OwnableUpgradeable,\r\n    ERC721BurnableUpgradeable\r\n{\r\n    using CountersUpgradeable for CountersUpgradeable.Counter;\r\n\r\n    CountersUpgradeable.Counter private _tokenIdCounter;\r\n\r\n    string public baseTokenURI;\r\n\r\n    function initialize() public initializer {\r\n        __ERC721_init(\"CryptoIsland\", \"WOO\");\r\n        __ERC721Enumerable_init();\r\n        __ERC721URIStorage_init();\r\n        __Pausable_init();\r\n        __Ownable_init();\r\n        __ERC721Burnable_init();\r\n    }\r\n\r\n    function safeMint(address to) public payable {\r\n        _safeMint(to, _tokenIdCounter.current());\r\n        _tokenIdCounter.increment();\r\n    }\r\n\r\n    function pause() public onlyOwner {\r\n        _pause();\r\n    }\r\n\r\n    function unpause() public onlyOwner {\r\n        _unpause();\r\n    }\r\n\r\n    function _baseURI() internal view virtual override returns (string memory) {\r\n        return baseTokenURI;\r\n    }\r\n\r\n    function _beforeTokenTransfer(\r\n        address from,\r\n        address to,\r\n        uint256 tokenId\r\n    )\r\n        internal\r\n        override(ERC721Upgradeable, ERC721EnumerableUpgradeable)\r\n        whenNotPaused\r\n    {\r\n        super._beforeTokenTransfer(from, to, tokenId);\r\n    }\r\n\r\n    function _burn(uint256 tokenId)\r\n        internal\r\n        override(ERC721Upgradeable, ERC721URIStorageUpgradeable)\r\n    {\r\n        super._burn(tokenId);\r\n    }\r\n\r\n    function setBaseURI(string memory _baseTokenURI) public onlyOwner {\r\n        baseTokenURI = _baseTokenURI;\r\n    }\r\n\r\n    function tokenURI(uint256 tokenId)\r\n        public\r\n        view\r\n        override(ERC721Upgradeable, ERC721URIStorageUpgradeable)\r\n        returns (string memory)\r\n    {\r\n        return super.tokenURI(tokenId);\r\n    }\r\n\r\n    function supportsInterface(bytes4 interfaceId)\r\n        public\r\n        view\r\n        override(ERC721Upgradeable, ERC721EnumerableUpgradeable)\r\n        returns (bool)\r\n    {\r\n        return super.supportsInterface(interfaceId);\r\n    }\r\n}\r\n",
  "sourcePath": "C:\\CryptoIsland\\contracts\\CryptoIsland.sol",
  "compiler": {
    "name": "solc",
    "version": "0.8.2+commit.661d1103.Emscripten.clang"
  },
  "schemaVersion": "3.4.8",
  "updatedAt": "2022-08-08T01:58:15.938Z",
  "networkType": "ethereum",
  "devdoc": {
    "kind": "dev",
    "methods": {
      "approve(address,uint256)": {
        "details": "See {IERC721-approve}."
      },
      "balanceOf(address)": {
        "details": "See {IERC721-balanceOf}."
      },
      "burn(uint256)": {
        "details": "Burns `tokenId`. See {ERC721-_burn}. Requirements: - The caller must own `tokenId` or be an approved operator."
      },
      "getApproved(uint256)": {
        "details": "See {IERC721-getApproved}."
      },
      "isApprovedForAll(address,address)": {
        "details": "See {IERC721-isApprovedForAll}."
      },
      "name()": {
        "details": "See {IERC721Metadata-name}."
      },
      "owner()": {
        "details": "Returns the address of the current owner."
      },
      "ownerOf(uint256)": {
        "details": "See {IERC721-ownerOf}."
      },
      "paused()": {
        "details": "Returns true if the contract is paused, and false otherwise."
      },
      "renounceOwnership()": {
        "details": "Leaves the contract without owner. It will not be possible to call `onlyOwner` functions anymore. Can only be called by the current owner. NOTE: Renouncing ownership will leave the contract without an owner, thereby removing any functionality that is only available to the owner."
      },
      "safeTransferFrom(address,address,uint256)": {
        "details": "See {IERC721-safeTransferFrom}."
      },
      "safeTransferFrom(address,address,uint256,bytes)": {
        "details": "See {IERC721-safeTransferFrom}."
      },
      "setApprovalForAll(address,bool)": {
        "details": "See {IERC721-setApprovalForAll}."
      },
      "symbol()": {
        "details": "See {IERC721Metadata-symbol}."
      },
      "tokenByIndex(uint256)": {
        "details": "See {IERC721Enumerable-tokenByIndex}."
      },
      "tokenOfOwnerByIndex(address,uint256)": {
        "details": "See {IERC721Enumerable-tokenOfOwnerByIndex}."
      },
      "totalSupply()": {
        "details": "See {IERC721Enumerable-totalSupply}."
      },
      "transferFrom(address,address,uint256)": {
        "details": "See {IERC721-transferFrom}."
      },
      "transferOwnership(address)": {
        "details": "Transfers ownership of the contract to a new account (`newOwner`). Can only be called by the current owner."
      }
    },
    "version": 1
  },
  "userdoc": {
    "kind": "user",
    "methods": {},
    "version": 1
  }
}