{
  "contractName": "CryptoIsland",
  "abi": [
    {
      "anonymous": false,
      "inputs": [
        {
          "indexed": true,
          "internalType": "address",
          "name": "owner",
          "type": "address"
        },
        {
          "indexed": true,
          "internalType": "address",
          "name": "approved",
          "type": "address"
        },
        {
          "indexed": true,
          "internalType": "uint256",
          "name": "tokenId",
          "type": "uint256"
        }
      ],
      "name": "Approval",
      "type": "event"
    },
    {
      "anonymous": false,
      "inputs": [
        {
          "indexed": true,
          "internalType": "address",
          "name": "owner",
          "type": "address"
        },
        {
          "indexed": true,
          "internalType": "address",
          "name": "operator",
          "type": "address"
        },
        {
          "indexed": false,
          "internalType": "bool",
          "name": "approved",
          "type": "bool"
        }
      ],
      "name": "ApprovalForAll",
      "type": "event"
    },
    {
      "anonymous": false,
      "inputs": [
        {
          "indexed": false,
          "internalType": "uint8",
          "name": "version",
          "type": "uint8"
        }
      ],
      "name": "Initialized",
      "type": "event"
    },
    {
      "anonymous": false,
      "inputs": [
        {
          "indexed": true,
          "internalType": "address",
          "name": "previousOwner",
          "type": "address"
        },
        {
          "indexed": true,
          "internalType": "address",
          "name": "newOwner",
          "type": "address"
        }
      ],
      "name": "OwnershipTransferred",
      "type": "event"
    },
    {
      "anonymous": false,
      "inputs": [
        {
          "indexed": true,
          "internalType": "address",
          "name": "from",
          "type": "address"
        },
        {
          "indexed": true,
          "internalType": "address",
          "name": "to",
          "type": "address"
        },
        {
          "indexed": true,
          "internalType": "uint256",
          "name": "tokenId",
          "type": "uint256"
        }
      ],
      "name": "Transfer",
      "type": "event"
    },
    {
      "inputs": [],
      "name": "MAX_PER_MINT",
      "outputs": [
        {
          "internalType": "uint256",
          "name": "",
          "type": "uint256"
        }
      ],
      "stateMutability": "view",
      "type": "function",
      "constant": true
    },
    {
      "inputs": [],
      "name": "MAX_SUPPLY",
      "outputs": [
        {
          "internalType": "uint256",
          "name": "",
          "type": "uint256"
        }
      ],
      "stateMutability": "view",
      "type": "function",
      "constant": true
    },
    {
      "inputs": [],
      "name": "PRICE",
      "outputs": [
        {
          "internalType": "uint256",
          "name": "",
          "type": "uint256"
        }
      ],
      "stateMutability": "view",
      "type": "function",
      "constant": true
    },
    {
      "inputs": [
        {
          "internalType": "address",
          "name": "to",
          "type": "address"
        },
        {
          "internalType": "uint256",
          "name": "tokenId",
          "type": "uint256"
        }
      ],
      "name": "approve",
      "outputs": [],
      "stateMutability": "nonpayable",
      "type": "function"
    },
    {
      "inputs": [
        {
          "internalType": "address",
          "name": "owner",
          "type": "address"
        }
      ],
      "name": "balanceOf",
      "outputs": [
        {
          "internalType": "uint256",
          "name": "",
          "type": "uint256"
        }
      ],
      "stateMutability": "view",
      "type": "function",
      "constant": true
    },
    {
      "inputs": [],
      "name": "baseTokenURI",
      "outputs": [
        {
          "internalType": "string",
          "name": "",
          "type": "string"
        }
      ],
      "stateMutability": "view",
      "type": "function",
      "constant": true
    },
    {
      "inputs": [
        {
          "internalType": "uint256",
          "name": "tokenId",
          "type": "uint256"
        }
      ],
      "name": "getApproved",
      "outputs": [
        {
          "internalType": "address",
          "name": "",
          "type": "address"
        }
      ],
      "stateMutability": "view",
      "type": "function",
      "constant": true
    },
    {
      "inputs": [
        {
          "internalType": "address",
          "name": "owner",
          "type": "address"
        },
        {
          "internalType": "address",
          "name": "operator",
          "type": "address"
        }
      ],
      "name": "isApprovedForAll",
      "outputs": [
        {
          "internalType": "bool",
          "name": "",
          "type": "bool"
        }
      ],
      "stateMutability": "view",
      "type": "function",
      "constant": true
    },
    {
      "inputs": [],
      "name": "name",
      "outputs": [
        {
          "internalType": "string",
          "name": "",
          "type": "string"
        }
      ],
      "stateMutability": "view",
      "type": "function",
      "constant": true
    },
    {
      "inputs": [],
      "name": "owner",
      "outputs": [
        {
          "internalType": "address",
          "name": "",
          "type": "address"
        }
      ],
      "stateMutability": "view",
      "type": "function",
      "constant": true
    },
    {
      "inputs": [
        {
          "internalType": "uint256",
          "name": "tokenId",
          "type": "uint256"
        }
      ],
      "name": "ownerOf",
      "outputs": [
        {
          "internalType": "address",
          "name": "",
          "type": "address"
        }
      ],
      "stateMutability": "view",
      "type": "function",
      "constant": true
    },
    {
      "inputs": [],
      "name": "renounceOwnership",
      "outputs": [],
      "stateMutability": "nonpayable",
      "type": "function"
    },
    {
      "inputs": [
        {
          "internalType": "address",
          "name": "from",
          "type": "address"
        },
        {
          "internalType": "address",
          "name": "to",
          "type": "address"
        },
        {
          "internalType": "uint256",
          "name": "tokenId",
          "type": "uint256"
        }
      ],
      "name": "safeTransferFrom",
      "outputs": [],
      "stateMutability": "nonpayable",
      "type": "function"
    },
    {
      "inputs": [
        {
          "internalType": "address",
          "name": "from",
          "type": "address"
        },
        {
          "internalType": "address",
          "name": "to",
          "type": "address"
        },
        {
          "internalType": "uint256",
          "name": "tokenId",
          "type": "uint256"
        },
        {
          "internalType": "bytes",
          "name": "data",
          "type": "bytes"
        }
      ],
      "name": "safeTransferFrom",
      "outputs": [],
      "stateMutability": "nonpayable",
      "type": "function"
    },
    {
      "inputs": [
        {
          "internalType": "address",
          "name": "operator",
          "type": "address"
        },
        {
          "internalType": "bool",
          "name": "approved",
          "type": "bool"
        }
      ],
      "name": "setApprovalForAll",
      "outputs": [],
      "stateMutability": "nonpayable",
      "type": "function"
    },
    {
      "inputs": [],
      "name": "symbol",
      "outputs": [
        {
          "internalType": "string",
          "name": "",
          "type": "string"
        }
      ],
      "stateMutability": "view",
      "type": "function",
      "constant": true
    },
    {
      "inputs": [
        {
          "internalType": "uint256",
          "name": "index",
          "type": "uint256"
        }
      ],
      "name": "tokenByIndex",
      "outputs": [
        {
          "internalType": "uint256",
          "name": "",
          "type": "uint256"
        }
      ],
      "stateMutability": "view",
      "type": "function",
      "constant": true
    },
    {
      "inputs": [
        {
          "internalType": "address",
          "name": "owner",
          "type": "address"
        },
        {
          "internalType": "uint256",
          "name": "index",
          "type": "uint256"
        }
      ],
      "name": "tokenOfOwnerByIndex",
      "outputs": [
        {
          "internalType": "uint256",
          "name": "",
          "type": "uint256"
        }
      ],
      "stateMutability": "view",
      "type": "function",
      "constant": true
    },
    {
      "inputs": [
        {
          "internalType": "uint256",
          "name": "tokenId",
          "type": "uint256"
        }
      ],
      "name": "tokenURI",
      "outputs": [
        {
          "internalType": "string",
          "name": "",
          "type": "string"
        }
      ],
      "stateMutability": "view",
      "type": "function",
      "constant": true
    },
    {
      "inputs": [],
      "name": "totalSupply",
      "outputs": [
        {
          "internalType": "uint256",
          "name": "",
          "type": "uint256"
        }
      ],
      "stateMutability": "view",
      "type": "function",
      "constant": true
    },
    {
      "inputs": [
        {
          "internalType": "address",
          "name": "from",
          "type": "address"
        },
        {
          "internalType": "address",
          "name": "to",
          "type": "address"
        },
        {
          "internalType": "uint256",
          "name": "tokenId",
          "type": "uint256"
        }
      ],
      "name": "transferFrom",
      "outputs": [],
      "stateMutability": "nonpayable",
      "type": "function"
    },
    {
      "inputs": [
        {
          "internalType": "address",
          "name": "newOwner",
          "type": "address"
        }
      ],
      "name": "transferOwnership",
      "outputs": [],
      "stateMutability": "nonpayable",
      "type": "function"
    },
    {
      "inputs": [],
      "name": "initialize",
      "outputs": [],
      "stateMutability": "nonpayable",
      "type": "function"
    },
    {
      "inputs": [],
      "name": "reserveNFTs",
      "outputs": [],
      "stateMutability": "nonpayable",
      "type": "function"
    },
    {
      "inputs": [
        {
          "internalType": "string",
          "name": "_baseTokenURI",
          "type": "string"
        }
      ],
      "name": "setBaseURI",
      "outputs": [],
      "stateMutability": "nonpayable",
      "type": "function"
    },
    {
      "inputs": [
        {
          "internalType": "bytes4",
          "name": "interfaceId",
          "type": "bytes4"
        }
      ],
      "name": "supportsInterface",
      "outputs": [
        {
          "internalType": "bool",
          "name": "",
          "type": "bool"
        }
      ],
      "stateMutability": "view",
      "type": "function",
      "constant": true
    },
    {
      "inputs": [
        {
          "internalType": "uint256",
          "name": "_count",
          "type": "uint256"
        }
      ],
      "name": "mintNFTs",
      "outputs": [],
      "stateMutability": "payable",
      "type": "function",
      "payable": true
    },
    {
      "inputs": [
        {
          "internalType": "address",
          "name": "_owner",
          "type": "address"
        }
      ],
      "name": "tokensOfOwner",
      "outputs": [
        {
          "internalType": "uint256[]",
          "name": "",
          "type": "uint256[]"
        }
      ],
      "stateMutability": "view",
      "type": "function",
      "constant": true
    },
    {
      "inputs": [],
      "name": "withdraw",
      "outputs": [],
      "stateMutability": "payable",
      "type": "function",
      "payable": true
    }
  ],
  "bytecode": "0x608060405234801561001057600080fd5b506142e8806100206000396000f3fe6080604052600436106101c25760003560e01c806355f804b3116100f75780638da5cb5b11610095578063c87b56dd11610064578063c87b56dd14610600578063d547cfb71461063d578063e985e9c514610668578063f2fde38b146106a5576101c2565b80638da5cb5b1461055857806395d89b4114610583578063a22cb465146105ae578063b88d4fde146105d7576101c2565b8063715018a6116100d1578063715018a6146104c25780638129fc1c146104d95780638462151c146104f05780638d859f3e1461052d576101c2565b806355f804b31461041f5780636352211e1461044857806370a0823114610485576101c2565b806323b872dd116101645780633b4b13811161013e5780633b4b1381146103935780633ccfd60b146103af57806342842e0e146103b95780634f6ccce7146103e2576101c2565b806323b872dd146103025780632f745c591461032b57806332cb6b0c14610368576101c2565b8063095ea7b3116101a0578063095ea7b31461026c57806309d42b3014610295578063144100c7146102c057806318160ddd146102d7576101c2565b806301ffc9a7146101c757806306fdde0314610204578063081812fc1461022f575b600080fd5b3480156101d357600080fd5b506101ee60048036038101906101e99190612e71565b6106ce565b6040516101fb919061349b565b60405180910390f35b34801561021057600080fd5b506102196106e0565b60405161022691906134d1565b60405180910390f35b34801561023b57600080fd5b5061025660048036038101906102519190612f04565b610772565b6040516102639190613412565b60405180910390f35b34801561027857600080fd5b50610293600480360381019061028e9190612e35565b6107b8565b005b3480156102a157600080fd5b506102aa6108d0565b6040516102b791906137d3565b60405180910390f35b3480156102cc57600080fd5b506102d56108d5565b005b3480156102e357600080fd5b506102ec61096d565b6040516102f991906137d3565b60405180910390f35b34801561030e57600080fd5b5061032960048036038101906103249190612d2f565b61097a565b005b34801561033757600080fd5b50610352600480360381019061034d9190612e35565b6109da565b60405161035f91906137d3565b60405180910390f35b34801561037457600080fd5b5061037d610a7f565b60405161038a91906137d3565b60405180910390f35b6103ad60048036038101906103a89190612f04565b610a85565b005b6103b7610bc1565b005b3480156103c557600080fd5b506103e060048036038101906103db9190612d2f565b610cc1565b005b3480156103ee57600080fd5b5061040960048036038101906104049190612f04565b610ce1565b60405161041691906137d3565b60405180910390f35b34801561042b57600080fd5b5061044660048036038101906104419190612ec3565b610d78565b005b34801561045457600080fd5b5061046f600480360381019061046a9190612f04565b610d9a565b60405161047c9190613412565b60405180910390f35b34801561049157600080fd5b506104ac60048036038101906104a79190612cca565b610e4c565b6040516104b991906137d3565b60405180910390f35b3480156104ce57600080fd5b506104d7610f04565b005b3480156104e557600080fd5b506104ee610f18565b005b3480156104fc57600080fd5b5061051760048036038101906105129190612cca565b6110ca565b6040516105249190613479565b60405180910390f35b34801561053957600080fd5b506105426111c4565b60405161054f91906137d3565b60405180910390f35b34801561056457600080fd5b5061056d6111cf565b60405161057a9190613412565b60405180910390f35b34801561058f57600080fd5b506105986111f9565b6040516105a591906134d1565b60405180910390f35b3480156105ba57600080fd5b506105d560048036038101906105d09190612df9565b61128b565b005b3480156105e357600080fd5b506105fe60048036038101906105f99190612d7e565b6112a1565b005b34801561060c57600080fd5b5061062760048036038101906106229190612f04565b611303565b60405161063491906134d1565b60405180910390f35b34801561064957600080fd5b5061065261136b565b60405161065f91906134d1565b60405180910390f35b34801561067457600080fd5b5061068f600480360381019061068a9190612cf3565b6113f9565b60405161069c919061349b565b60405180910390f35b3480156106b157600080fd5b506106cc60048036038101906106c79190612cca565b61148d565b005b60006106d982611511565b9050919050565b6060606580546106ef90613ae6565b80601f016020809104026020016040519081016040528092919081815260200182805461071b90613ae6565b80156107685780601f1061073d57610100808354040283529160200191610768565b820191906000526020600020905b81548152906001019060200180831161074b57829003601f168201915b5050505050905090565b600061077d8261158b565b6069600083815260200190815260200160002060009054906101000a900473ffffffffffffffffffffffffffffffffffffffff169050919050565b60006107c382610d9a565b90508073ffffffffffffffffffffffffffffffffffffffff168373ffffffffffffffffffffffffffffffffffffffff161415610834576040517f08c379a000000000000000000000000000000000000000000000000000000000815260040161082b90613733565b60405180910390fd5b8073ffffffffffffffffffffffffffffffffffffffff166108536115d6565b73ffffffffffffffffffffffffffffffffffffffff16148061088257506108818161087c6115d6565b6113f9565b5b6108c1576040517f08c379a00000000000000000000000000000000000000000000000000000000081526004016108b890613693565b60405180910390fd5b6108cb83836115de565b505050565b600181565b6108dd611697565b60006108e960fb611715565b90506103e8610902600a8361172390919063ffffffff16565b10610942576040517f08c379a0000000000000000000000000000000000000000000000000000000008152600401610939906134f3565b60405180910390fd5b60005b600a81101561096957610956611739565b808061096190613b49565b915050610945565b5050565b6000609980549050905090565b61098b6109856115d6565b8261175e565b6109ca576040517f08c379a00000000000000000000000000000000000000000000000000000000081526004016109c1906137b3565b60405180910390fd5b6109d58383836117f3565b505050565b60006109e583610e4c565b8210610a26576040517f08c379a0000000000000000000000000000000000000000000000000000000008152600401610a1d90613513565b60405180910390fd5b609760008473ffffffffffffffffffffffffffffffffffffffff1673ffffffffffffffffffffffffffffffffffffffff168152602001908152602001600020600083815260200190815260200160002054905092915050565b6103e881565b6000610a9160fb611715565b90506103e8610aa9838361172390919063ffffffff16565b1115610aea576040517f08c379a0000000000000000000000000000000000000000000000000000000008152600401610ae190613613565b60405180910390fd5b600082118015610afb575060018211155b610b3a576040517f08c379a0000000000000000000000000000000000000000000000000000000008152600401610b3190613633565b60405180910390fd5b610b5482662386f26fc10000611a5a90919063ffffffff16565b341015610b96576040517f08c379a0000000000000000000000000000000000000000000000000000000008152600401610b8d906135f3565b60405180910390fd5b60005b82811015610bbc57610ba9611739565b8080610bb490613b49565b915050610b99565b505050565b610bc9611697565b600047905060008111610c11576040517f08c379a0000000000000000000000000000000000000000000000000000000008152600401610c08906136d3565b60405180910390fd5b60003373ffffffffffffffffffffffffffffffffffffffff1682604051610c37906133fd565b60006040518083038185875af1925050503d8060008114610c74576040519150601f19603f3d011682016040523d82523d6000602084013e610c79565b606091505b5050905080610cbd576040517f08c379a0000000000000000000000000000000000000000000000000000000008152600401610cb490613753565b60405180910390fd5b5050565b610cdc838383604051806020016040528060008152506112a1565b505050565b6000610ceb61096d565b8210610d2c576040517f08c379a0000000000000000000000000000000000000000000000000000000008152600401610d2390613773565b60405180910390fd5b60998281548110610d66577f4e487b7100000000000000000000000000000000000000000000000000000000600052603260045260246000fd5b90600052602060002001549050919050565b610d80611697565b8060fc9080519060200190610d96929190612aee565b5050565b6000806067600084815260200190815260200160002060009054906101000a900473ffffffffffffffffffffffffffffffffffffffff169050600073ffffffffffffffffffffffffffffffffffffffff168173ffffffffffffffffffffffffffffffffffffffff161415610e43576040517f08c379a0000000000000000000000000000000000000000000000000000000008152600401610e3a90613713565b60405180910390fd5b80915050919050565b60008073ffffffffffffffffffffffffffffffffffffffff168273ffffffffffffffffffffffffffffffffffffffff161415610ebd576040517f08c379a0000000000000000000000000000000000000000000000000000000008152600401610eb490613653565b60405180910390fd5b606860008373ffffffffffffffffffffffffffffffffffffffff1673ffffffffffffffffffffffffffffffffffffffff168152602001908152602001600020549050919050565b610f0c611697565b610f166000611a70565b565b60008060019054906101000a900460ff16159050808015610f495750600160008054906101000a900460ff1660ff16105b80610f765750610f5830611b36565b158015610f755750600160008054906101000a900460ff1660ff16145b5b610fb5576040517f08c379a0000000000000000000000000000000000000000000000000000000008152600401610fac90613673565b60405180910390fd5b60016000806101000a81548160ff021916908360ff1602179055508015610ff2576001600060016101000a81548160ff0219169083151502179055505b6110666040518060400160405280600c81526020017f43727970746f49736c616e6400000000000000000000000000000000000000008152506040518060400160405280600481526020017f6a656a7500000000000000000000000000000000000000000000000000000000815250611b59565b61106e611bb6565b80156110c75760008060016101000a81548160ff0219169083151502179055507f7f26b83ff96e1f2b6a682f133852f6798a09c465da95921460cefb384740249860016040516110be91906134b6565b60405180910390a15b50565b606060006110d783610e4c565b905060008167ffffffffffffffff81111561111b577f4e487b7100000000000000000000000000000000000000000000000000000000600052604160045260246000fd5b6040519080825280602002602001820160405280156111495781602001602082028036833780820191505090505b50905060005b828110156111b95761116185826109da565b82828151811061119a577f4e487b7100000000000000000000000000000000000000000000000000000000600052603260045260246000fd5b60200260200101818152505080806111b190613b49565b91505061114f565b508092505050919050565b662386f26fc1000081565b600060c960009054906101000a900473ffffffffffffffffffffffffffffffffffffffff16905090565b60606066805461120890613ae6565b80601f016020809104026020016040519081016040528092919081815260200182805461123490613ae6565b80156112815780601f1061125657610100808354040283529160200191611281565b820191906000526020600020905b81548152906001019060200180831161126457829003601f168201915b5050505050905090565b61129d6112966115d6565b8383611c07565b5050565b6112b26112ac6115d6565b8361175e565b6112f1576040517f08c379a00000000000000000000000000000000000000000000000000000000081526004016112e8906137b3565b60405180910390fd5b6112fd84848484611d74565b50505050565b606061130e8261158b565b6000611318611dd0565b905060008151116113385760405180602001604052806000815250611363565b8061134284611e62565b6040516020016113539291906133d9565b6040516020818303038152906040525b915050919050565b60fc805461137890613ae6565b80601f01602080910402602001604051908101604052809291908181526020018280546113a490613ae6565b80156113f15780601f106113c6576101008083540402835291602001916113f1565b820191906000526020600020905b8154815290600101906020018083116113d457829003601f168201915b505050505081565b6000606a60008473ffffffffffffffffffffffffffffffffffffffff1673ffffffffffffffffffffffffffffffffffffffff16815260200190815260200160002060008373ffffffffffffffffffffffffffffffffffffffff1673ffffffffffffffffffffffffffffffffffffffff16815260200190815260200160002060009054906101000a900460ff16905092915050565b611495611697565b600073ffffffffffffffffffffffffffffffffffffffff168173ffffffffffffffffffffffffffffffffffffffff161415611505576040517f08c379a00000000000000000000000000000000000000000000000000000000081526004016114fc90613553565b60405180910390fd5b61150e81611a70565b50565b60007f780e9d63000000000000000000000000000000000000000000000000000000007bffffffffffffffffffffffffffffffffffffffffffffffffffffffff1916827bffffffffffffffffffffffffffffffffffffffffffffffffffffffff1916148061158457506115838261200f565b5b9050919050565b611594816120f1565b6115d3576040517f08c379a00000000000000000000000000000000000000000000000000000000081526004016115ca90613713565b60405180910390fd5b50565b600033905090565b816069600083815260200190815260200160002060006101000a81548173ffffffffffffffffffffffffffffffffffffffff021916908373ffffffffffffffffffffffffffffffffffffffff160217905550808273ffffffffffffffffffffffffffffffffffffffff1661165183610d9a565b73ffffffffffffffffffffffffffffffffffffffff167f8c5be1e5ebec7d5bd14f71427d1e84f3dd0314c0f7b2291e5b200ac8c7c3b92560405160405180910390a45050565b61169f6115d6565b73ffffffffffffffffffffffffffffffffffffffff166116bd6111cf565b73ffffffffffffffffffffffffffffffffffffffff1614611713576040517f08c379a000000000000000000000000000000000000000000000000000000000815260040161170a906136f3565b60405180910390fd5b565b600081600001549050919050565b6000818361173191906138fc565b905092915050565b600061174560fb611715565b9050611751338261215d565b61175b60fb61217b565b50565b60008061176a83610d9a565b90508073ffffffffffffffffffffffffffffffffffffffff168473ffffffffffffffffffffffffffffffffffffffff1614806117ac57506117ab81856113f9565b5b806117ea57508373ffffffffffffffffffffffffffffffffffffffff166117d284610772565b73ffffffffffffffffffffffffffffffffffffffff16145b91505092915050565b8273ffffffffffffffffffffffffffffffffffffffff1661181382610d9a565b73ffffffffffffffffffffffffffffffffffffffff1614611869576040517f08c379a000000000000000000000000000000000000000000000000000000000815260040161186090613573565b60405180910390fd5b600073ffffffffffffffffffffffffffffffffffffffff168273ffffffffffffffffffffffffffffffffffffffff1614156118d9576040517f08c379a00000000000000000000000000000000000000000000000000000000081526004016118d0906135b3565b60405180910390fd5b6118e4838383612191565b6118ef6000826115de565b6001606860008573ffffffffffffffffffffffffffffffffffffffff1673ffffffffffffffffffffffffffffffffffffffff168152602001908152602001600020600082825461193f91906139dd565b925050819055506001606860008473ffffffffffffffffffffffffffffffffffffffff1673ffffffffffffffffffffffffffffffffffffffff168152602001908152602001600020600082825461199691906138fc565b92505081905550816067600083815260200190815260200160002060006101000a81548173ffffffffffffffffffffffffffffffffffffffff021916908373ffffffffffffffffffffffffffffffffffffffff160217905550808273ffffffffffffffffffffffffffffffffffffffff168473ffffffffffffffffffffffffffffffffffffffff167fddf252ad1be2c89b69c2b068fc378daa952ba7f163c4a11628f55a4df523b3ef60405160405180910390a4611a558383836121a1565b505050565b60008183611a689190613983565b905092915050565b600060c960009054906101000a900473ffffffffffffffffffffffffffffffffffffffff1690508160c960006101000a81548173ffffffffffffffffffffffffffffffffffffffff021916908373ffffffffffffffffffffffffffffffffffffffff1602179055508173ffffffffffffffffffffffffffffffffffffffff168173ffffffffffffffffffffffffffffffffffffffff167f8be0079c531659141344cd1fd0a4f28419497f9722a3daafe3b4186f6b6457e060405160405180910390a35050565b6000808273ffffffffffffffffffffffffffffffffffffffff163b119050919050565b600060019054906101000a900460ff16611ba8576040517f08c379a0000000000000000000000000000000000000000000000000000000008152600401611b9f90613793565b60405180910390fd5b611bb282826121a6565b5050565b600060019054906101000a900460ff16611c05576040517f08c379a0000000000000000000000000000000000000000000000000000000008152600401611bfc90613793565b60405180910390fd5b565b8173ffffffffffffffffffffffffffffffffffffffff168373ffffffffffffffffffffffffffffffffffffffff161415611c76576040517f08c379a0000000000000000000000000000000000000000000000000000000008152600401611c6d906135d3565b60405180910390fd5b80606a60008573ffffffffffffffffffffffffffffffffffffffff1673ffffffffffffffffffffffffffffffffffffffff16815260200190815260200160002060008473ffffffffffffffffffffffffffffffffffffffff1673ffffffffffffffffffffffffffffffffffffffff16815260200190815260200160002060006101000a81548160ff0219169083151502179055508173ffffffffffffffffffffffffffffffffffffffff168373ffffffffffffffffffffffffffffffffffffffff167f17307eab39ab6107e8899845ad3d59bd9653f200f220920489ca2b5937696c3183604051611d67919061349b565b60405180910390a3505050565b611d7f8484846117f3565b611d8b84848484612227565b611dca576040517f08c379a0000000000000000000000000000000000000000000000000000000008152600401611dc190613533565b60405180910390fd5b50505050565b606060fc8054611ddf90613ae6565b80601f0160208091040260200160405190810160405280929190818152602001828054611e0b90613ae6565b8015611e585780601f10611e2d57610100808354040283529160200191611e58565b820191906000526020600020905b815481529060010190602001808311611e3b57829003601f168201915b5050505050905090565b60606000821415611eaa576040518060400160405280600181526020017f3000000000000000000000000000000000000000000000000000000000000000815250905061200a565b600082905060005b60008214611edc578080611ec590613b49565b915050600a82611ed59190613952565b9150611eb2565b60008167ffffffffffffffff811115611f1e577f4e487b7100000000000000000000000000000000000000000000000000000000600052604160045260246000fd5b6040519080825280601f01601f191660200182016040528015611f505781602001600182028036833780820191505090505b5090505b6000851461200357600182611f6991906139dd565b9150600a85611f789190613b92565b6030611f8491906138fc565b60f81b818381518110611fc0577f4e487b7100000000000000000000000000000000000000000000000000000000600052603260045260246000fd5b60200101907effffffffffffffffffffffffffffffffffffffffffffffffffffffffffffff1916908160001a905350600a85611ffc9190613952565b9450611f54565b8093505050505b919050565b60007f80ac58cd000000000000000000000000000000000000000000000000000000007bffffffffffffffffffffffffffffffffffffffffffffffffffffffff1916827bffffffffffffffffffffffffffffffffffffffffffffffffffffffff191614806120da57507f5b5e139f000000000000000000000000000000000000000000000000000000007bffffffffffffffffffffffffffffffffffffffffffffffffffffffff1916827bffffffffffffffffffffffffffffffffffffffffffffffffffffffff1916145b806120ea57506120e9826123be565b5b9050919050565b60008073ffffffffffffffffffffffffffffffffffffffff166067600084815260200190815260200160002060009054906101000a900473ffffffffffffffffffffffffffffffffffffffff1673ffffffffffffffffffffffffffffffffffffffff1614159050919050565b612177828260405180602001604052806000815250612428565b5050565b6001816000016000828254019250508190555050565b61219c838383612483565b505050565b505050565b600060019054906101000a900460ff166121f5576040517f08c379a00000000000000000000000000000000000000000000000000000000081526004016121ec90613793565b60405180910390fd5b816065908051906020019061220b929190612aee565b508060669080519060200190612222929190612aee565b505050565b60006122488473ffffffffffffffffffffffffffffffffffffffff16611b36565b156123b1578373ffffffffffffffffffffffffffffffffffffffff1663150b7a026122716115d6565b8786866040518563ffffffff1660e01b8152600401612293949392919061342d565b602060405180830381600087803b1580156122ad57600080fd5b505af19250505080156122de57506040513d601f19601f820116820180604052508101906122db9190612e9a565b60015b612361573d806000811461230e576040519150601f19603f3d011682016040523d82523d6000602084013e612313565b606091505b50600081511415612359576040517f08c379a000000000000000000000000000000000000000000000000000000000815260040161235090613533565b60405180910390fd5b805181602001fd5b63150b7a0260e01b7bffffffffffffffffffffffffffffffffffffffffffffffffffffffff1916817bffffffffffffffffffffffffffffffffffffffffffffffffffffffff1916149150506123b6565b600190505b949350505050565b60007f01ffc9a7000000000000000000000000000000000000000000000000000000007bffffffffffffffffffffffffffffffffffffffffffffffffffffffff1916827bffffffffffffffffffffffffffffffffffffffffffffffffffffffff1916149050919050565b6124328383612597565b61243f6000848484612227565b61247e576040517f08c379a000000000000000000000000000000000000000000000000000000000815260040161247590613533565b60405180910390fd5b505050565b61248e838383612771565b600073ffffffffffffffffffffffffffffffffffffffff168373ffffffffffffffffffffffffffffffffffffffff1614156124d1576124cc81612776565b612510565b8173ffffffffffffffffffffffffffffffffffffffff168373ffffffffffffffffffffffffffffffffffffffff161461250f5761250e83826127bf565b5b5b600073ffffffffffffffffffffffffffffffffffffffff168273ffffffffffffffffffffffffffffffffffffffff1614156125535761254e8161292c565b612592565b8273ffffffffffffffffffffffffffffffffffffffff168273ffffffffffffffffffffffffffffffffffffffff1614612591576125908282612a6f565b5b5b505050565b600073ffffffffffffffffffffffffffffffffffffffff168273ffffffffffffffffffffffffffffffffffffffff161415612607576040517f08c379a00000000000000000000000000000000000000000000000000000000081526004016125fe906136b3565b60405180910390fd5b612610816120f1565b15612650576040517f08c379a000000000000000000000000000000000000000000000000000000000815260040161264790613593565b60405180910390fd5b61265c60008383612191565b6001606860008473ffffffffffffffffffffffffffffffffffffffff1673ffffffffffffffffffffffffffffffffffffffff16815260200190815260200160002060008282546126ac91906138fc565b92505081905550816067600083815260200190815260200160002060006101000a81548173ffffffffffffffffffffffffffffffffffffffff021916908373ffffffffffffffffffffffffffffffffffffffff160217905550808273ffffffffffffffffffffffffffffffffffffffff16600073ffffffffffffffffffffffffffffffffffffffff167fddf252ad1be2c89b69c2b068fc378daa952ba7f163c4a11628f55a4df523b3ef60405160405180910390a461276d600083836121a1565b5050565b505050565b609980549050609a600083815260200190815260200160002081905550609981908060018154018082558091505060019003906000526020600020016000909190919091505550565b600060016127cc84610e4c565b6127d691906139dd565b90506000609860008481526020019081526020016000205490508181146128bb576000609760008673ffffffffffffffffffffffffffffffffffffffff1673ffffffffffffffffffffffffffffffffffffffff168152602001908152602001600020600084815260200190815260200160002054905080609760008773ffffffffffffffffffffffffffffffffffffffff1673ffffffffffffffffffffffffffffffffffffffff168152602001908152602001600020600084815260200190815260200160002081905550816098600083815260200190815260200160002081905550505b6098600084815260200190815260200160002060009055609760008573ffffffffffffffffffffffffffffffffffffffff1673ffffffffffffffffffffffffffffffffffffffff16815260200190815260200160002060008381526020019081526020016000206000905550505050565b6000600160998054905061294091906139dd565b90506000609a6000848152602001908152602001600020549050600060998381548110612996577f4e487b7100000000000000000000000000000000000000000000000000000000600052603260045260246000fd5b9060005260206000200154905080609983815481106129de577f4e487b7100000000000000000000000000000000000000000000000000000000600052603260045260246000fd5b906000526020600020018190555081609a600083815260200190815260200160002081905550609a6000858152602001908152602001600020600090556099805480612a53577f4e487b7100000000000000000000000000000000000000000000000000000000600052603160045260246000fd5b6001900381819060005260206000200160009055905550505050565b6000612a7a83610e4c565b905081609760008573ffffffffffffffffffffffffffffffffffffffff1673ffffffffffffffffffffffffffffffffffffffff168152602001908152602001600020600083815260200190815260200160002081905550806098600084815260200190815260200160002081905550505050565b828054612afa90613ae6565b90600052602060002090601f016020900481019282612b1c5760008555612b63565b82601f10612b3557805160ff1916838001178555612b63565b82800160010185558215612b63579182015b82811115612b62578251825591602001919060010190612b47565b5b509050612b709190612b74565b5090565b5b80821115612b8d576000816000905550600101612b75565b5090565b6000612ba4612b9f84613813565b6137ee565b905082815260208101848484011115612bbc57600080fd5b612bc7848285613aa4565b509392505050565b6000612be2612bdd84613844565b6137ee565b905082815260208101848484011115612bfa57600080fd5b612c05848285613aa4565b509392505050565b600081359050612c1c81614256565b92915050565b600081359050612c318161426d565b92915050565b600081359050612c4681614284565b92915050565b600081519050612c5b81614284565b92915050565b600082601f830112612c7257600080fd5b8135612c82848260208601612b91565b91505092915050565b600082601f830112612c9c57600080fd5b8135612cac848260208601612bcf565b91505092915050565b600081359050612cc48161429b565b92915050565b600060208284031215612cdc57600080fd5b6000612cea84828501612c0d565b91505092915050565b60008060408385031215612d0657600080fd5b6000612d1485828601612c0d565b9250506020612d2585828601612c0d565b9150509250929050565b600080600060608486031215612d4457600080fd5b6000612d5286828701612c0d565b9350506020612d6386828701612c0d565b9250506040612d7486828701612cb5565b9150509250925092565b60008060008060808587031215612d9457600080fd5b6000612da287828801612c0d565b9450506020612db387828801612c0d565b9350506040612dc487828801612cb5565b925050606085013567ffffffffffffffff811115612de157600080fd5b612ded87828801612c61565b91505092959194509250565b60008060408385031215612e0c57600080fd5b6000612e1a85828601612c0d565b9250506020612e2b85828601612c22565b9150509250929050565b60008060408385031215612e4857600080fd5b6000612e5685828601612c0d565b9250506020612e6785828601612cb5565b9150509250929050565b600060208284031215612e8357600080fd5b6000612e9184828501612c37565b91505092915050565b600060208284031215612eac57600080fd5b6000612eba84828501612c4c565b91505092915050565b600060208284031215612ed557600080fd5b600082013567ffffffffffffffff811115612eef57600080fd5b612efb84828501612c8b565b91505092915050565b600060208284031215612f1657600080fd5b6000612f2484828501612cb5565b91505092915050565b6000612f3983836133bb565b60208301905092915050565b612f4e81613a11565b82525050565b6000612f5f82613885565b612f6981856138b3565b9350612f7483613875565b8060005b83811015612fa5578151612f8c8882612f2d565b9750612f97836138a6565b925050600181019050612f78565b5085935050505092915050565b612fbb81613a23565b82525050565b6000612fcc82613890565b612fd681856138c4565b9350612fe6818560208601613ab3565b612fef81613c7f565b840191505092915050565b61300381613a92565b82525050565b60006130148261389b565b61301e81856138e0565b935061302e818560208601613ab3565b61303781613c7f565b840191505092915050565b600061304d8261389b565b61305781856138f1565b9350613067818560208601613ab3565b80840191505092915050565b6000613080601f836138e0565b915061308b82613c90565b602082019050919050565b60006130a3602b836138e0565b91506130ae82613cb9565b604082019050919050565b60006130c66032836138e0565b91506130d182613d08565b604082019050919050565b60006130e96026836138e0565b91506130f482613d57565b604082019050919050565b600061310c6025836138e0565b915061311782613da6565b604082019050919050565b600061312f601c836138e0565b915061313a82613df5565b602082019050919050565b60006131526024836138e0565b915061315d82613e1e565b604082019050919050565b60006131756019836138e0565b915061318082613e6d565b602082019050919050565b60006131986022836138e0565b91506131a382613e96565b604082019050919050565b60006131bb6015836138e0565b91506131c682613ee5565b602082019050919050565b60006131de6025836138e0565b91506131e982613f0e565b604082019050919050565b60006132016029836138e0565b915061320c82613f5d565b604082019050919050565b6000613224602e836138e0565b915061322f82613fac565b604082019050919050565b6000613247603e836138e0565b915061325282613ffb565b604082019050919050565b600061326a6020836138e0565b91506132758261404a565b602082019050919050565b600061328d6019836138e0565b915061329882614073565b602082019050919050565b60006132b06020836138e0565b91506132bb8261409c565b602082019050919050565b60006132d36018836138e0565b91506132de826140c5565b602082019050919050565b60006132f66021836138e0565b9150613301826140ee565b604082019050919050565b60006133196000836138d5565b91506133248261413d565b600082019050919050565b600061333c6010836138e0565b915061334782614140565b602082019050919050565b600061335f602c836138e0565b915061336a82614169565b604082019050919050565b6000613382602b836138e0565b915061338d826141b8565b604082019050919050565b60006133a5602e836138e0565b91506133b082614207565b604082019050919050565b6133c481613a7b565b82525050565b6133d381613a7b565b82525050565b60006133e58285613042565b91506133f18284613042565b91508190509392505050565b60006134088261330c565b9150819050919050565b60006020820190506134276000830184612f45565b92915050565b60006080820190506134426000830187612f45565b61344f6020830186612f45565b61345c60408301856133ca565b818103606083015261346e8184612fc1565b905095945050505050565b600060208201905081810360008301526134938184612f54565b905092915050565b60006020820190506134b06000830184612fb2565b92915050565b60006020820190506134cb6000830184612ffa565b92915050565b600060208201905081810360008301526134eb8184613009565b905092915050565b6000602082019050818103600083015261350c81613073565b9050919050565b6000602082019050818103600083015261352c81613096565b9050919050565b6000602082019050818103600083015261354c816130b9565b9050919050565b6000602082019050818103600083015261356c816130dc565b9050919050565b6000602082019050818103600083015261358c816130ff565b9050919050565b600060208201905081810360008301526135ac81613122565b9050919050565b600060208201905081810360008301526135cc81613145565b9050919050565b600060208201905081810360008301526135ec81613168565b9050919050565b6000602082019050818103600083015261360c8161318b565b9050919050565b6000602082019050818103600083015261362c816131ae565b9050919050565b6000602082019050818103600083015261364c816131d1565b9050919050565b6000602082019050818103600083015261366c816131f4565b9050919050565b6000602082019050818103600083015261368c81613217565b9050919050565b600060208201905081810360008301526136ac8161323a565b9050919050565b600060208201905081810360008301526136cc8161325d565b9050919050565b600060208201905081810360008301526136ec81613280565b9050919050565b6000602082019050818103600083015261370c816132a3565b9050919050565b6000602082019050818103600083015261372c816132c6565b9050919050565b6000602082019050818103600083015261374c816132e9565b9050919050565b6000602082019050818103600083015261376c8161332f565b9050919050565b6000602082019050818103600083015261378c81613352565b9050919050565b600060208201905081810360008301526137ac81613375565b9050919050565b600060208201905081810360008301526137cc81613398565b9050919050565b60006020820190506137e860008301846133ca565b92915050565b60006137f8613809565b90506138048282613b18565b919050565b6000604051905090565b600067ffffffffffffffff82111561382e5761382d613c50565b5b61383782613c7f565b9050602081019050919050565b600067ffffffffffffffff82111561385f5761385e613c50565b5b61386882613c7f565b9050602081019050919050565b6000819050602082019050919050565b600081519050919050565b600081519050919050565b600081519050919050565b6000602082019050919050565b600082825260208201905092915050565b600082825260208201905092915050565b600081905092915050565b600082825260208201905092915050565b600081905092915050565b600061390782613a7b565b915061391283613a7b565b9250827fffffffffffffffffffffffffffffffffffffffffffffffffffffffffffffffff0382111561394757613946613bc3565b5b828201905092915050565b600061395d82613a7b565b915061396883613a7b565b92508261397857613977613bf2565b5b828204905092915050565b600061398e82613a7b565b915061399983613a7b565b9250817fffffffffffffffffffffffffffffffffffffffffffffffffffffffffffffffff04831182151516156139d2576139d1613bc3565b5b828202905092915050565b60006139e882613a7b565b91506139f383613a7b565b925082821015613a0657613a05613bc3565b5b828203905092915050565b6000613a1c82613a5b565b9050919050565b60008115159050919050565b60007fffffffff0000000000000000000000000000000000000000000000000000000082169050919050565b600073ffffffffffffffffffffffffffffffffffffffff82169050919050565b6000819050919050565b600060ff82169050919050565b6000613a9d82613a85565b9050919050565b82818337600083830152505050565b60005b83811015613ad1578082015181840152602081019050613ab6565b83811115613ae0576000848401525b50505050565b60006002820490506001821680613afe57607f821691505b60208210811415613b1257613b11613c21565b5b50919050565b613b2182613c7f565b810181811067ffffffffffffffff82111715613b4057613b3f613c50565b5b80604052505050565b6000613b5482613a7b565b91507fffffffffffffffffffffffffffffffffffffffffffffffffffffffffffffffff821415613b8757613b86613bc3565b5b600182019050919050565b6000613b9d82613a7b565b9150613ba883613a7b565b925082613bb857613bb7613bf2565b5b828206905092915050565b7f4e487b7100000000000000000000000000000000000000000000000000000000600052601160045260246000fd5b7f4e487b7100000000000000000000000000000000000000000000000000000000600052601260045260246000fd5b7f4e487b7100000000000000000000000000000000000000000000000000000000600052602260045260246000fd5b7f4e487b7100000000000000000000000000000000000000000000000000000000600052604160045260246000fd5b6000601f19601f8301169050919050565b7f4e6f7420656e6f756768204e465473206c65667420746f207265736572766500600082015250565b7f455243373231456e756d657261626c653a206f776e657220696e646578206f7560008201527f74206f6620626f756e6473000000000000000000000000000000000000000000602082015250565b7f4552433732313a207472616e7366657220746f206e6f6e20455243373231526560008201527f63656976657220696d706c656d656e7465720000000000000000000000000000602082015250565b7f4f776e61626c653a206e6577206f776e657220697320746865207a65726f206160008201527f6464726573730000000000000000000000000000000000000000000000000000602082015250565b7f4552433732313a207472616e736665722066726f6d20696e636f72726563742060008201527f6f776e6572000000000000000000000000000000000000000000000000000000602082015250565b7f4552433732313a20746f6b656e20616c7265616479206d696e74656400000000600082015250565b7f4552433732313a207472616e7366657220746f20746865207a65726f2061646460008201527f7265737300000000000000000000000000000000000000000000000000000000602082015250565b7f4552433732313a20617070726f766520746f2063616c6c657200000000000000600082015250565b7f4e6f7420656e6f75676820657468657220746f207075726368617365204e465460008201527f732e000000000000000000000000000000000000000000000000000000000000602082015250565b7f4e6f7420656e6f756768204e465473206c656674210000000000000000000000600082015250565b7f43616e6e6f74206d696e7420737065636966696564206e756d626572206f662060008201527f4e4654732e000000000000000000000000000000000000000000000000000000602082015250565b7f4552433732313a2061646472657373207a65726f206973206e6f74206120766160008201527f6c6964206f776e65720000000000000000000000000000000000000000000000602082015250565b7f496e697469616c697a61626c653a20636f6e747261637420697320616c72656160008201527f647920696e697469616c697a6564000000000000000000000000000000000000602082015250565b7f4552433732313a20617070726f76652063616c6c6572206973206e6f7420746f60008201527f6b656e206f776e6572206e6f7220617070726f76656420666f7220616c6c0000602082015250565b7f4552433732313a206d696e7420746f20746865207a65726f2061646472657373600082015250565b7f4e6f206574686572206c65667420746f20776974686472617700000000000000600082015250565b7f4f776e61626c653a2063616c6c6572206973206e6f7420746865206f776e6572600082015250565b7f4552433732313a20696e76616c696420746f6b656e2049440000000000000000600082015250565b7f4552433732313a20617070726f76616c20746f2063757272656e74206f776e6560008201527f7200000000000000000000000000000000000000000000000000000000000000602082015250565b50565b7f5472616e73666572206661696c65642e00000000000000000000000000000000600082015250565b7f455243373231456e756d657261626c653a20676c6f62616c20696e646578206f60008201527f7574206f6620626f756e64730000000000000000000000000000000000000000602082015250565b7f496e697469616c697a61626c653a20636f6e7472616374206973206e6f74206960008201527f6e697469616c697a696e67000000000000000000000000000000000000000000602082015250565b7f4552433732313a2063616c6c6572206973206e6f7420746f6b656e206f776e6560008201527f72206e6f7220617070726f766564000000000000000000000000000000000000602082015250565b61425f81613a11565b811461426a57600080fd5b50565b61427681613a23565b811461428157600080fd5b50565b61428d81613a2f565b811461429857600080fd5b50565b6142a481613a7b565b81146142af57600080fd5b5056fea2646970667358221220ebca6eb223df8238420959a1b2c0db0ad3450e5a06408f569df3338550bb4ddf64736f6c63430008020033",
  "immutableReferences": {},
  "source": "// SPDX-License-Identifier: MIT\r\npragma solidity ^0.8.2;\r\n\r\nimport \"@openzeppelin/contracts-upgradeable/token/ERC721/ERC721Upgradeable.sol\";\r\nimport \"@openzeppelin/contracts-upgradeable/utils/CountersUpgradeable.sol\";\r\nimport \"@openzeppelin/contracts-upgradeable/access/OwnableUpgradeable.sol\";\r\nimport \"@openzeppelin/contracts-upgradeable/utils/math/SafeMathUpgradeable.sol\";\r\nimport \"@openzeppelin/contracts-upgradeable/token/ERC721/extensions/ERC721EnumerableUpgradeable.sol\";\r\nimport \"@openzeppelin/contracts-upgradeable/proxy/utils/Initializable.sol\";\r\n\r\ncontract CryptoIsland is\r\n    ERC721Upgradeable,\r\n    ERC721EnumerableUpgradeable,\r\n    OwnableUpgradeable\r\n{\r\n    using SafeMathUpgradeable for uint256;\r\n    using CountersUpgradeable for CountersUpgradeable.Counter;\r\n\r\n    CountersUpgradeable.Counter private _tokenIds;\r\n\r\n    uint256 public constant MAX_SUPPLY = 1000;\r\n    uint256 public constant PRICE = 0.01 ether;\r\n    uint256 public constant MAX_PER_MINT = 1;\r\n\r\n    string public baseTokenURI;\r\n\r\n    function initialize() public initializer {\r\n        __ERC721_init(\"CryptoIsland\", \"jeju\");\r\n        __ERC721Enumerable_init();\r\n    }\r\n\r\n    function reserveNFTs() public onlyOwner {\r\n        uint256 totalMinted = _tokenIds.current();\r\n\r\n        require(\r\n            totalMinted.add(10) < MAX_SUPPLY,\r\n            \"Not enough NFTs left to reserve\"\r\n        );\r\n\r\n        for (uint256 i = 0; i < 10; i++) {\r\n            _mintSingleNFT();\r\n        }\r\n    }\r\n\r\n    function _baseURI() internal view virtual override returns (string memory) {\r\n        return baseTokenURI;\r\n    }\r\n\r\n    function setBaseURI(string memory _baseTokenURI) public onlyOwner {\r\n        baseTokenURI = _baseTokenURI;\r\n    }\r\n\r\n    function _beforeTokenTransfer(\r\n        address from,\r\n        address to,\r\n        uint256 tokenId\r\n    ) internal override(ERC721Upgradeable, ERC721EnumerableUpgradeable) {\r\n        super._beforeTokenTransfer(from, to, tokenId);\r\n    }\r\n\r\n    function supportsInterface(bytes4 interfaceId)\r\n        public\r\n        view\r\n        override(ERC721Upgradeable, ERC721EnumerableUpgradeable)\r\n        returns (bool)\r\n    {\r\n        return super.supportsInterface(interfaceId);\r\n    }\r\n\r\n    function mintNFTs(uint256 _count) public payable {\r\n        uint256 totalMinted = _tokenIds.current();\r\n\r\n        require(totalMinted.add(_count) <= MAX_SUPPLY, \"Not enough NFTs left!\");\r\n        require(\r\n            _count > 0 && _count <= MAX_PER_MINT,\r\n            \"Cannot mint specified number of NFTs.\"\r\n        );\r\n        require(\r\n            msg.value >= PRICE.mul(_count),\r\n            \"Not enough ether to purchase NFTs.\"\r\n        );\r\n\r\n        for (uint256 i = 0; i < _count; i++) {\r\n            _mintSingleNFT();\r\n        }\r\n    }\r\n\r\n    function _mintSingleNFT() private {\r\n        uint256 newTokenID = _tokenIds.current();\r\n        _safeMint(msg.sender, newTokenID);\r\n        _tokenIds.increment();\r\n    }\r\n\r\n    function tokensOfOwner(address _owner)\r\n        external\r\n        view\r\n        returns (uint256[] memory)\r\n    {\r\n        uint256 tokenCount = balanceOf(_owner);\r\n        uint256[] memory tokensId = new uint256[](tokenCount);\r\n\r\n        for (uint256 i = 0; i < tokenCount; i++) {\r\n            tokensId[i] = tokenOfOwnerByIndex(_owner, i);\r\n        }\r\n        return tokensId;\r\n    }\r\n\r\n    function withdraw() public payable onlyOwner {\r\n        uint256 balance = address(this).balance;\r\n        require(balance > 0, \"No ether left to withdraw\");\r\n\r\n        (bool success, ) = (msg.sender).call{value: balance}(\"\");\r\n        require(success, \"Transfer failed.\");\r\n    }\r\n}\r\n",
  "sourcePath": "C:\\CryptoIsland\\contracts\\CryptoIsland.sol",
  "compiler": {
    "name": "solc",
    "version": "0.8.2+commit.661d1103.Emscripten.clang"
  },
  "schemaVersion": "3.4.8",
  "updatedAt": "2022-08-10T02:34:57.006Z",
  "networkType": "ethereum",
  "devdoc": {
    "kind": "dev",
    "methods": {
      "approve(address,uint256)": {
        "details": "See {IERC721-approve}."
      },
      "balanceOf(address)": {
        "details": "See {IERC721-balanceOf}."
      },
      "getApproved(uint256)": {
        "details": "See {IERC721-getApproved}."
      },
      "isApprovedForAll(address,address)": {
        "details": "See {IERC721-isApprovedForAll}."
      },
      "name()": {
        "details": "See {IERC721Metadata-name}."
      },
      "owner()": {
        "details": "Returns the address of the current owner."
      },
      "ownerOf(uint256)": {
        "details": "See {IERC721-ownerOf}."
      },
      "renounceOwnership()": {
        "details": "Leaves the contract without owner. It will not be possible to call `onlyOwner` functions anymore. Can only be called by the current owner. NOTE: Renouncing ownership will leave the contract without an owner, thereby removing any functionality that is only available to the owner."
      },
      "safeTransferFrom(address,address,uint256)": {
        "details": "See {IERC721-safeTransferFrom}."
      },
      "safeTransferFrom(address,address,uint256,bytes)": {
        "details": "See {IERC721-safeTransferFrom}."
      },
      "setApprovalForAll(address,bool)": {
        "details": "See {IERC721-setApprovalForAll}."
      },
      "symbol()": {
        "details": "See {IERC721Metadata-symbol}."
      },
      "tokenByIndex(uint256)": {
        "details": "See {IERC721Enumerable-tokenByIndex}."
      },
      "tokenOfOwnerByIndex(address,uint256)": {
        "details": "See {IERC721Enumerable-tokenOfOwnerByIndex}."
      },
      "tokenURI(uint256)": {
        "details": "See {IERC721Metadata-tokenURI}."
      },
      "totalSupply()": {
        "details": "See {IERC721Enumerable-totalSupply}."
      },
      "transferFrom(address,address,uint256)": {
        "details": "See {IERC721-transferFrom}."
      },
      "transferOwnership(address)": {
        "details": "Transfers ownership of the contract to a new account (`newOwner`). Can only be called by the current owner."
      }
    },
    "version": 1
  },
  "userdoc": {
    "kind": "user",
    "methods": {},
    "version": 1
  }
}