{
  "contractName": "CryptoIsland",
  "abi": [
    {
      "anonymous": false,
      "inputs": [
        {
          "indexed": true,
          "internalType": "address",
          "name": "owner",
          "type": "address"
        },
        {
          "indexed": true,
          "internalType": "address",
          "name": "approved",
          "type": "address"
        },
        {
          "indexed": true,
          "internalType": "uint256",
          "name": "tokenId",
          "type": "uint256"
        }
      ],
      "name": "Approval",
      "type": "event"
    },
    {
      "anonymous": false,
      "inputs": [
        {
          "indexed": true,
          "internalType": "address",
          "name": "owner",
          "type": "address"
        },
        {
          "indexed": true,
          "internalType": "address",
          "name": "operator",
          "type": "address"
        },
        {
          "indexed": false,
          "internalType": "bool",
          "name": "approved",
          "type": "bool"
        }
      ],
      "name": "ApprovalForAll",
      "type": "event"
    },
    {
      "anonymous": false,
      "inputs": [
        {
          "indexed": true,
          "internalType": "address",
          "name": "previousOwner",
          "type": "address"
        },
        {
          "indexed": true,
          "internalType": "address",
          "name": "newOwner",
          "type": "address"
        }
      ],
      "name": "OwnershipTransferred",
      "type": "event"
    },
    {
      "anonymous": false,
      "inputs": [
        {
          "indexed": false,
          "internalType": "address",
          "name": "account",
          "type": "address"
        }
      ],
      "name": "Paused",
      "type": "event"
    },
    {
      "anonymous": false,
      "inputs": [
        {
          "indexed": true,
          "internalType": "address",
          "name": "from",
          "type": "address"
        },
        {
          "indexed": true,
          "internalType": "address",
          "name": "to",
          "type": "address"
        },
        {
          "indexed": true,
          "internalType": "uint256",
          "name": "tokenId",
          "type": "uint256"
        }
      ],
      "name": "Transfer",
      "type": "event"
    },
    {
      "anonymous": false,
      "inputs": [
        {
          "indexed": false,
          "internalType": "address",
          "name": "account",
          "type": "address"
        }
      ],
      "name": "Unpaused",
      "type": "event"
    },
    {
      "inputs": [
        {
          "internalType": "address",
          "name": "to",
          "type": "address"
        },
        {
          "internalType": "uint256",
          "name": "tokenId",
          "type": "uint256"
        }
      ],
      "name": "approve",
      "outputs": [],
      "stateMutability": "nonpayable",
      "type": "function"
    },
    {
      "inputs": [
        {
          "internalType": "address",
          "name": "owner",
          "type": "address"
        }
      ],
      "name": "balanceOf",
      "outputs": [
        {
          "internalType": "uint256",
          "name": "",
          "type": "uint256"
        }
      ],
      "stateMutability": "view",
      "type": "function"
    },
    {
      "inputs": [
        {
          "internalType": "uint256",
          "name": "tokenId",
          "type": "uint256"
        }
      ],
      "name": "burn",
      "outputs": [],
      "stateMutability": "nonpayable",
      "type": "function"
    },
    {
      "inputs": [
        {
          "internalType": "uint256",
          "name": "tokenId",
          "type": "uint256"
        }
      ],
      "name": "getApproved",
      "outputs": [
        {
          "internalType": "address",
          "name": "",
          "type": "address"
        }
      ],
      "stateMutability": "view",
      "type": "function"
    },
    {
      "inputs": [
        {
          "internalType": "address",
          "name": "owner",
          "type": "address"
        },
        {
          "internalType": "address",
          "name": "operator",
          "type": "address"
        }
      ],
      "name": "isApprovedForAll",
      "outputs": [
        {
          "internalType": "bool",
          "name": "",
          "type": "bool"
        }
      ],
      "stateMutability": "view",
      "type": "function"
    },
    {
      "inputs": [],
      "name": "name",
      "outputs": [
        {
          "internalType": "string",
          "name": "",
          "type": "string"
        }
      ],
      "stateMutability": "view",
      "type": "function"
    },
    {
      "inputs": [],
      "name": "owner",
      "outputs": [
        {
          "internalType": "address",
          "name": "",
          "type": "address"
        }
      ],
      "stateMutability": "view",
      "type": "function"
    },
    {
      "inputs": [
        {
          "internalType": "uint256",
          "name": "tokenId",
          "type": "uint256"
        }
      ],
      "name": "ownerOf",
      "outputs": [
        {
          "internalType": "address",
          "name": "",
          "type": "address"
        }
      ],
      "stateMutability": "view",
      "type": "function"
    },
    {
      "inputs": [],
      "name": "paused",
      "outputs": [
        {
          "internalType": "bool",
          "name": "",
          "type": "bool"
        }
      ],
      "stateMutability": "view",
      "type": "function"
    },
    {
      "inputs": [],
      "name": "renounceOwnership",
      "outputs": [],
      "stateMutability": "nonpayable",
      "type": "function"
    },
    {
      "inputs": [
        {
          "internalType": "address",
          "name": "from",
          "type": "address"
        },
        {
          "internalType": "address",
          "name": "to",
          "type": "address"
        },
        {
          "internalType": "uint256",
          "name": "tokenId",
          "type": "uint256"
        }
      ],
      "name": "safeTransferFrom",
      "outputs": [],
      "stateMutability": "nonpayable",
      "type": "function"
    },
    {
      "inputs": [
        {
          "internalType": "address",
          "name": "from",
          "type": "address"
        },
        {
          "internalType": "address",
          "name": "to",
          "type": "address"
        },
        {
          "internalType": "uint256",
          "name": "tokenId",
          "type": "uint256"
        },
        {
          "internalType": "bytes",
          "name": "_data",
          "type": "bytes"
        }
      ],
      "name": "safeTransferFrom",
      "outputs": [],
      "stateMutability": "nonpayable",
      "type": "function"
    },
    {
      "inputs": [
        {
          "internalType": "address",
          "name": "operator",
          "type": "address"
        },
        {
          "internalType": "bool",
          "name": "approved",
          "type": "bool"
        }
      ],
      "name": "setApprovalForAll",
      "outputs": [],
      "stateMutability": "nonpayable",
      "type": "function"
    },
    {
      "inputs": [],
      "name": "symbol",
      "outputs": [
        {
          "internalType": "string",
          "name": "",
          "type": "string"
        }
      ],
      "stateMutability": "view",
      "type": "function"
    },
    {
      "inputs": [
        {
          "internalType": "uint256",
          "name": "index",
          "type": "uint256"
        }
      ],
      "name": "tokenByIndex",
      "outputs": [
        {
          "internalType": "uint256",
          "name": "",
          "type": "uint256"
        }
      ],
      "stateMutability": "view",
      "type": "function"
    },
    {
      "inputs": [
        {
          "internalType": "address",
          "name": "owner",
          "type": "address"
        },
        {
          "internalType": "uint256",
          "name": "index",
          "type": "uint256"
        }
      ],
      "name": "tokenOfOwnerByIndex",
      "outputs": [
        {
          "internalType": "uint256",
          "name": "",
          "type": "uint256"
        }
      ],
      "stateMutability": "view",
      "type": "function"
    },
    {
      "inputs": [],
      "name": "totalSupply",
      "outputs": [
        {
          "internalType": "uint256",
          "name": "",
          "type": "uint256"
        }
      ],
      "stateMutability": "view",
      "type": "function"
    },
    {
      "inputs": [
        {
          "internalType": "address",
          "name": "from",
          "type": "address"
        },
        {
          "internalType": "address",
          "name": "to",
          "type": "address"
        },
        {
          "internalType": "uint256",
          "name": "tokenId",
          "type": "uint256"
        }
      ],
      "name": "transferFrom",
      "outputs": [],
      "stateMutability": "nonpayable",
      "type": "function"
    },
    {
      "inputs": [
        {
          "internalType": "address",
          "name": "newOwner",
          "type": "address"
        }
      ],
      "name": "transferOwnership",
      "outputs": [],
      "stateMutability": "nonpayable",
      "type": "function"
    },
    {
      "inputs": [],
      "name": "initialize",
      "outputs": [],
      "stateMutability": "nonpayable",
      "type": "function"
    },
    {
      "inputs": [
        {
          "internalType": "address",
          "name": "to",
          "type": "address"
        }
      ],
      "name": "safeMint",
      "outputs": [],
      "stateMutability": "payable",
      "type": "function"
    },
    {
      "inputs": [],
      "name": "pause",
      "outputs": [],
      "stateMutability": "nonpayable",
      "type": "function"
    },
    {
      "inputs": [],
      "name": "unpause",
      "outputs": [],
      "stateMutability": "nonpayable",
      "type": "function"
    },
    {
      "inputs": [
        {
          "internalType": "uint256",
          "name": "tokenId",
          "type": "uint256"
        }
      ],
      "name": "tokenURI",
      "outputs": [
        {
          "internalType": "string",
          "name": "",
          "type": "string"
        }
      ],
      "stateMutability": "view",
      "type": "function"
    },
    {
      "inputs": [
        {
          "internalType": "bytes4",
          "name": "interfaceId",
          "type": "bytes4"
        }
      ],
      "name": "supportsInterface",
      "outputs": [
        {
          "internalType": "bool",
          "name": "",
          "type": "bool"
        }
      ],
      "stateMutability": "view",
      "type": "function"
    }
  ],
  "bytecode": "0x608060405234801561001057600080fd5b50614cf1806100206000396000f3fe6080604052600436106101665760003560e01c80635c975abb116100d15780638da5cb5b1161008a578063b88d4fde11610064578063b88d4fde146104f5578063c87b56dd1461051e578063e985e9c51461055b578063f2fde38b1461059857610166565b80638da5cb5b1461047657806395d89b41146104a1578063a22cb465146104cc57610166565b80635c975abb1461038c5780636352211e146103b757806370a08231146103f4578063715018a6146104315780638129fc1c146104485780638456cb591461045f57610166565b80632f745c59116101235780632f745c591461028d5780633f4ba83a146102ca57806340d097c3146102e157806342842e0e146102fd57806342966c68146103265780634f6ccce71461034f57610166565b806301ffc9a71461016b57806306fdde03146101a8578063081812fc146101d3578063095ea7b31461021057806318160ddd1461023957806323b872dd14610264575b600080fd5b34801561017757600080fd5b50610192600480360381019061018d91906139f3565b6105c1565b60405161019f9190613eee565b60405180910390f35b3480156101b457600080fd5b506101bd6105d3565b6040516101ca9190613f09565b60405180910390f35b3480156101df57600080fd5b506101fa60048036038101906101f59190613a45565b610665565b6040516102079190613e87565b60405180910390f35b34801561021c57600080fd5b50610237600480360381019061023291906139b7565b6106ea565b005b34801561024557600080fd5b5061024e610802565b60405161025b919061420b565b60405180910390f35b34801561027057600080fd5b5061028b600480360381019061028691906138b1565b61080f565b005b34801561029957600080fd5b506102b460048036038101906102af91906139b7565b61086f565b6040516102c1919061420b565b60405180910390f35b3480156102d657600080fd5b506102df610914565b005b6102fb60048036038101906102f6919061384c565b61099a565b005b34801561030957600080fd5b50610324600480360381019061031f91906138b1565b6109bc565b005b34801561033257600080fd5b5061034d60048036038101906103489190613a45565b6109dc565b005b34801561035b57600080fd5b5061037660048036038101906103719190613a45565b610a38565b604051610383919061420b565b60405180910390f35b34801561039857600080fd5b506103a1610acf565b6040516103ae9190613eee565b60405180910390f35b3480156103c357600080fd5b506103de60048036038101906103d99190613a45565b610ae6565b6040516103eb9190613e87565b60405180910390f35b34801561040057600080fd5b5061041b6004803603810190610416919061384c565b610b98565b604051610428919061420b565b60405180910390f35b34801561043d57600080fd5b50610446610c50565b005b34801561045457600080fd5b5061045d610cd8565b005b34801561046b57600080fd5b50610474610e4d565b005b34801561048257600080fd5b5061048b610ed3565b6040516104989190613e87565b60405180910390f35b3480156104ad57600080fd5b506104b6610efe565b6040516104c39190613f09565b60405180910390f35b3480156104d857600080fd5b506104f360048036038101906104ee919061397b565b610f90565b005b34801561050157600080fd5b5061051c60048036038101906105179190613900565b611111565b005b34801561052a57600080fd5b5061054560048036038101906105409190613a45565b611173565b6040516105529190613f09565b60405180910390f35b34801561056757600080fd5b50610582600480360381019061057d9190613875565b611185565b60405161058f9190613eee565b60405180910390f35b3480156105a457600080fd5b506105bf60048036038101906105ba919061384c565b611219565b005b60006105cc82611311565b9050919050565b6060606580546105e290614430565b80601f016020809104026020016040519081016040528092919081815260200182805461060e90614430565b801561065b5780601f106106305761010080835404028352916020019161065b565b820191906000526020600020905b81548152906001019060200180831161063e57829003601f168201915b5050505050905090565b60006106708261138b565b6106af576040517f08c379a00000000000000000000000000000000000000000000000000000000081526004016106a69061410b565b60405180910390fd5b6069600083815260200190815260200160002060009054906101000a900473ffffffffffffffffffffffffffffffffffffffff169050919050565b60006106f582610ae6565b90508073ffffffffffffffffffffffffffffffffffffffff168373ffffffffffffffffffffffffffffffffffffffff161415610766576040517f08c379a000000000000000000000000000000000000000000000000000000000815260040161075d9061418b565b60405180910390fd5b8073ffffffffffffffffffffffffffffffffffffffff166107856113f7565b73ffffffffffffffffffffffffffffffffffffffff1614806107b457506107b3816107ae6113f7565b611185565b5b6107f3576040517f08c379a00000000000000000000000000000000000000000000000000000000081526004016107ea9061404b565b60405180910390fd5b6107fd83836113ff565b505050565b6000609980549050905090565b61082061081a6113f7565b826114b8565b61085f576040517f08c379a0000000000000000000000000000000000000000000000000000000008152600401610856906141ab565b60405180910390fd5b61086a838383611596565b505050565b600061087a83610b98565b82106108bb576040517f08c379a00000000000000000000000000000000000000000000000000000000081526004016108b290613f4b565b60405180910390fd5b609760008473ffffffffffffffffffffffffffffffffffffffff1673ffffffffffffffffffffffffffffffffffffffff168152602001908152602001600020600083815260200190815260200160002054905092915050565b61091c6113f7565b73ffffffffffffffffffffffffffffffffffffffff1661093a610ed3565b73ffffffffffffffffffffffffffffffffffffffff1614610990576040517f08c379a00000000000000000000000000000000000000000000000000000000081526004016109879061412b565b60405180910390fd5b6109986117f2565b565b6109ae816109a9610191611894565b6118a2565b6109b96101916118c0565b50565b6109d783838360405180602001604052806000815250611111565b505050565b6109ed6109e76113f7565b826114b8565b610a2c576040517f08c379a0000000000000000000000000000000000000000000000000000000008152600401610a23906141eb565b60405180910390fd5b610a35816118d6565b50565b6000610a42610802565b8210610a83576040517f08c379a0000000000000000000000000000000000000000000000000000000008152600401610a7a906141cb565b60405180910390fd5b60998281548110610abd577f4e487b7100000000000000000000000000000000000000000000000000000000600052603260045260246000fd5b90600052602060002001549050919050565b600060fb60009054906101000a900460ff16905090565b6000806067600084815260200190815260200160002060009054906101000a900473ffffffffffffffffffffffffffffffffffffffff169050600073ffffffffffffffffffffffffffffffffffffffff168173ffffffffffffffffffffffffffffffffffffffff161415610b8f576040517f08c379a0000000000000000000000000000000000000000000000000000000008152600401610b869061408b565b60405180910390fd5b80915050919050565b60008073ffffffffffffffffffffffffffffffffffffffff168273ffffffffffffffffffffffffffffffffffffffff161415610c09576040517f08c379a0000000000000000000000000000000000000000000000000000000008152600401610c009061406b565b60405180910390fd5b606860008373ffffffffffffffffffffffffffffffffffffffff1673ffffffffffffffffffffffffffffffffffffffff168152602001908152602001600020549050919050565b610c586113f7565b73ffffffffffffffffffffffffffffffffffffffff16610c76610ed3565b73ffffffffffffffffffffffffffffffffffffffff1614610ccc576040517f08c379a0000000000000000000000000000000000000000000000000000000008152600401610cc39061412b565b60405180910390fd5b610cd660006118e2565b565b600060019054906101000a900460ff1680610cfe575060008054906101000a900460ff16155b610d3d576040517f08c379a0000000000000000000000000000000000000000000000000000000008152600401610d34906140ab565b60405180910390fd5b60008060019054906101000a900460ff161590508015610d8d576001600060016101000a81548160ff02191690831515021790555060016000806101000a81548160ff0219169083151502179055505b610e016040518060400160405280600c81526020017f43727970746f49736c616e6400000000000000000000000000000000000000008152506040518060400160405280600381526020017f574f4f00000000000000000000000000000000000000000000000000000000008152506119aa565b610e09611a9f565b610e11611b90565b610e19611c81565b610e21611d6a565b610e29611e53565b8015610e4a5760008060016101000a81548160ff0219169083151502179055505b50565b610e556113f7565b73ffffffffffffffffffffffffffffffffffffffff16610e73610ed3565b73ffffffffffffffffffffffffffffffffffffffff1614610ec9576040517f08c379a0000000000000000000000000000000000000000000000000000000008152600401610ec09061412b565b60405180910390fd5b610ed1611f44565b565b600061012d60009054906101000a900473ffffffffffffffffffffffffffffffffffffffff16905090565b606060668054610f0d90614430565b80601f0160208091040260200160405190810160405280929190818152602001828054610f3990614430565b8015610f865780601f10610f5b57610100808354040283529160200191610f86565b820191906000526020600020905b815481529060010190602001808311610f6957829003601f168201915b5050505050905090565b610f986113f7565b73ffffffffffffffffffffffffffffffffffffffff168273ffffffffffffffffffffffffffffffffffffffff161415611006576040517f08c379a0000000000000000000000000000000000000000000000000000000008152600401610ffd90613feb565b60405180910390fd5b80606a60006110136113f7565b73ffffffffffffffffffffffffffffffffffffffff1673ffffffffffffffffffffffffffffffffffffffff16815260200190815260200160002060008473ffffffffffffffffffffffffffffffffffffffff1673ffffffffffffffffffffffffffffffffffffffff16815260200190815260200160002060006101000a81548160ff0219169083151502179055508173ffffffffffffffffffffffffffffffffffffffff166110c06113f7565b73ffffffffffffffffffffffffffffffffffffffff167f17307eab39ab6107e8899845ad3d59bd9653f200f220920489ca2b5937696c31836040516111059190613eee565b60405180910390a35050565b61112261111c6113f7565b836114b8565b611161576040517f08c379a0000000000000000000000000000000000000000000000000000000008152600401611158906141ab565b60405180910390fd5b61116d84848484611fe7565b50505050565b606061117e82612043565b9050919050565b6000606a60008473ffffffffffffffffffffffffffffffffffffffff1673ffffffffffffffffffffffffffffffffffffffff16815260200190815260200160002060008373ffffffffffffffffffffffffffffffffffffffff1673ffffffffffffffffffffffffffffffffffffffff16815260200190815260200160002060009054906101000a900460ff16905092915050565b6112216113f7565b73ffffffffffffffffffffffffffffffffffffffff1661123f610ed3565b73ffffffffffffffffffffffffffffffffffffffff1614611295576040517f08c379a000000000000000000000000000000000000000000000000000000000815260040161128c9061412b565b60405180910390fd5b600073ffffffffffffffffffffffffffffffffffffffff168173ffffffffffffffffffffffffffffffffffffffff161415611305576040517f08c379a00000000000000000000000000000000000000000000000000000000081526004016112fc90613f8b565b60405180910390fd5b61130e816118e2565b50565b60007f780e9d63000000000000000000000000000000000000000000000000000000007bffffffffffffffffffffffffffffffffffffffffffffffffffffffff1916827bffffffffffffffffffffffffffffffffffffffffffffffffffffffff19161480611384575061138382612195565b5b9050919050565b60008073ffffffffffffffffffffffffffffffffffffffff166067600084815260200190815260200160002060009054906101000a900473ffffffffffffffffffffffffffffffffffffffff1673ffffffffffffffffffffffffffffffffffffffff1614159050919050565b600033905090565b816069600083815260200190815260200160002060006101000a81548173ffffffffffffffffffffffffffffffffffffffff021916908373ffffffffffffffffffffffffffffffffffffffff160217905550808273ffffffffffffffffffffffffffffffffffffffff1661147283610ae6565b73ffffffffffffffffffffffffffffffffffffffff167f8c5be1e5ebec7d5bd14f71427d1e84f3dd0314c0f7b2291e5b200ac8c7c3b92560405160405180910390a45050565b60006114c38261138b565b611502576040517f08c379a00000000000000000000000000000000000000000000000000000000081526004016114f99061400b565b60405180910390fd5b600061150d83610ae6565b90508073ffffffffffffffffffffffffffffffffffffffff168473ffffffffffffffffffffffffffffffffffffffff16148061157c57508373ffffffffffffffffffffffffffffffffffffffff1661156484610665565b73ffffffffffffffffffffffffffffffffffffffff16145b8061158d575061158c8185611185565b5b91505092915050565b8273ffffffffffffffffffffffffffffffffffffffff166115b682610ae6565b73ffffffffffffffffffffffffffffffffffffffff161461160c576040517f08c379a00000000000000000000000000000000000000000000000000000000081526004016116039061414b565b60405180910390fd5b600073ffffffffffffffffffffffffffffffffffffffff168273ffffffffffffffffffffffffffffffffffffffff16141561167c576040517f08c379a000000000000000000000000000000000000000000000000000000000815260040161167390613fcb565b60405180910390fd5b611687838383612277565b6116926000826113ff565b6001606860008573ffffffffffffffffffffffffffffffffffffffff1673ffffffffffffffffffffffffffffffffffffffff16815260200190815260200160002060008282546116e29190614346565b925050819055506001606860008473ffffffffffffffffffffffffffffffffffffffff1673ffffffffffffffffffffffffffffffffffffffff168152602001908152602001600020600082825461173991906142bf565b92505081905550816067600083815260200190815260200160002060006101000a81548173ffffffffffffffffffffffffffffffffffffffff021916908373ffffffffffffffffffffffffffffffffffffffff160217905550808273ffffffffffffffffffffffffffffffffffffffff168473ffffffffffffffffffffffffffffffffffffffff167fddf252ad1be2c89b69c2b068fc378daa952ba7f163c4a11628f55a4df523b3ef60405160405180910390a4505050565b6117fa610acf565b611839576040517f08c379a000000000000000000000000000000000000000000000000000000000815260040161183090613f2b565b60405180910390fd5b600060fb60006101000a81548160ff0219169083151502179055507f5db9ee0a495bf2e6ff9c91a7834c1ba4fdd244a5e8aa4e537bd38aeae4b073aa61187d6113f7565b60405161188a9190613e87565b60405180910390a1565b600081600001549050919050565b6118bc8282604051806020016040528060008152506122cf565b5050565b6001816000016000828254019250508190555050565b6118df8161232a565b50565b600061012d60009054906101000a900473ffffffffffffffffffffffffffffffffffffffff1690508161012d60006101000a81548173ffffffffffffffffffffffffffffffffffffffff021916908373ffffffffffffffffffffffffffffffffffffffff1602179055508173ffffffffffffffffffffffffffffffffffffffff168173ffffffffffffffffffffffffffffffffffffffff167f8be0079c531659141344cd1fd0a4f28419497f9722a3daafe3b4186f6b6457e060405160405180910390a35050565b600060019054906101000a900460ff16806119d0575060008054906101000a900460ff16155b611a0f576040517f08c379a0000000000000000000000000000000000000000000000000000000008152600401611a06906140ab565b60405180910390fd5b60008060019054906101000a900460ff161590508015611a5f576001600060016101000a81548160ff02191690831515021790555060016000806101000a81548160ff0219169083151502179055505b611a6761237d565b611a6f612456565b611a79838361252f565b8015611a9a5760008060016101000a81548160ff0219169083151502179055505b505050565b600060019054906101000a900460ff1680611ac5575060008054906101000a900460ff16155b611b04576040517f08c379a0000000000000000000000000000000000000000000000000000000008152600401611afb906140ab565b60405180910390fd5b60008060019054906101000a900460ff161590508015611b54576001600060016101000a81548160ff02191690831515021790555060016000806101000a81548160ff0219169083151502179055505b611b5c61237d565b611b64612456565b611b6c612638565b8015611b8d5760008060016101000a81548160ff0219169083151502179055505b50565b600060019054906101000a900460ff1680611bb6575060008054906101000a900460ff16155b611bf5576040517f08c379a0000000000000000000000000000000000000000000000000000000008152600401611bec906140ab565b60405180910390fd5b60008060019054906101000a900460ff161590508015611c45576001600060016101000a81548160ff02191690831515021790555060016000806101000a81548160ff0219169083151502179055505b611c4d61237d565b611c55612456565b611c5d612711565b8015611c7e5760008060016101000a81548160ff0219169083151502179055505b50565b600060019054906101000a900460ff1680611ca7575060008054906101000a900460ff16155b611ce6576040517f08c379a0000000000000000000000000000000000000000000000000000000008152600401611cdd906140ab565b60405180910390fd5b60008060019054906101000a900460ff161590508015611d36576001600060016101000a81548160ff02191690831515021790555060016000806101000a81548160ff0219169083151502179055505b611d3e61237d565b611d466127ea565b8015611d675760008060016101000a81548160ff0219169083151502179055505b50565b600060019054906101000a900460ff1680611d90575060008054906101000a900460ff16155b611dcf576040517f08c379a0000000000000000000000000000000000000000000000000000000008152600401611dc6906140ab565b60405180910390fd5b60008060019054906101000a900460ff161590508015611e1f576001600060016101000a81548160ff02191690831515021790555060016000806101000a81548160ff0219169083151502179055505b611e2761237d565b611e2f6128de565b8015611e505760008060016101000a81548160ff0219169083151502179055505b50565b600060019054906101000a900460ff1680611e79575060008054906101000a900460ff16155b611eb8576040517f08c379a0000000000000000000000000000000000000000000000000000000008152600401611eaf906140ab565b60405180910390fd5b60008060019054906101000a900460ff161590508015611f08576001600060016101000a81548160ff02191690831515021790555060016000806101000a81548160ff0219169083151502179055505b611f1061237d565b611f18612456565b611f206129c7565b8015611f415760008060016101000a81548160ff0219169083151502179055505b50565b611f4c610acf565b15611f8c576040517f08c379a0000000000000000000000000000000000000000000000000000000008152600401611f839061402b565b60405180910390fd5b600160fb60006101000a81548160ff0219169083151502179055507f62e78cea01bee320cd4e420270b5ea74000d11b0c9f74754ebdbfc544b05a258611fd06113f7565b604051611fdd9190613e87565b60405180910390a1565b611ff2848484611596565b611ffe84848484612aa0565b61203d576040517f08c379a000000000000000000000000000000000000000000000000000000000815260040161203490613f6b565b60405180910390fd5b50505050565b606061204e8261138b565b61208d576040517f08c379a0000000000000000000000000000000000000000000000000000000008152600401612084906140eb565b60405180910390fd5b600060c9600084815260200190815260200160002080546120ad90614430565b80601f01602080910402602001604051908101604052809291908181526020018280546120d990614430565b80156121265780601f106120fb57610100808354040283529160200191612126565b820191906000526020600020905b81548152906001019060200180831161210957829003601f168201915b505050505090506000612137612c37565b905060008151141561214d578192505050612190565b60008251111561218257808260405160200161216a929190613e63565b60405160208183030381529060405292505050612190565b61218b84612c57565b925050505b919050565b60007f80ac58cd000000000000000000000000000000000000000000000000000000007bffffffffffffffffffffffffffffffffffffffffffffffffffffffff1916827bffffffffffffffffffffffffffffffffffffffffffffffffffffffff1916148061226057507f5b5e139f000000000000000000000000000000000000000000000000000000007bffffffffffffffffffffffffffffffffffffffffffffffffffffffff1916827bffffffffffffffffffffffffffffffffffffffffffffffffffffffff1916145b80612270575061226f82612cfe565b5b9050919050565b61227f610acf565b156122bf576040517f08c379a00000000000000000000000000000000000000000000000000000000081526004016122b69061402b565b60405180910390fd5b6122ca838383612d68565b505050565b6122d98383612e7c565b6122e66000848484612aa0565b612325576040517f08c379a000000000000000000000000000000000000000000000000000000000815260040161231c90613f6b565b60405180910390fd5b505050565b6123338161304a565b600060c96000838152602001908152602001600020805461235390614430565b90501461237a5760c9600082815260200190815260200160002060006123799190613698565b5b50565b600060019054906101000a900460ff16806123a3575060008054906101000a900460ff16155b6123e2576040517f08c379a00000000000000000000000000000000000000000000000000000000081526004016123d9906140ab565b60405180910390fd5b60008060019054906101000a900460ff161590508015612432576001600060016101000a81548160ff02191690831515021790555060016000806101000a81548160ff0219169083151502179055505b80156124535760008060016101000a81548160ff0219169083151502179055505b50565b600060019054906101000a900460ff168061247c575060008054906101000a900460ff16155b6124bb576040517f08c379a00000000000000000000000000000000000000000000000000000000081526004016124b2906140ab565b60405180910390fd5b60008060019054906101000a900460ff16159050801561250b576001600060016101000a81548160ff02191690831515021790555060016000806101000a81548160ff0219169083151502179055505b801561252c5760008060016101000a81548160ff0219169083151502179055505b50565b600060019054906101000a900460ff1680612555575060008054906101000a900460ff16155b612594576040517f08c379a000000000000000000000000000000000000000000000000000000000815260040161258b906140ab565b60405180910390fd5b60008060019054906101000a900460ff1615905080156125e4576001600060016101000a81548160ff02191690831515021790555060016000806101000a81548160ff0219169083151502179055505b82606590805190602001906125fa9291906136d8565b5081606690805190602001906126119291906136d8565b5080156126335760008060016101000a81548160ff0219169083151502179055505b505050565b600060019054906101000a900460ff168061265e575060008054906101000a900460ff16155b61269d576040517f08c379a0000000000000000000000000000000000000000000000000000000008152600401612694906140ab565b60405180910390fd5b60008060019054906101000a900460ff1615905080156126ed576001600060016101000a81548160ff02191690831515021790555060016000806101000a81548160ff0219169083151502179055505b801561270e5760008060016101000a81548160ff0219169083151502179055505b50565b600060019054906101000a900460ff1680612737575060008054906101000a900460ff16155b612776576040517f08c379a000000000000000000000000000000000000000000000000000000000815260040161276d906140ab565b60405180910390fd5b60008060019054906101000a900460ff1615905080156127c6576001600060016101000a81548160ff02191690831515021790555060016000806101000a81548160ff0219169083151502179055505b80156127e75760008060016101000a81548160ff0219169083151502179055505b50565b600060019054906101000a900460ff1680612810575060008054906101000a900460ff16155b61284f576040517f08c379a0000000000000000000000000000000000000000000000000000000008152600401612846906140ab565b60405180910390fd5b60008060019054906101000a900460ff16159050801561289f576001600060016101000a81548160ff02191690831515021790555060016000806101000a81548160ff0219169083151502179055505b600060fb60006101000a81548160ff02191690831515021790555080156128db5760008060016101000a81548160ff0219169083151502179055505b50565b600060019054906101000a900460ff1680612904575060008054906101000a900460ff16155b612943576040517f08c379a000000000000000000000000000000000000000000000000000000000815260040161293a906140ab565b60405180910390fd5b60008060019054906101000a900460ff161590508015612993576001600060016101000a81548160ff02191690831515021790555060016000806101000a81548160ff0219169083151502179055505b6129a361299e6113f7565b6118e2565b80156129c45760008060016101000a81548160ff0219169083151502179055505b50565b600060019054906101000a900460ff16806129ed575060008054906101000a900460ff16155b612a2c576040517f08c379a0000000000000000000000000000000000000000000000000000000008152600401612a23906140ab565b60405180910390fd5b60008060019054906101000a900460ff161590508015612a7c576001600060016101000a81548160ff02191690831515021790555060016000806101000a81548160ff0219169083151502179055505b8015612a9d5760008060016101000a81548160ff0219169083151502179055505b50565b6000612ac18473ffffffffffffffffffffffffffffffffffffffff1661315b565b15612c2a578373ffffffffffffffffffffffffffffffffffffffff1663150b7a02612aea6113f7565b8786866040518563ffffffff1660e01b8152600401612b0c9493929190613ea2565b602060405180830381600087803b158015612b2657600080fd5b505af1925050508015612b5757506040513d601f19601f82011682018060405250810190612b549190613a1c565b60015b612bda573d8060008114612b87576040519150601f19603f3d011682016040523d82523d6000602084013e612b8c565b606091505b50600081511415612bd2576040517f08c379a0000000000000000000000000000000000000000000000000000000008152600401612bc990613f6b565b60405180910390fd5b805181602001fd5b63150b7a0260e01b7bffffffffffffffffffffffffffffffffffffffffffffffffffffffff1916817bffffffffffffffffffffffffffffffffffffffffffffffffffffffff191614915050612c2f565b600190505b949350505050565b6060604051806080016040528060508152602001614c6c60509139905090565b6060612c628261138b565b612ca1576040517f08c379a0000000000000000000000000000000000000000000000000000000008152600401612c989061416b565b60405180910390fd5b6000612cab612c37565b90506000815111612ccb5760405180602001604052806000815250612cf6565b80612cd58461316e565b604051602001612ce6929190613e63565b6040516020818303038152906040525b915050919050565b60007f01ffc9a7000000000000000000000000000000000000000000000000000000007bffffffffffffffffffffffffffffffffffffffffffffffffffffffff1916827bffffffffffffffffffffffffffffffffffffffffffffffffffffffff1916149050919050565b612d7383838361331b565b600073ffffffffffffffffffffffffffffffffffffffff168373ffffffffffffffffffffffffffffffffffffffff161415612db657612db181613320565b612df5565b8173ffffffffffffffffffffffffffffffffffffffff168373ffffffffffffffffffffffffffffffffffffffff1614612df457612df38382613369565b5b5b600073ffffffffffffffffffffffffffffffffffffffff168273ffffffffffffffffffffffffffffffffffffffff161415612e3857612e33816134d6565b612e77565b8273ffffffffffffffffffffffffffffffffffffffff168273ffffffffffffffffffffffffffffffffffffffff1614612e7657612e758282613619565b5b5b505050565b600073ffffffffffffffffffffffffffffffffffffffff168273ffffffffffffffffffffffffffffffffffffffff161415612eec576040517f08c379a0000000000000000000000000000000000000000000000000000000008152600401612ee3906140cb565b60405180910390fd5b612ef58161138b565b15612f35576040517f08c379a0000000000000000000000000000000000000000000000000000000008152600401612f2c90613fab565b60405180910390fd5b612f4160008383612277565b6001606860008473ffffffffffffffffffffffffffffffffffffffff1673ffffffffffffffffffffffffffffffffffffffff1681526020019081526020016000206000828254612f9191906142bf565b92505081905550816067600083815260200190815260200160002060006101000a81548173ffffffffffffffffffffffffffffffffffffffff021916908373ffffffffffffffffffffffffffffffffffffffff160217905550808273ffffffffffffffffffffffffffffffffffffffff16600073ffffffffffffffffffffffffffffffffffffffff167fddf252ad1be2c89b69c2b068fc378daa952ba7f163c4a11628f55a4df523b3ef60405160405180910390a45050565b600061305582610ae6565b905061306381600084612277565b61306e6000836113ff565b6001606860008373ffffffffffffffffffffffffffffffffffffffff1673ffffffffffffffffffffffffffffffffffffffff16815260200190815260200160002060008282546130be9190614346565b925050819055506067600083815260200190815260200160002060006101000a81549073ffffffffffffffffffffffffffffffffffffffff021916905581600073ffffffffffffffffffffffffffffffffffffffff168273ffffffffffffffffffffffffffffffffffffffff167fddf252ad1be2c89b69c2b068fc378daa952ba7f163c4a11628f55a4df523b3ef60405160405180910390a45050565b600080823b905060008111915050919050565b606060008214156131b6576040518060400160405280600181526020017f30000000000000000000000000000000000000000000000000000000000000008152509050613316565b600082905060005b600082146131e85780806131d190614493565b915050600a826131e19190614315565b91506131be565b60008167ffffffffffffffff81111561322a577f4e487b7100000000000000000000000000000000000000000000000000000000600052604160045260246000fd5b6040519080825280601f01601f19166020018201604052801561325c5781602001600182028036833780820191505090505b5090505b6000851461330f576001826132759190614346565b9150600a8561328491906144dc565b603061329091906142bf565b60f81b8183815181106132cc577f4e487b7100000000000000000000000000000000000000000000000000000000600052603260045260246000fd5b60200101907effffffffffffffffffffffffffffffffffffffffffffffffffffffffffffff1916908160001a905350600a856133089190614315565b9450613260565b8093505050505b919050565b505050565b609980549050609a600083815260200190815260200160002081905550609981908060018154018082558091505060019003906000526020600020016000909190919091505550565b6000600161337684610b98565b6133809190614346565b9050600060986000848152602001908152602001600020549050818114613465576000609760008673ffffffffffffffffffffffffffffffffffffffff1673ffffffffffffffffffffffffffffffffffffffff168152602001908152602001600020600084815260200190815260200160002054905080609760008773ffffffffffffffffffffffffffffffffffffffff1673ffffffffffffffffffffffffffffffffffffffff168152602001908152602001600020600084815260200190815260200160002081905550816098600083815260200190815260200160002081905550505b6098600084815260200190815260200160002060009055609760008573ffffffffffffffffffffffffffffffffffffffff1673ffffffffffffffffffffffffffffffffffffffff16815260200190815260200160002060008381526020019081526020016000206000905550505050565b600060016099805490506134ea9190614346565b90506000609a6000848152602001908152602001600020549050600060998381548110613540577f4e487b7100000000000000000000000000000000000000000000000000000000600052603260045260246000fd5b906000526020600020015490508060998381548110613588577f4e487b7100000000000000000000000000000000000000000000000000000000600052603260045260246000fd5b906000526020600020018190555081609a600083815260200190815260200160002081905550609a60008581526020019081526020016000206000905560998054806135fd577f4e487b7100000000000000000000000000000000000000000000000000000000600052603160045260246000fd5b6001900381819060005260206000200160009055905550505050565b600061362483610b98565b905081609760008573ffffffffffffffffffffffffffffffffffffffff1673ffffffffffffffffffffffffffffffffffffffff168152602001908152602001600020600083815260200190815260200160002081905550806098600084815260200190815260200160002081905550505050565b5080546136a490614430565b6000825580601f106136b657506136d5565b601f0160209004906000526020600020908101906136d4919061375e565b5b50565b8280546136e490614430565b90600052602060002090601f016020900481019282613706576000855561374d565b82601f1061371f57805160ff191683800117855561374d565b8280016001018555821561374d579182015b8281111561374c578251825591602001919060010190613731565b5b50905061375a919061375e565b5090565b5b8082111561377757600081600090555060010161375f565b5090565b600061378e6137898461424b565b614226565b9050828152602081018484840111156137a657600080fd5b6137b18482856143ee565b509392505050565b6000813590506137c881614c0f565b92915050565b6000813590506137dd81614c26565b92915050565b6000813590506137f281614c3d565b92915050565b60008151905061380781614c3d565b92915050565b600082601f83011261381e57600080fd5b813561382e84826020860161377b565b91505092915050565b60008135905061384681614c54565b92915050565b60006020828403121561385e57600080fd5b600061386c848285016137b9565b91505092915050565b6000806040838503121561388857600080fd5b6000613896858286016137b9565b92505060206138a7858286016137b9565b9150509250929050565b6000806000606084860312156138c657600080fd5b60006138d4868287016137b9565b93505060206138e5868287016137b9565b92505060406138f686828701613837565b9150509250925092565b6000806000806080858703121561391657600080fd5b6000613924878288016137b9565b9450506020613935878288016137b9565b935050604061394687828801613837565b925050606085013567ffffffffffffffff81111561396357600080fd5b61396f8782880161380d565b91505092959194509250565b6000806040838503121561398e57600080fd5b600061399c858286016137b9565b92505060206139ad858286016137ce565b9150509250929050565b600080604083850312156139ca57600080fd5b60006139d8858286016137b9565b92505060206139e985828601613837565b9150509250929050565b600060208284031215613a0557600080fd5b6000613a13848285016137e3565b91505092915050565b600060208284031215613a2e57600080fd5b6000613a3c848285016137f8565b91505092915050565b600060208284031215613a5757600080fd5b6000613a6584828501613837565b91505092915050565b613a778161437a565b82525050565b613a868161438c565b82525050565b6000613a978261427c565b613aa18185614292565b9350613ab18185602086016143fd565b613aba816145c9565b840191505092915050565b6000613ad082614287565b613ada81856142a3565b9350613aea8185602086016143fd565b613af3816145c9565b840191505092915050565b6000613b0982614287565b613b1381856142b4565b9350613b238185602086016143fd565b80840191505092915050565b6000613b3c6014836142a3565b9150613b47826145da565b602082019050919050565b6000613b5f602b836142a3565b9150613b6a82614603565b604082019050919050565b6000613b826032836142a3565b9150613b8d82614652565b604082019050919050565b6000613ba56026836142a3565b9150613bb0826146a1565b604082019050919050565b6000613bc8601c836142a3565b9150613bd3826146f0565b602082019050919050565b6000613beb6024836142a3565b9150613bf682614719565b604082019050919050565b6000613c0e6019836142a3565b9150613c1982614768565b602082019050919050565b6000613c31602c836142a3565b9150613c3c82614791565b604082019050919050565b6000613c546010836142a3565b9150613c5f826147e0565b602082019050919050565b6000613c776038836142a3565b9150613c8282614809565b604082019050919050565b6000613c9a602a836142a3565b9150613ca582614858565b604082019050919050565b6000613cbd6029836142a3565b9150613cc8826148a7565b604082019050919050565b6000613ce0602e836142a3565b9150613ceb826148f6565b604082019050919050565b6000613d036020836142a3565b9150613d0e82614945565b602082019050919050565b6000613d266031836142a3565b9150613d318261496e565b604082019050919050565b6000613d49602c836142a3565b9150613d54826149bd565b604082019050919050565b6000613d6c6020836142a3565b9150613d7782614a0c565b602082019050919050565b6000613d8f6029836142a3565b9150613d9a82614a35565b604082019050919050565b6000613db2602f836142a3565b9150613dbd82614a84565b604082019050919050565b6000613dd56021836142a3565b9150613de082614ad3565b604082019050919050565b6000613df86031836142a3565b9150613e0382614b22565b604082019050919050565b6000613e1b602c836142a3565b9150613e2682614b71565b604082019050919050565b6000613e3e6030836142a3565b9150613e4982614bc0565b604082019050919050565b613e5d816143e4565b82525050565b6000613e6f8285613afe565b9150613e7b8284613afe565b91508190509392505050565b6000602082019050613e9c6000830184613a6e565b92915050565b6000608082019050613eb76000830187613a6e565b613ec46020830186613a6e565b613ed16040830185613e54565b8181036060830152613ee38184613a8c565b905095945050505050565b6000602082019050613f036000830184613a7d565b92915050565b60006020820190508181036000830152613f238184613ac5565b905092915050565b60006020820190508181036000830152613f4481613b2f565b9050919050565b60006020820190508181036000830152613f6481613b52565b9050919050565b60006020820190508181036000830152613f8481613b75565b9050919050565b60006020820190508181036000830152613fa481613b98565b9050919050565b60006020820190508181036000830152613fc481613bbb565b9050919050565b60006020820190508181036000830152613fe481613bde565b9050919050565b6000602082019050818103600083015261400481613c01565b9050919050565b6000602082019050818103600083015261402481613c24565b9050919050565b6000602082019050818103600083015261404481613c47565b9050919050565b6000602082019050818103600083015261406481613c6a565b9050919050565b6000602082019050818103600083015261408481613c8d565b9050919050565b600060208201905081810360008301526140a481613cb0565b9050919050565b600060208201905081810360008301526140c481613cd3565b9050919050565b600060208201905081810360008301526140e481613cf6565b9050919050565b6000602082019050818103600083015261410481613d19565b9050919050565b6000602082019050818103600083015261412481613d3c565b9050919050565b6000602082019050818103600083015261414481613d5f565b9050919050565b6000602082019050818103600083015261416481613d82565b9050919050565b6000602082019050818103600083015261418481613da5565b9050919050565b600060208201905081810360008301526141a481613dc8565b9050919050565b600060208201905081810360008301526141c481613deb565b9050919050565b600060208201905081810360008301526141e481613e0e565b9050919050565b6000602082019050818103600083015261420481613e31565b9050919050565b60006020820190506142206000830184613e54565b92915050565b6000614230614241565b905061423c8282614462565b919050565b6000604051905090565b600067ffffffffffffffff8211156142665761426561459a565b5b61426f826145c9565b9050602081019050919050565b600081519050919050565b600081519050919050565b600082825260208201905092915050565b600082825260208201905092915050565b600081905092915050565b60006142ca826143e4565b91506142d5836143e4565b9250827fffffffffffffffffffffffffffffffffffffffffffffffffffffffffffffffff0382111561430a5761430961450d565b5b828201905092915050565b6000614320826143e4565b915061432b836143e4565b92508261433b5761433a61453c565b5b828204905092915050565b6000614351826143e4565b915061435c836143e4565b92508282101561436f5761436e61450d565b5b828203905092915050565b6000614385826143c4565b9050919050565b60008115159050919050565b60007fffffffff0000000000000000000000000000000000000000000000000000000082169050919050565b600073ffffffffffffffffffffffffffffffffffffffff82169050919050565b6000819050919050565b82818337600083830152505050565b60005b8381101561441b578082015181840152602081019050614400565b8381111561442a576000848401525b50505050565b6000600282049050600182168061444857607f821691505b6020821081141561445c5761445b61456b565b5b50919050565b61446b826145c9565b810181811067ffffffffffffffff8211171561448a5761448961459a565b5b80604052505050565b600061449e826143e4565b91507fffffffffffffffffffffffffffffffffffffffffffffffffffffffffffffffff8214156144d1576144d061450d565b5b600182019050919050565b60006144e7826143e4565b91506144f2836143e4565b9250826145025761450161453c565b5b828206905092915050565b7f4e487b7100000000000000000000000000000000000000000000000000000000600052601160045260246000fd5b7f4e487b7100000000000000000000000000000000000000000000000000000000600052601260045260246000fd5b7f4e487b7100000000000000000000000000000000000000000000000000000000600052602260045260246000fd5b7f4e487b7100000000000000000000000000000000000000000000000000000000600052604160045260246000fd5b6000601f19601f8301169050919050565b7f5061757361626c653a206e6f7420706175736564000000000000000000000000600082015250565b7f455243373231456e756d657261626c653a206f776e657220696e646578206f7560008201527f74206f6620626f756e6473000000000000000000000000000000000000000000602082015250565b7f4552433732313a207472616e7366657220746f206e6f6e20455243373231526560008201527f63656976657220696d706c656d656e7465720000000000000000000000000000602082015250565b7f4f776e61626c653a206e6577206f776e657220697320746865207a65726f206160008201527f6464726573730000000000000000000000000000000000000000000000000000602082015250565b7f4552433732313a20746f6b656e20616c7265616479206d696e74656400000000600082015250565b7f4552433732313a207472616e7366657220746f20746865207a65726f2061646460008201527f7265737300000000000000000000000000000000000000000000000000000000602082015250565b7f4552433732313a20617070726f766520746f2063616c6c657200000000000000600082015250565b7f4552433732313a206f70657261746f7220717565727920666f72206e6f6e657860008201527f697374656e7420746f6b656e0000000000000000000000000000000000000000602082015250565b7f5061757361626c653a2070617573656400000000000000000000000000000000600082015250565b7f4552433732313a20617070726f76652063616c6c6572206973206e6f74206f7760008201527f6e6572206e6f7220617070726f76656420666f7220616c6c0000000000000000602082015250565b7f4552433732313a2062616c616e636520717565727920666f7220746865207a6560008201527f726f206164647265737300000000000000000000000000000000000000000000602082015250565b7f4552433732313a206f776e657220717565727920666f72206e6f6e657869737460008201527f656e7420746f6b656e0000000000000000000000000000000000000000000000602082015250565b7f496e697469616c697a61626c653a20636f6e747261637420697320616c72656160008201527f647920696e697469616c697a6564000000000000000000000000000000000000602082015250565b7f4552433732313a206d696e7420746f20746865207a65726f2061646472657373600082015250565b7f45524337323155524953746f726167653a2055524920717565727920666f722060008201527f6e6f6e6578697374656e7420746f6b656e000000000000000000000000000000602082015250565b7f4552433732313a20617070726f76656420717565727920666f72206e6f6e657860008201527f697374656e7420746f6b656e0000000000000000000000000000000000000000602082015250565b7f4f776e61626c653a2063616c6c6572206973206e6f7420746865206f776e6572600082015250565b7f4552433732313a207472616e73666572206f6620746f6b656e2074686174206960008201527f73206e6f74206f776e0000000000000000000000000000000000000000000000602082015250565b7f4552433732314d657461646174613a2055524920717565727920666f72206e6f60008201527f6e6578697374656e7420746f6b656e0000000000000000000000000000000000602082015250565b7f4552433732313a20617070726f76616c20746f2063757272656e74206f776e6560008201527f7200000000000000000000000000000000000000000000000000000000000000602082015250565b7f4552433732313a207472616e736665722063616c6c6572206973206e6f74206f60008201527f776e6572206e6f7220617070726f766564000000000000000000000000000000602082015250565b7f455243373231456e756d657261626c653a20676c6f62616c20696e646578206f60008201527f7574206f6620626f756e64730000000000000000000000000000000000000000602082015250565b7f4552433732314275726e61626c653a2063616c6c6572206973206e6f74206f7760008201527f6e6572206e6f7220617070726f76656400000000000000000000000000000000602082015250565b614c188161437a565b8114614c2357600080fd5b50565b614c2f8161438c565b8114614c3a57600080fd5b50565b614c4681614398565b8114614c5157600080fd5b50565b614c5d816143e4565b8114614c6857600080fd5b5056fe68747470733a2f2f676174657761792e70696e6174612e636c6f75642f697066732f516d58686d7242696d6f66614e66425a466d337a654564446a626b46394a38436f7339346935484d4442334d4463a2646970667358221220bb2d4b12c8d198b0b48660fdad881b704488eeed3dfa940bf9e61094179579c164736f6c63430008020033",
  "immutableReferences": {},
  "source": "// SPDX-License-Identifier: MIT\r\npragma solidity ^0.8.2;\r\n\r\nimport \"./@openzeppelin/contracts-upgradeable/token/ERC721/ERC721Upgradeable.sol\";\r\nimport \"./@openzeppelin/contracts-upgradeable/token/ERC721/extensions/ERC721EnumerableUpgradeable.sol\";\r\nimport \"./@openzeppelin/contracts-upgradeable/token/ERC721/extensions/ERC721URIStorageUpgradeable.sol\";\r\nimport \"./@openzeppelin/contracts-upgradeable/security/PausableUpgradeable.sol\";\r\nimport \"./@openzeppelin/contracts-upgradeable/access/OwnableUpgradeable.sol\";\r\nimport \"./@openzeppelin/contracts-upgradeable/token/ERC721/extensions/ERC721BurnableUpgradeable.sol\";\r\nimport \"./@openzeppelin/contracts-upgradeable/proxy/utils/Initializable.sol\";\r\nimport \"./@openzeppelin/contracts-upgradeable/utils/CountersUpgradeable.sol\";\r\n\r\ncontract CryptoIsland is\r\n    Initializable,\r\n    ERC721Upgradeable,\r\n    ERC721EnumerableUpgradeable,\r\n    ERC721URIStorageUpgradeable,\r\n    PausableUpgradeable,\r\n    OwnableUpgradeable,\r\n    ERC721BurnableUpgradeable\r\n{\r\n    using CountersUpgradeable for CountersUpgradeable.Counter;\r\n\r\n    CountersUpgradeable.Counter private _tokenIdCounter;\r\n\r\n    function initialize() public initializer {\r\n        __ERC721_init(\"CryptoIsland\", \"WOO\");\r\n        __ERC721Enumerable_init();\r\n        __ERC721URIStorage_init();\r\n        __Pausable_init();\r\n        __Ownable_init();\r\n        __ERC721Burnable_init();\r\n    }\r\n\r\n    function safeMint(address to) public payable {\r\n        _safeMint(to, _tokenIdCounter.current());\r\n        _tokenIdCounter.increment();\r\n    }\r\n\r\n    function pause() public onlyOwner {\r\n        _pause();\r\n    }\r\n\r\n    function unpause() public onlyOwner {\r\n        _unpause();\r\n    }\r\n\r\n    function _baseURI() internal pure override returns (string memory) {\r\n        return\r\n            \"https://gateway.pinata.cloud/ipfs/QmXhmrBimofaNfBZFm3zeEdDjbkF9J8Cos94i5HMDB3MDc\";\r\n    }\r\n\r\n    function _beforeTokenTransfer(\r\n        address from,\r\n        address to,\r\n        uint256 tokenId\r\n    )\r\n        internal\r\n        override(ERC721Upgradeable, ERC721EnumerableUpgradeable)\r\n        whenNotPaused\r\n    {\r\n        super._beforeTokenTransfer(from, to, tokenId);\r\n    }\r\n\r\n    function _burn(uint256 tokenId)\r\n        internal\r\n        override(ERC721Upgradeable, ERC721URIStorageUpgradeable)\r\n    {\r\n        super._burn(tokenId);\r\n    }\r\n\r\n    function tokenURI(uint256 tokenId)\r\n        public\r\n        view\r\n        override(ERC721Upgradeable, ERC721URIStorageUpgradeable)\r\n        returns (string memory)\r\n    {\r\n        return super.tokenURI(tokenId);\r\n    }\r\n\r\n    function supportsInterface(bytes4 interfaceId)\r\n        public\r\n        view\r\n        override(ERC721Upgradeable, ERC721EnumerableUpgradeable)\r\n        returns (bool)\r\n    {\r\n        return super.supportsInterface(interfaceId);\r\n    }\r\n}\r\n",
  "sourcePath": "C:\\CryptoIsland\\contracts\\CryptoIsland.sol",
  "compiler": {
    "name": "solc",
    "version": "0.8.2+commit.661d1103.Emscripten.clang"
  },
  "schemaVersion": "3.4.8",
  "updatedAt": "2022-08-03T05:23:30.257Z",
  "devdoc": {
    "kind": "dev",
    "methods": {
      "approve(address,uint256)": {
        "details": "See {IERC721-approve}."
      },
      "balanceOf(address)": {
        "details": "See {IERC721-balanceOf}."
      },
      "burn(uint256)": {
        "details": "Burns `tokenId`. See {ERC721-_burn}. Requirements: - The caller must own `tokenId` or be an approved operator."
      },
      "getApproved(uint256)": {
        "details": "See {IERC721-getApproved}."
      },
      "isApprovedForAll(address,address)": {
        "details": "See {IERC721-isApprovedForAll}."
      },
      "name()": {
        "details": "See {IERC721Metadata-name}."
      },
      "owner()": {
        "details": "Returns the address of the current owner."
      },
      "ownerOf(uint256)": {
        "details": "See {IERC721-ownerOf}."
      },
      "paused()": {
        "details": "Returns true if the contract is paused, and false otherwise."
      },
      "renounceOwnership()": {
        "details": "Leaves the contract without owner. It will not be possible to call `onlyOwner` functions anymore. Can only be called by the current owner. NOTE: Renouncing ownership will leave the contract without an owner, thereby removing any functionality that is only available to the owner."
      },
      "safeTransferFrom(address,address,uint256)": {
        "details": "See {IERC721-safeTransferFrom}."
      },
      "safeTransferFrom(address,address,uint256,bytes)": {
        "details": "See {IERC721-safeTransferFrom}."
      },
      "setApprovalForAll(address,bool)": {
        "details": "See {IERC721-setApprovalForAll}."
      },
      "symbol()": {
        "details": "See {IERC721Metadata-symbol}."
      },
      "tokenByIndex(uint256)": {
        "details": "See {IERC721Enumerable-tokenByIndex}."
      },
      "tokenOfOwnerByIndex(address,uint256)": {
        "details": "See {IERC721Enumerable-tokenOfOwnerByIndex}."
      },
      "totalSupply()": {
        "details": "See {IERC721Enumerable-totalSupply}."
      },
      "transferFrom(address,address,uint256)": {
        "details": "See {IERC721-transferFrom}."
      },
      "transferOwnership(address)": {
        "details": "Transfers ownership of the contract to a new account (`newOwner`). Can only be called by the current owner."
      }
    },
    "version": 1
  },
  "userdoc": {
    "kind": "user",
    "methods": {},
    "version": 1
  }
}