{
  "contractName": "CryptoIsland",
  "abi": [
    {
      "anonymous": false,
      "inputs": [
        {
          "indexed": true,
          "internalType": "address",
          "name": "owner",
          "type": "address"
        },
        {
          "indexed": true,
          "internalType": "address",
          "name": "approved",
          "type": "address"
        },
        {
          "indexed": true,
          "internalType": "uint256",
          "name": "tokenId",
          "type": "uint256"
        }
      ],
      "name": "Approval",
      "type": "event"
    },
    {
      "anonymous": false,
      "inputs": [
        {
          "indexed": true,
          "internalType": "address",
          "name": "owner",
          "type": "address"
        },
        {
          "indexed": true,
          "internalType": "address",
          "name": "operator",
          "type": "address"
        },
        {
          "indexed": false,
          "internalType": "bool",
          "name": "approved",
          "type": "bool"
        }
      ],
      "name": "ApprovalForAll",
      "type": "event"
    },
    {
      "anonymous": false,
      "inputs": [
        {
          "indexed": false,
          "internalType": "uint8",
          "name": "version",
          "type": "uint8"
        }
      ],
      "name": "Initialized",
      "type": "event"
    },
    {
      "anonymous": false,
      "inputs": [
        {
          "indexed": true,
          "internalType": "address",
          "name": "previousOwner",
          "type": "address"
        },
        {
          "indexed": true,
          "internalType": "address",
          "name": "newOwner",
          "type": "address"
        }
      ],
      "name": "OwnershipTransferred",
      "type": "event"
    },
    {
      "anonymous": false,
      "inputs": [
        {
          "indexed": false,
          "internalType": "address",
          "name": "account",
          "type": "address"
        }
      ],
      "name": "Paused",
      "type": "event"
    },
    {
      "anonymous": false,
      "inputs": [
        {
          "indexed": true,
          "internalType": "address",
          "name": "from",
          "type": "address"
        },
        {
          "indexed": true,
          "internalType": "address",
          "name": "to",
          "type": "address"
        },
        {
          "indexed": true,
          "internalType": "uint256",
          "name": "tokenId",
          "type": "uint256"
        }
      ],
      "name": "Transfer",
      "type": "event"
    },
    {
      "anonymous": false,
      "inputs": [
        {
          "indexed": false,
          "internalType": "address",
          "name": "account",
          "type": "address"
        }
      ],
      "name": "Unpaused",
      "type": "event"
    },
    {
      "inputs": [
        {
          "internalType": "address",
          "name": "to",
          "type": "address"
        },
        {
          "internalType": "uint256",
          "name": "tokenId",
          "type": "uint256"
        }
      ],
      "name": "approve",
      "outputs": [],
      "stateMutability": "nonpayable",
      "type": "function"
    },
    {
      "inputs": [
        {
          "internalType": "address",
          "name": "owner",
          "type": "address"
        }
      ],
      "name": "balanceOf",
      "outputs": [
        {
          "internalType": "uint256",
          "name": "",
          "type": "uint256"
        }
      ],
      "stateMutability": "view",
      "type": "function",
      "constant": true
    },
    {
      "inputs": [
        {
          "internalType": "uint256",
          "name": "tokenId",
          "type": "uint256"
        }
      ],
      "name": "burn",
      "outputs": [],
      "stateMutability": "nonpayable",
      "type": "function"
    },
    {
      "inputs": [
        {
          "internalType": "uint256",
          "name": "tokenId",
          "type": "uint256"
        }
      ],
      "name": "getApproved",
      "outputs": [
        {
          "internalType": "address",
          "name": "",
          "type": "address"
        }
      ],
      "stateMutability": "view",
      "type": "function",
      "constant": true
    },
    {
      "inputs": [
        {
          "internalType": "address",
          "name": "owner",
          "type": "address"
        },
        {
          "internalType": "address",
          "name": "operator",
          "type": "address"
        }
      ],
      "name": "isApprovedForAll",
      "outputs": [
        {
          "internalType": "bool",
          "name": "",
          "type": "bool"
        }
      ],
      "stateMutability": "view",
      "type": "function",
      "constant": true
    },
    {
      "inputs": [],
      "name": "name",
      "outputs": [
        {
          "internalType": "string",
          "name": "",
          "type": "string"
        }
      ],
      "stateMutability": "view",
      "type": "function",
      "constant": true
    },
    {
      "inputs": [],
      "name": "owner",
      "outputs": [
        {
          "internalType": "address",
          "name": "",
          "type": "address"
        }
      ],
      "stateMutability": "view",
      "type": "function",
      "constant": true
    },
    {
      "inputs": [
        {
          "internalType": "uint256",
          "name": "tokenId",
          "type": "uint256"
        }
      ],
      "name": "ownerOf",
      "outputs": [
        {
          "internalType": "address",
          "name": "",
          "type": "address"
        }
      ],
      "stateMutability": "view",
      "type": "function",
      "constant": true
    },
    {
      "inputs": [],
      "name": "paused",
      "outputs": [
        {
          "internalType": "bool",
          "name": "",
          "type": "bool"
        }
      ],
      "stateMutability": "view",
      "type": "function",
      "constant": true
    },
    {
      "inputs": [],
      "name": "renounceOwnership",
      "outputs": [],
      "stateMutability": "nonpayable",
      "type": "function"
    },
    {
      "inputs": [
        {
          "internalType": "address",
          "name": "from",
          "type": "address"
        },
        {
          "internalType": "address",
          "name": "to",
          "type": "address"
        },
        {
          "internalType": "uint256",
          "name": "tokenId",
          "type": "uint256"
        }
      ],
      "name": "safeTransferFrom",
      "outputs": [],
      "stateMutability": "nonpayable",
      "type": "function"
    },
    {
      "inputs": [
        {
          "internalType": "address",
          "name": "from",
          "type": "address"
        },
        {
          "internalType": "address",
          "name": "to",
          "type": "address"
        },
        {
          "internalType": "uint256",
          "name": "tokenId",
          "type": "uint256"
        },
        {
          "internalType": "bytes",
          "name": "data",
          "type": "bytes"
        }
      ],
      "name": "safeTransferFrom",
      "outputs": [],
      "stateMutability": "nonpayable",
      "type": "function"
    },
    {
      "inputs": [
        {
          "internalType": "address",
          "name": "operator",
          "type": "address"
        },
        {
          "internalType": "bool",
          "name": "approved",
          "type": "bool"
        }
      ],
      "name": "setApprovalForAll",
      "outputs": [],
      "stateMutability": "nonpayable",
      "type": "function"
    },
    {
      "inputs": [],
      "name": "symbol",
      "outputs": [
        {
          "internalType": "string",
          "name": "",
          "type": "string"
        }
      ],
      "stateMutability": "view",
      "type": "function",
      "constant": true
    },
    {
      "inputs": [
        {
          "internalType": "uint256",
          "name": "index",
          "type": "uint256"
        }
      ],
      "name": "tokenByIndex",
      "outputs": [
        {
          "internalType": "uint256",
          "name": "",
          "type": "uint256"
        }
      ],
      "stateMutability": "view",
      "type": "function",
      "constant": true
    },
    {
      "inputs": [
        {
          "internalType": "address",
          "name": "owner",
          "type": "address"
        },
        {
          "internalType": "uint256",
          "name": "index",
          "type": "uint256"
        }
      ],
      "name": "tokenOfOwnerByIndex",
      "outputs": [
        {
          "internalType": "uint256",
          "name": "",
          "type": "uint256"
        }
      ],
      "stateMutability": "view",
      "type": "function",
      "constant": true
    },
    {
      "inputs": [],
      "name": "totalSupply",
      "outputs": [
        {
          "internalType": "uint256",
          "name": "",
          "type": "uint256"
        }
      ],
      "stateMutability": "view",
      "type": "function",
      "constant": true
    },
    {
      "inputs": [
        {
          "internalType": "address",
          "name": "from",
          "type": "address"
        },
        {
          "internalType": "address",
          "name": "to",
          "type": "address"
        },
        {
          "internalType": "uint256",
          "name": "tokenId",
          "type": "uint256"
        }
      ],
      "name": "transferFrom",
      "outputs": [],
      "stateMutability": "nonpayable",
      "type": "function"
    },
    {
      "inputs": [
        {
          "internalType": "address",
          "name": "newOwner",
          "type": "address"
        }
      ],
      "name": "transferOwnership",
      "outputs": [],
      "stateMutability": "nonpayable",
      "type": "function"
    },
    {
      "inputs": [],
      "name": "initialize",
      "outputs": [],
      "stateMutability": "nonpayable",
      "type": "function"
    },
    {
      "inputs": [
        {
          "internalType": "address",
          "name": "to",
          "type": "address"
        }
      ],
      "name": "safeMint",
      "outputs": [],
      "stateMutability": "payable",
      "type": "function",
      "payable": true
    },
    {
      "inputs": [],
      "name": "pause",
      "outputs": [],
      "stateMutability": "nonpayable",
      "type": "function"
    },
    {
      "inputs": [
        {
          "internalType": "uint256",
          "name": "tokenId",
          "type": "uint256"
        }
      ],
      "name": "tokenURI",
      "outputs": [
        {
          "internalType": "string",
          "name": "",
          "type": "string"
        }
      ],
      "stateMutability": "view",
      "type": "function",
      "constant": true
    },
    {
      "inputs": [
        {
          "internalType": "bytes4",
          "name": "interfaceId",
          "type": "bytes4"
        }
      ],
      "name": "supportsInterface",
      "outputs": [
        {
          "internalType": "bool",
          "name": "",
          "type": "bool"
        }
      ],
      "stateMutability": "view",
      "type": "function",
      "constant": true
    },
    {
      "inputs": [
        {
          "internalType": "address",
          "name": "_owner",
          "type": "address"
        }
      ],
      "name": "tokensOfOwner",
      "outputs": [
        {
          "internalType": "uint256[]",
          "name": "",
          "type": "uint256[]"
        }
      ],
      "stateMutability": "view",
      "type": "function",
      "constant": true
    },
    {
      "inputs": [],
      "name": "withdraw",
      "outputs": [],
      "stateMutability": "payable",
      "type": "function",
      "payable": true
    }
  ],
  "bytecode": "0x608060405234801561001057600080fd5b50614101806100206000396000f3fe6080604052600436106101815760003560e01c80636352211e116100d15780638da5cb5b1161008a578063b88d4fde11610064578063b88d4fde14610540578063c87b56dd14610569578063e985e9c5146105a6578063f2fde38b146105e357610181565b80638da5cb5b146104c157806395d89b41146104ec578063a22cb4651461051757610181565b80636352211e146103c557806370a0823114610402578063715018a61461043f5780638129fc1c146104565780638456cb591461046d5780638462151c1461048457610181565b80632f745c591161013e57806342842e0e1161011857806342842e0e1461030b57806342966c68146103345780634f6ccce71461035d5780635c975abb1461039a57610181565b80632f745c59146102a85780633ccfd60b146102e557806340d097c3146102ef57610181565b806301ffc9a71461018657806306fdde03146101c3578063081812fc146101ee578063095ea7b31461022b57806318160ddd1461025457806323b872dd1461027f575b600080fd5b34801561019257600080fd5b506101ad60048036038101906101a89190612e8d565b61060c565b6040516101ba919061340d565b60405180910390f35b3480156101cf57600080fd5b506101d861061e565b6040516101e59190613443565b60405180910390f35b3480156101fa57600080fd5b5061021560048036038101906102109190612edf565b6106b0565b6040516102229190613384565b60405180910390f35b34801561023757600080fd5b50610252600480360381019061024d9190612e51565b6106f6565b005b34801561026057600080fd5b5061026961080e565b60405161027691906136e5565b60405180910390f35b34801561028b57600080fd5b506102a660048036038101906102a19190612d4b565b61081b565b005b3480156102b457600080fd5b506102cf60048036038101906102ca9190612e51565b61087b565b6040516102dc91906136e5565b60405180910390f35b6102ed610920565b005b61030960048036038101906103049190612ce6565b610a20565b005b34801561031757600080fd5b50610332600480360381019061032d9190612d4b565b610a42565b005b34801561034057600080fd5b5061035b60048036038101906103569190612edf565b610a62565b005b34801561036957600080fd5b50610384600480360381019061037f9190612edf565b610abe565b60405161039191906136e5565b60405180910390f35b3480156103a657600080fd5b506103af610b55565b6040516103bc919061340d565b60405180910390f35b3480156103d157600080fd5b506103ec60048036038101906103e79190612edf565b610b6d565b6040516103f99190613384565b60405180910390f35b34801561040e57600080fd5b5061042960048036038101906104249190612ce6565b610c1f565b60405161043691906136e5565b60405180910390f35b34801561044b57600080fd5b50610454610cd7565b005b34801561046257600080fd5b5061046b610ceb565b005b34801561047957600080fd5b50610482610e49565b005b34801561049057600080fd5b506104ab60048036038101906104a69190612ce6565b610e5b565b6040516104b891906133eb565b60405180910390f35b3480156104cd57600080fd5b506104d6610f55565b6040516104e39190613384565b60405180910390f35b3480156104f857600080fd5b50610501610f80565b60405161050e9190613443565b60405180910390f35b34801561052357600080fd5b5061053e60048036038101906105399190612e15565b611012565b005b34801561054c57600080fd5b5061056760048036038101906105629190612d9a565b611028565b005b34801561057557600080fd5b50610590600480360381019061058b9190612edf565b61108a565b60405161059d9190613443565b60405180910390f35b3480156105b257600080fd5b506105cd60048036038101906105c89190612d0f565b61109c565b6040516105da919061340d565b60405180910390f35b3480156105ef57600080fd5b5061060a60048036038101906106059190612ce6565b611130565b005b6000610617826111b4565b9050919050565b60606065805461062d9061396d565b80601f01602080910402602001604051908101604052809291908181526020018280546106599061396d565b80156106a65780601f1061067b576101008083540402835291602001916106a6565b820191906000526020600020905b81548152906001019060200180831161068957829003601f168201915b5050505050905090565b60006106bb8261122e565b6069600083815260200190815260200160002060009054906101000a900473ffffffffffffffffffffffffffffffffffffffff169050919050565b600061070182610b6d565b90508073ffffffffffffffffffffffffffffffffffffffff168373ffffffffffffffffffffffffffffffffffffffff161415610772576040517f08c379a000000000000000000000000000000000000000000000000000000000815260040161076990613645565b60405180910390fd5b8073ffffffffffffffffffffffffffffffffffffffff16610791611279565b73ffffffffffffffffffffffffffffffffffffffff1614806107c057506107bf816107ba611279565b61109c565b5b6107ff576040517f08c379a00000000000000000000000000000000000000000000000000000000081526004016107f6906135a5565b60405180910390fd5b6108098383611281565b505050565b6000609980549050905090565b61082c610826611279565b8261133a565b61086b576040517f08c379a0000000000000000000000000000000000000000000000000000000008152600401610862906136c5565b60405180910390fd5b6108768383836113cf565b505050565b600061088683610c1f565b82106108c7576040517f08c379a00000000000000000000000000000000000000000000000000000000081526004016108be90613485565b60405180910390fd5b609760008473ffffffffffffffffffffffffffffffffffffffff1673ffffffffffffffffffffffffffffffffffffffff168152602001908152602001600020600083815260200190815260200160002054905092915050565b610928611636565b600047905060008111610970576040517f08c379a0000000000000000000000000000000000000000000000000000000008152600401610967906135e5565b60405180910390fd5b60003373ffffffffffffffffffffffffffffffffffffffff16826040516109969061336f565b60006040518083038185875af1925050503d80600081146109d3576040519150601f19603f3d011682016040523d82523d6000602084013e6109d8565b606091505b5050905080610a1c576040517f08c379a0000000000000000000000000000000000000000000000000000000008152600401610a1390613665565b60405180910390fd5b5050565b610a3481610a2f6101916116b4565b6116c2565b610a3f6101916116e0565b50565b610a5d83838360405180602001604052806000815250611028565b505050565b610a73610a6d611279565b8261133a565b610ab2576040517f08c379a0000000000000000000000000000000000000000000000000000000008152600401610aa9906136c5565b60405180910390fd5b610abb816116f6565b50565b6000610ac861080e565b8210610b09576040517f08c379a0000000000000000000000000000000000000000000000000000000008152600401610b0090613685565b60405180910390fd5b60998281548110610b43577f4e487b7100000000000000000000000000000000000000000000000000000000600052603260045260246000fd5b90600052602060002001549050919050565b600061012d60009054906101000a900460ff16905090565b6000806067600084815260200190815260200160002060009054906101000a900473ffffffffffffffffffffffffffffffffffffffff169050600073ffffffffffffffffffffffffffffffffffffffff168173ffffffffffffffffffffffffffffffffffffffff161415610c16576040517f08c379a0000000000000000000000000000000000000000000000000000000008152600401610c0d90613625565b60405180910390fd5b80915050919050565b60008073ffffffffffffffffffffffffffffffffffffffff168273ffffffffffffffffffffffffffffffffffffffff161415610c90576040517f08c379a0000000000000000000000000000000000000000000000000000000008152600401610c8790613565565b60405180910390fd5b606860008373ffffffffffffffffffffffffffffffffffffffff1673ffffffffffffffffffffffffffffffffffffffff168152602001908152602001600020549050919050565b610cdf611636565b610ce96000611702565b565b60008060019054906101000a900460ff16159050808015610d1c5750600160008054906101000a900460ff1660ff16105b80610d495750610d2b306117ca565b158015610d485750600160008054906101000a900460ff1660ff16145b5b610d88576040517f08c379a0000000000000000000000000000000000000000000000000000000008152600401610d7f90613585565b60405180910390fd5b60016000806101000a81548160ff021916908360ff1602179055508015610dc5576001600060016101000a81548160ff0219169083151502179055505b610dcd6117ed565b610dd561183e565b610ddd61188f565b610de56118e0565b610ded611939565b8015610e465760008060016101000a81548160ff0219169083151502179055507f7f26b83ff96e1f2b6a682f133852f6798a09c465da95921460cefb38474024986001604051610e3d9190613428565b60405180910390a15b50565b610e51611636565b610e59611992565b565b60606000610e6883610c1f565b905060008167ffffffffffffffff811115610eac577f4e487b7100000000000000000000000000000000000000000000000000000000600052604160045260246000fd5b604051908082528060200260200182016040528015610eda5781602001602082028036833780820191505090505b50905060005b82811015610f4a57610ef2858261087b565b828281518110610f2b577f4e487b7100000000000000000000000000000000000000000000000000000000600052603260045260246000fd5b6020026020010181815250508080610f42906139d0565b915050610ee0565b508092505050919050565b600061015f60009054906101000a900473ffffffffffffffffffffffffffffffffffffffff16905090565b606060668054610f8f9061396d565b80601f0160208091040260200160405190810160405280929190818152602001828054610fbb9061396d565b80156110085780601f10610fdd57610100808354040283529160200191611008565b820191906000526020600020905b815481529060010190602001808311610feb57829003601f168201915b5050505050905090565b61102461101d611279565b83836119f6565b5050565b611039611033611279565b8361133a565b611078576040517f08c379a000000000000000000000000000000000000000000000000000000000815260040161106f906136c5565b60405180910390fd5b61108484848484611b63565b50505050565b606061109582611bbf565b9050919050565b6000606a60008473ffffffffffffffffffffffffffffffffffffffff1673ffffffffffffffffffffffffffffffffffffffff16815260200190815260200160002060008373ffffffffffffffffffffffffffffffffffffffff1673ffffffffffffffffffffffffffffffffffffffff16815260200190815260200160002060009054906101000a900460ff16905092915050565b611138611636565b600073ffffffffffffffffffffffffffffffffffffffff168173ffffffffffffffffffffffffffffffffffffffff1614156111a8576040517f08c379a000000000000000000000000000000000000000000000000000000000815260040161119f906134c5565b60405180910390fd5b6111b181611702565b50565b60007f780e9d63000000000000000000000000000000000000000000000000000000007bffffffffffffffffffffffffffffffffffffffffffffffffffffffff1916827bffffffffffffffffffffffffffffffffffffffffffffffffffffffff19161480611227575061122682611cd2565b5b9050919050565b61123781611db4565b611276576040517f08c379a000000000000000000000000000000000000000000000000000000000815260040161126d90613625565b60405180910390fd5b50565b600033905090565b816069600083815260200190815260200160002060006101000a81548173ffffffffffffffffffffffffffffffffffffffff021916908373ffffffffffffffffffffffffffffffffffffffff160217905550808273ffffffffffffffffffffffffffffffffffffffff166112f483610b6d565b73ffffffffffffffffffffffffffffffffffffffff167f8c5be1e5ebec7d5bd14f71427d1e84f3dd0314c0f7b2291e5b200ac8c7c3b92560405160405180910390a45050565b60008061134683610b6d565b90508073ffffffffffffffffffffffffffffffffffffffff168473ffffffffffffffffffffffffffffffffffffffff1614806113885750611387818561109c565b5b806113c657508373ffffffffffffffffffffffffffffffffffffffff166113ae846106b0565b73ffffffffffffffffffffffffffffffffffffffff16145b91505092915050565b8273ffffffffffffffffffffffffffffffffffffffff166113ef82610b6d565b73ffffffffffffffffffffffffffffffffffffffff1614611445576040517f08c379a000000000000000000000000000000000000000000000000000000000815260040161143c906134e5565b60405180910390fd5b600073ffffffffffffffffffffffffffffffffffffffff168273ffffffffffffffffffffffffffffffffffffffff1614156114b5576040517f08c379a00000000000000000000000000000000000000000000000000000000081526004016114ac90613525565b60405180910390fd5b6114c0838383611e20565b6114cb600082611281565b6001606860008573ffffffffffffffffffffffffffffffffffffffff1673ffffffffffffffffffffffffffffffffffffffff168152602001908152602001600020600082825461151b9190613864565b925050819055506001606860008473ffffffffffffffffffffffffffffffffffffffff1673ffffffffffffffffffffffffffffffffffffffff168152602001908152602001600020600082825461157291906137dd565b92505081905550816067600083815260200190815260200160002060006101000a81548173ffffffffffffffffffffffffffffffffffffffff021916908373ffffffffffffffffffffffffffffffffffffffff160217905550808273ffffffffffffffffffffffffffffffffffffffff168473ffffffffffffffffffffffffffffffffffffffff167fddf252ad1be2c89b69c2b068fc378daa952ba7f163c4a11628f55a4df523b3ef60405160405180910390a4611631838383611e30565b505050565b61163e611279565b73ffffffffffffffffffffffffffffffffffffffff1661165c610f55565b73ffffffffffffffffffffffffffffffffffffffff16146116b2576040517f08c379a00000000000000000000000000000000000000000000000000000000081526004016116a990613605565b60405180910390fd5b565b600081600001549050919050565b6116dc828260405180602001604052806000815250611e35565b5050565b6001816000016000828254019250508190555050565b6116ff81611e90565b50565b600061015f60009054906101000a900473ffffffffffffffffffffffffffffffffffffffff1690508161015f60006101000a81548173ffffffffffffffffffffffffffffffffffffffff021916908373ffffffffffffffffffffffffffffffffffffffff1602179055508173ffffffffffffffffffffffffffffffffffffffff168173ffffffffffffffffffffffffffffffffffffffff167f8be0079c531659141344cd1fd0a4f28419497f9722a3daafe3b4186f6b6457e060405160405180910390a35050565b6000808273ffffffffffffffffffffffffffffffffffffffff163b119050919050565b600060019054906101000a900460ff1661183c576040517f08c379a0000000000000000000000000000000000000000000000000000000008152600401611833906136a5565b60405180910390fd5b565b600060019054906101000a900460ff1661188d576040517f08c379a0000000000000000000000000000000000000000000000000000000008152600401611884906136a5565b60405180910390fd5b565b600060019054906101000a900460ff166118de576040517f08c379a00000000000000000000000000000000000000000000000000000000081526004016118d5906136a5565b60405180910390fd5b565b600060019054906101000a900460ff1661192f576040517f08c379a0000000000000000000000000000000000000000000000000000000008152600401611926906136a5565b60405180910390fd5b611937611ee3565b565b600060019054906101000a900460ff16611988576040517f08c379a000000000000000000000000000000000000000000000000000000000815260040161197f906136a5565b60405180910390fd5b611990611f50565b565b61199a611fb1565b600061012d60006101000a81548160ff0219169083151502179055507f5db9ee0a495bf2e6ff9c91a7834c1ba4fdd244a5e8aa4e537bd38aeae4b073aa6119df611279565b6040516119ec9190613384565b60405180910390a1565b8173ffffffffffffffffffffffffffffffffffffffff168373ffffffffffffffffffffffffffffffffffffffff161415611a65576040517f08c379a0000000000000000000000000000000000000000000000000000000008152600401611a5c90613545565b60405180910390fd5b80606a60008573ffffffffffffffffffffffffffffffffffffffff1673ffffffffffffffffffffffffffffffffffffffff16815260200190815260200160002060008473ffffffffffffffffffffffffffffffffffffffff1673ffffffffffffffffffffffffffffffffffffffff16815260200190815260200160002060006101000a81548160ff0219169083151502179055508173ffffffffffffffffffffffffffffffffffffffff168373ffffffffffffffffffffffffffffffffffffffff167f17307eab39ab6107e8899845ad3d59bd9653f200f220920489ca2b5937696c3183604051611b56919061340d565b60405180910390a3505050565b611b6e8484846113cf565b611b7a84848484611ffa565b611bb9576040517f08c379a0000000000000000000000000000000000000000000000000000000008152600401611bb0906134a5565b60405180910390fd5b50505050565b6060611bca8261122e565b600060c960008481526020019081526020016000208054611bea9061396d565b80601f0160208091040260200160405190810160405280929190818152602001828054611c169061396d565b8015611c635780601f10611c3857610100808354040283529160200191611c63565b820191906000526020600020905b815481529060010190602001808311611c4657829003601f168201915b505050505090506000611c74612191565b9050600081511415611c8a578192505050611ccd565b600082511115611cbf578082604051602001611ca792919061334b565b60405160208183030381529060405292505050611ccd565b611cc8846121b1565b925050505b919050565b60007f80ac58cd000000000000000000000000000000000000000000000000000000007bffffffffffffffffffffffffffffffffffffffffffffffffffffffff1916827bffffffffffffffffffffffffffffffffffffffffffffffffffffffff19161480611d9d57507f5b5e139f000000000000000000000000000000000000000000000000000000007bffffffffffffffffffffffffffffffffffffffffffffffffffffffff1916827bffffffffffffffffffffffffffffffffffffffffffffffffffffffff1916145b80611dad5750611dac82612219565b5b9050919050565b60008073ffffffffffffffffffffffffffffffffffffffff166067600084815260200190815260200160002060009054906101000a900473ffffffffffffffffffffffffffffffffffffffff1673ffffffffffffffffffffffffffffffffffffffff1614159050919050565b611e2b838383612283565b505050565b505050565b611e3f8383612397565b611e4c6000848484611ffa565b611e8b576040517f08c379a0000000000000000000000000000000000000000000000000000000008152600401611e82906134a5565b60405180910390fd5b505050565b611e9981612571565b600060c960008381526020019081526020016000208054611eb99061396d565b905014611ee05760c960008281526020019081526020016000206000611edf9190612bb8565b5b50565b600060019054906101000a900460ff16611f32576040517f08c379a0000000000000000000000000000000000000000000000000000000008152600401611f29906136a5565b60405180910390fd5b600061012d60006101000a81548160ff021916908315150217905550565b600060019054906101000a900460ff16611f9f576040517f08c379a0000000000000000000000000000000000000000000000000000000008152600401611f96906136a5565b60405180910390fd5b611faf611faa611279565b611702565b565b611fb9610b55565b611ff8576040517f08c379a0000000000000000000000000000000000000000000000000000000008152600401611fef90613465565b60405180910390fd5b565b600061201b8473ffffffffffffffffffffffffffffffffffffffff166117ca565b15612184578373ffffffffffffffffffffffffffffffffffffffff1663150b7a02612044611279565b8786866040518563ffffffff1660e01b8152600401612066949392919061339f565b602060405180830381600087803b15801561208057600080fd5b505af19250505080156120b157506040513d601f19601f820116820180604052508101906120ae9190612eb6565b60015b612134573d80600081146120e1576040519150601f19603f3d011682016040523d82523d6000602084013e6120e6565b606091505b5060008151141561212c576040517f08c379a0000000000000000000000000000000000000000000000000000000008152600401612123906134a5565b60405180910390fd5b805181602001fd5b63150b7a0260e01b7bffffffffffffffffffffffffffffffffffffffffffffffffffffffff1916817bffffffffffffffffffffffffffffffffffffffffffffffffffffffff191614915050612189565b600190505b949350505050565b606060405180608001604052806059815260200161407360599139905090565b60606121bc8261122e565b60006121c6612191565b905060008151116121e65760405180602001604052806000815250612211565b806121f08461268e565b60405160200161220192919061334b565b6040516020818303038152906040525b915050919050565b60007f01ffc9a7000000000000000000000000000000000000000000000000000000007bffffffffffffffffffffffffffffffffffffffffffffffffffffffff1916827bffffffffffffffffffffffffffffffffffffffffffffffffffffffff1916149050919050565b61228e83838361283b565b600073ffffffffffffffffffffffffffffffffffffffff168373ffffffffffffffffffffffffffffffffffffffff1614156122d1576122cc81612840565b612310565b8173ffffffffffffffffffffffffffffffffffffffff168373ffffffffffffffffffffffffffffffffffffffff161461230f5761230e8382612889565b5b5b600073ffffffffffffffffffffffffffffffffffffffff168273ffffffffffffffffffffffffffffffffffffffff1614156123535761234e816129f6565b612392565b8273ffffffffffffffffffffffffffffffffffffffff168273ffffffffffffffffffffffffffffffffffffffff1614612391576123908282612b39565b5b5b505050565b600073ffffffffffffffffffffffffffffffffffffffff168273ffffffffffffffffffffffffffffffffffffffff161415612407576040517f08c379a00000000000000000000000000000000000000000000000000000000081526004016123fe906135c5565b60405180910390fd5b61241081611db4565b15612450576040517f08c379a000000000000000000000000000000000000000000000000000000000815260040161244790613505565b60405180910390fd5b61245c60008383611e20565b6001606860008473ffffffffffffffffffffffffffffffffffffffff1673ffffffffffffffffffffffffffffffffffffffff16815260200190815260200160002060008282546124ac91906137dd565b92505081905550816067600083815260200190815260200160002060006101000a81548173ffffffffffffffffffffffffffffffffffffffff021916908373ffffffffffffffffffffffffffffffffffffffff160217905550808273ffffffffffffffffffffffffffffffffffffffff16600073ffffffffffffffffffffffffffffffffffffffff167fddf252ad1be2c89b69c2b068fc378daa952ba7f163c4a11628f55a4df523b3ef60405160405180910390a461256d60008383611e30565b5050565b600061257c82610b6d565b905061258a81600084611e20565b612595600083611281565b6001606860008373ffffffffffffffffffffffffffffffffffffffff1673ffffffffffffffffffffffffffffffffffffffff16815260200190815260200160002060008282546125e59190613864565b925050819055506067600083815260200190815260200160002060006101000a81549073ffffffffffffffffffffffffffffffffffffffff021916905581600073ffffffffffffffffffffffffffffffffffffffff168273ffffffffffffffffffffffffffffffffffffffff167fddf252ad1be2c89b69c2b068fc378daa952ba7f163c4a11628f55a4df523b3ef60405160405180910390a461268a81600084611e30565b5050565b606060008214156126d6576040518060400160405280600181526020017f30000000000000000000000000000000000000000000000000000000000000008152509050612836565b600082905060005b600082146127085780806126f1906139d0565b915050600a826127019190613833565b91506126de565b60008167ffffffffffffffff81111561274a577f4e487b7100000000000000000000000000000000000000000000000000000000600052604160045260246000fd5b6040519080825280601f01601f19166020018201604052801561277c5781602001600182028036833780820191505090505b5090505b6000851461282f576001826127959190613864565b9150600a856127a49190613a19565b60306127b091906137dd565b60f81b8183815181106127ec577f4e487b7100000000000000000000000000000000000000000000000000000000600052603260045260246000fd5b60200101907effffffffffffffffffffffffffffffffffffffffffffffffffffffffffffff1916908160001a905350600a856128289190613833565b9450612780565b8093505050505b919050565b505050565b609980549050609a600083815260200190815260200160002081905550609981908060018154018082558091505060019003906000526020600020016000909190919091505550565b6000600161289684610c1f565b6128a09190613864565b9050600060986000848152602001908152602001600020549050818114612985576000609760008673ffffffffffffffffffffffffffffffffffffffff1673ffffffffffffffffffffffffffffffffffffffff168152602001908152602001600020600084815260200190815260200160002054905080609760008773ffffffffffffffffffffffffffffffffffffffff1673ffffffffffffffffffffffffffffffffffffffff168152602001908152602001600020600084815260200190815260200160002081905550816098600083815260200190815260200160002081905550505b6098600084815260200190815260200160002060009055609760008573ffffffffffffffffffffffffffffffffffffffff1673ffffffffffffffffffffffffffffffffffffffff16815260200190815260200160002060008381526020019081526020016000206000905550505050565b60006001609980549050612a0a9190613864565b90506000609a6000848152602001908152602001600020549050600060998381548110612a60577f4e487b7100000000000000000000000000000000000000000000000000000000600052603260045260246000fd5b906000526020600020015490508060998381548110612aa8577f4e487b7100000000000000000000000000000000000000000000000000000000600052603260045260246000fd5b906000526020600020018190555081609a600083815260200190815260200160002081905550609a6000858152602001908152602001600020600090556099805480612b1d577f4e487b7100000000000000000000000000000000000000000000000000000000600052603160045260246000fd5b6001900381819060005260206000200160009055905550505050565b6000612b4483610c1f565b905081609760008573ffffffffffffffffffffffffffffffffffffffff1673ffffffffffffffffffffffffffffffffffffffff168152602001908152602001600020600083815260200190815260200160002081905550806098600084815260200190815260200160002081905550505050565b508054612bc49061396d565b6000825580601f10612bd65750612bf5565b601f016020900490600052602060002090810190612bf49190612bf8565b5b50565b5b80821115612c11576000816000905550600101612bf9565b5090565b6000612c28612c2384613725565b613700565b905082815260208101848484011115612c4057600080fd5b612c4b84828561392b565b509392505050565b600081359050612c6281614016565b92915050565b600081359050612c778161402d565b92915050565b600081359050612c8c81614044565b92915050565b600081519050612ca181614044565b92915050565b600082601f830112612cb857600080fd5b8135612cc8848260208601612c15565b91505092915050565b600081359050612ce08161405b565b92915050565b600060208284031215612cf857600080fd5b6000612d0684828501612c53565b91505092915050565b60008060408385031215612d2257600080fd5b6000612d3085828601612c53565b9250506020612d4185828601612c53565b9150509250929050565b600080600060608486031215612d6057600080fd5b6000612d6e86828701612c53565b9350506020612d7f86828701612c53565b9250506040612d9086828701612cd1565b9150509250925092565b60008060008060808587031215612db057600080fd5b6000612dbe87828801612c53565b9450506020612dcf87828801612c53565b9350506040612de087828801612cd1565b925050606085013567ffffffffffffffff811115612dfd57600080fd5b612e0987828801612ca7565b91505092959194509250565b60008060408385031215612e2857600080fd5b6000612e3685828601612c53565b9250506020612e4785828601612c68565b9150509250929050565b60008060408385031215612e6457600080fd5b6000612e7285828601612c53565b9250506020612e8385828601612cd1565b9150509250929050565b600060208284031215612e9f57600080fd5b6000612ead84828501612c7d565b91505092915050565b600060208284031215612ec857600080fd5b6000612ed684828501612c92565b91505092915050565b600060208284031215612ef157600080fd5b6000612eff84828501612cd1565b91505092915050565b6000612f14838361332d565b60208301905092915050565b612f2981613898565b82525050565b6000612f3a82613766565b612f448185613794565b9350612f4f83613756565b8060005b83811015612f80578151612f678882612f08565b9750612f7283613787565b925050600181019050612f53565b5085935050505092915050565b612f96816138aa565b82525050565b6000612fa782613771565b612fb181856137a5565b9350612fc181856020860161393a565b612fca81613b06565b840191505092915050565b612fde81613919565b82525050565b6000612fef8261377c565b612ff981856137c1565b935061300981856020860161393a565b61301281613b06565b840191505092915050565b60006130288261377c565b61303281856137d2565b935061304281856020860161393a565b80840191505092915050565b600061305b6014836137c1565b915061306682613b17565b602082019050919050565b600061307e602b836137c1565b915061308982613b40565b604082019050919050565b60006130a16032836137c1565b91506130ac82613b8f565b604082019050919050565b60006130c46026836137c1565b91506130cf82613bde565b604082019050919050565b60006130e76025836137c1565b91506130f282613c2d565b604082019050919050565b600061310a601c836137c1565b915061311582613c7c565b602082019050919050565b600061312d6024836137c1565b915061313882613ca5565b604082019050919050565b60006131506019836137c1565b915061315b82613cf4565b602082019050919050565b60006131736029836137c1565b915061317e82613d1d565b604082019050919050565b6000613196602e836137c1565b91506131a182613d6c565b604082019050919050565b60006131b9603e836137c1565b91506131c482613dbb565b604082019050919050565b60006131dc6020836137c1565b91506131e782613e0a565b602082019050919050565b60006131ff6019836137c1565b915061320a82613e33565b602082019050919050565b60006132226020836137c1565b915061322d82613e5c565b602082019050919050565b60006132456018836137c1565b915061325082613e85565b602082019050919050565b60006132686021836137c1565b915061327382613eae565b604082019050919050565b600061328b6000836137b6565b915061329682613efd565b600082019050919050565b60006132ae6010836137c1565b91506132b982613f00565b602082019050919050565b60006132d1602c836137c1565b91506132dc82613f29565b604082019050919050565b60006132f4602b836137c1565b91506132ff82613f78565b604082019050919050565b6000613317602e836137c1565b915061332282613fc7565b604082019050919050565b61333681613902565b82525050565b61334581613902565b82525050565b6000613357828561301d565b9150613363828461301d565b91508190509392505050565b600061337a8261327e565b9150819050919050565b60006020820190506133996000830184612f20565b92915050565b60006080820190506133b46000830187612f20565b6133c16020830186612f20565b6133ce604083018561333c565b81810360608301526133e08184612f9c565b905095945050505050565b600060208201905081810360008301526134058184612f2f565b905092915050565b60006020820190506134226000830184612f8d565b92915050565b600060208201905061343d6000830184612fd5565b92915050565b6000602082019050818103600083015261345d8184612fe4565b905092915050565b6000602082019050818103600083015261347e8161304e565b9050919050565b6000602082019050818103600083015261349e81613071565b9050919050565b600060208201905081810360008301526134be81613094565b9050919050565b600060208201905081810360008301526134de816130b7565b9050919050565b600060208201905081810360008301526134fe816130da565b9050919050565b6000602082019050818103600083015261351e816130fd565b9050919050565b6000602082019050818103600083015261353e81613120565b9050919050565b6000602082019050818103600083015261355e81613143565b9050919050565b6000602082019050818103600083015261357e81613166565b9050919050565b6000602082019050818103600083015261359e81613189565b9050919050565b600060208201905081810360008301526135be816131ac565b9050919050565b600060208201905081810360008301526135de816131cf565b9050919050565b600060208201905081810360008301526135fe816131f2565b9050919050565b6000602082019050818103600083015261361e81613215565b9050919050565b6000602082019050818103600083015261363e81613238565b9050919050565b6000602082019050818103600083015261365e8161325b565b9050919050565b6000602082019050818103600083015261367e816132a1565b9050919050565b6000602082019050818103600083015261369e816132c4565b9050919050565b600060208201905081810360008301526136be816132e7565b9050919050565b600060208201905081810360008301526136de8161330a565b9050919050565b60006020820190506136fa600083018461333c565b92915050565b600061370a61371b565b9050613716828261399f565b919050565b6000604051905090565b600067ffffffffffffffff8211156137405761373f613ad7565b5b61374982613b06565b9050602081019050919050565b6000819050602082019050919050565b600081519050919050565b600081519050919050565b600081519050919050565b6000602082019050919050565b600082825260208201905092915050565b600082825260208201905092915050565b600081905092915050565b600082825260208201905092915050565b600081905092915050565b60006137e882613902565b91506137f383613902565b9250827fffffffffffffffffffffffffffffffffffffffffffffffffffffffffffffffff0382111561382857613827613a4a565b5b828201905092915050565b600061383e82613902565b915061384983613902565b92508261385957613858613a79565b5b828204905092915050565b600061386f82613902565b915061387a83613902565b92508282101561388d5761388c613a4a565b5b828203905092915050565b60006138a3826138e2565b9050919050565b60008115159050919050565b60007fffffffff0000000000000000000000000000000000000000000000000000000082169050919050565b600073ffffffffffffffffffffffffffffffffffffffff82169050919050565b6000819050919050565b600060ff82169050919050565b60006139248261390c565b9050919050565b82818337600083830152505050565b60005b8381101561395857808201518184015260208101905061393d565b83811115613967576000848401525b50505050565b6000600282049050600182168061398557607f821691505b6020821081141561399957613998613aa8565b5b50919050565b6139a882613b06565b810181811067ffffffffffffffff821117156139c7576139c6613ad7565b5b80604052505050565b60006139db82613902565b91507fffffffffffffffffffffffffffffffffffffffffffffffffffffffffffffffff821415613a0e57613a0d613a4a565b5b600182019050919050565b6000613a2482613902565b9150613a2f83613902565b925082613a3f57613a3e613a79565b5b828206905092915050565b7f4e487b7100000000000000000000000000000000000000000000000000000000600052601160045260246000fd5b7f4e487b7100000000000000000000000000000000000000000000000000000000600052601260045260246000fd5b7f4e487b7100000000000000000000000000000000000000000000000000000000600052602260045260246000fd5b7f4e487b7100000000000000000000000000000000000000000000000000000000600052604160045260246000fd5b6000601f19601f8301169050919050565b7f5061757361626c653a206e6f7420706175736564000000000000000000000000600082015250565b7f455243373231456e756d657261626c653a206f776e657220696e646578206f7560008201527f74206f6620626f756e6473000000000000000000000000000000000000000000602082015250565b7f4552433732313a207472616e7366657220746f206e6f6e20455243373231526560008201527f63656976657220696d706c656d656e7465720000000000000000000000000000602082015250565b7f4f776e61626c653a206e6577206f776e657220697320746865207a65726f206160008201527f6464726573730000000000000000000000000000000000000000000000000000602082015250565b7f4552433732313a207472616e736665722066726f6d20696e636f72726563742060008201527f6f776e6572000000000000000000000000000000000000000000000000000000602082015250565b7f4552433732313a20746f6b656e20616c7265616479206d696e74656400000000600082015250565b7f4552433732313a207472616e7366657220746f20746865207a65726f2061646460008201527f7265737300000000000000000000000000000000000000000000000000000000602082015250565b7f4552433732313a20617070726f766520746f2063616c6c657200000000000000600082015250565b7f4552433732313a2061646472657373207a65726f206973206e6f74206120766160008201527f6c6964206f776e65720000000000000000000000000000000000000000000000602082015250565b7f496e697469616c697a61626c653a20636f6e747261637420697320616c72656160008201527f647920696e697469616c697a6564000000000000000000000000000000000000602082015250565b7f4552433732313a20617070726f76652063616c6c6572206973206e6f7420746f60008201527f6b656e206f776e6572206e6f7220617070726f76656420666f7220616c6c0000602082015250565b7f4552433732313a206d696e7420746f20746865207a65726f2061646472657373600082015250565b7f4e6f206574686572206c65667420746f20776974686472617700000000000000600082015250565b7f4f776e61626c653a2063616c6c6572206973206e6f7420746865206f776e6572600082015250565b7f4552433732313a20696e76616c696420746f6b656e2049440000000000000000600082015250565b7f4552433732313a20617070726f76616c20746f2063757272656e74206f776e6560008201527f7200000000000000000000000000000000000000000000000000000000000000602082015250565b50565b7f5472616e73666572206661696c65642e00000000000000000000000000000000600082015250565b7f455243373231456e756d657261626c653a20676c6f62616c20696e646578206f60008201527f7574206f6620626f756e64730000000000000000000000000000000000000000602082015250565b7f496e697469616c697a61626c653a20636f6e7472616374206973206e6f74206960008201527f6e697469616c697a696e67000000000000000000000000000000000000000000602082015250565b7f4552433732313a2063616c6c6572206973206e6f7420746f6b656e206f776e6560008201527f72206e6f7220617070726f766564000000000000000000000000000000000000602082015250565b61401f81613898565b811461402a57600080fd5b50565b614036816138aa565b811461404157600080fd5b50565b61404d816138b6565b811461405857600080fd5b50565b61406481613902565b811461406f57600080fd5b5056fe68747470733a2f2f62616679626569636868776169767667746764366567766b707732373467726934346a653563756e3461656c726f7873736432786e6c6b346678612e697066732e6e667473746f726167652e6c696e6b2fa26469706673582212206c88122c1d342584246339c84c29545c910db98d63687c59bd69112e58878c0764736f6c63430008020033",
  "immutableReferences": {},
  "source": "// SPDX-License-Identifier: MIT\r\npragma solidity ^0.8.2;\r\n\r\nimport \"@openzeppelin/contracts-upgradeable/token/ERC721/ERC721Upgradeable.sol\";\r\nimport \"@openzeppelin/contracts-upgradeable/token/ERC721/extensions/ERC721EnumerableUpgradeable.sol\";\r\nimport \"@openzeppelin/contracts-upgradeable/token/ERC721/extensions/ERC721URIStorageUpgradeable.sol\";\r\nimport \"@openzeppelin/contracts-upgradeable/token/ERC721/extensions/ERC721BurnableUpgradeable.sol\";\r\nimport \"@openzeppelin/contracts-upgradeable/utils/CountersUpgradeable.sol\";\r\nimport \"@openzeppelin/contracts-upgradeable/security/PausableUpgradeable.sol\";\r\nimport \"@openzeppelin/contracts-upgradeable/access/OwnableUpgradeable.sol\";\r\nimport \"@openzeppelin/contracts-upgradeable/utils/math/SafeMathUpgradeable.sol\";\r\nimport \"@openzeppelin/contracts-upgradeable/proxy/utils/Initializable.sol\";\r\n\r\ncontract CryptoIsland is\r\n    ERC721Upgradeable,\r\n    ERC721EnumerableUpgradeable,\r\n    ERC721URIStorageUpgradeable,\r\n    ERC721BurnableUpgradeable,\r\n    PausableUpgradeable,\r\n    OwnableUpgradeable\r\n{\r\n    // using SafeMathUpgradeable for uint256;\r\n    using CountersUpgradeable for CountersUpgradeable.Counter;\r\n\r\n    CountersUpgradeable.Counter private _tokenIdCounter;\r\n\r\n    // CountersUpgradeable.Counter private _tokenIds;\r\n\r\n    // uint256 public constant MAX_SUPPLY = 1000;\r\n    // uint256 public constant PRICE = 0.01 ether;\r\n    // uint256 public constant MAX_PER_MINT = 1;\r\n\r\n    // string public baseTokenURI;\r\n\r\n    function initialize() public initializer {\r\n        __ERC721Enumerable_init();\r\n        __ERC721URIStorage_init();\r\n        __ERC721Burnable_init();\r\n        __Pausable_init();\r\n        __Ownable_init();\r\n    }\r\n\r\n    // function mintNFTs(uint256 _count) public payable {\r\n    //     uint256 totalMinted = _tokenIds.current();\r\n\r\n    //     require(totalMinted.add(_count) <= MAX_SUPPLY, \"Not enough NFTs left!\");\r\n    //     require(\r\n    //         _count > 0 && _count <= MAX_PER_MINT,\r\n    //         \"Cannot mint specified number of NFTs.\"\r\n    //     );\r\n    //     require(\r\n    //         msg.value >= PRICE.mul(_count),\r\n    //         \"Not enough ether to purchase NFTs.\"\r\n    //     );\r\n\r\n    //     for (uint256 i = 0; i < _count; i++) {\r\n    //         _mintSingleNFT();\r\n    //     }\r\n    // }\r\n\r\n    // function reserveNFTs() public onlyOwner {\r\n    //     uint256 totalMinted = _tokenIds.current();\r\n\r\n    //     require(\r\n    //         totalMinted.add(10) < MAX_SUPPLY,\r\n    //         \"Not enough NFTs left to reserve\"\r\n    //     );\r\n\r\n    //     for (uint256 i = 0; i < 10; i++) {\r\n    //         _mintSingleNFT();\r\n    //     }\r\n    // }\r\n\r\n    function safeMint(address to) public payable {\r\n        _safeMint(to, _tokenIdCounter.current());\r\n        _tokenIdCounter.increment();\r\n    }\r\n\r\n    function pause() public onlyOwner {\r\n        _unpause();\r\n    }\r\n\r\n    function _baseURI() internal pure override returns (string memory) {\r\n        return\r\n            \"https://bafybeichhwaivvgtgd6egvkpw274gri44je5cun4aelroxssd2xnlk4fxa.ipfs.nftstorage.link/\";\r\n    }\r\n\r\n    // function _baseURI() internal view virtual override returns (string memory) {\r\n    //     return baseTokenURI;\r\n    // }\r\n\r\n    function tokenURI(uint256 tokenId)\r\n        public\r\n        view\r\n        override(ERC721Upgradeable, ERC721URIStorageUpgradeable)\r\n        returns (string memory)\r\n    {\r\n        return super.tokenURI(tokenId);\r\n    }\r\n\r\n    // function setBaseURI(string memory _baseTokenURI) public onlyOwner {\r\n    //     baseTokenURI = _baseTokenURI;\r\n    // }\r\n\r\n    function _beforeTokenTransfer(\r\n        address from,\r\n        address to,\r\n        uint256 tokenId\r\n    ) internal override(ERC721Upgradeable, ERC721EnumerableUpgradeable) {\r\n        super._beforeTokenTransfer(from, to, tokenId);\r\n    }\r\n\r\n    function _burn(uint256 tokenId)\r\n        internal\r\n        override(ERC721Upgradeable, ERC721URIStorageUpgradeable)\r\n    {\r\n        super._burn(tokenId);\r\n    }\r\n\r\n    function supportsInterface(bytes4 interfaceId)\r\n        public\r\n        view\r\n        override(ERC721Upgradeable, ERC721EnumerableUpgradeable)\r\n        returns (bool)\r\n    {\r\n        return super.supportsInterface(interfaceId);\r\n    }\r\n\r\n    // function _mintSingleNFT() private {\r\n    //     uint256 newTokenID = _tokenIds.current();\r\n    //     _safeMint(msg.sender, newTokenID);\r\n    //     _tokenIds.increment();\r\n    // }\r\n\r\n    function tokensOfOwner(address _owner)\r\n        external\r\n        view\r\n        returns (uint256[] memory)\r\n    {\r\n        uint256 tokenCount = balanceOf(_owner);\r\n        uint256[] memory tokensId = new uint256[](tokenCount);\r\n\r\n        for (uint256 i = 0; i < tokenCount; i++) {\r\n            tokensId[i] = tokenOfOwnerByIndex(_owner, i);\r\n        }\r\n        return tokensId;\r\n    }\r\n\r\n    function withdraw() public payable onlyOwner {\r\n        uint256 balance = address(this).balance;\r\n        require(balance > 0, \"No ether left to withdraw\");\r\n\r\n        (bool success, ) = (msg.sender).call{value: balance}(\"\");\r\n        require(success, \"Transfer failed.\");\r\n    }\r\n}\r\n",
  "sourcePath": "C:\\CryptoIsland\\contracts\\CryptoIsland.sol",
  "compiler": {
    "name": "solc",
    "version": "0.8.2+commit.661d1103.Emscripten.clang"
  },
  "schemaVersion": "3.4.8",
  "updatedAt": "2022-08-10T05:24:11.095Z",
  "networkType": "ethereum",
  "devdoc": {
    "kind": "dev",
    "methods": {
      "approve(address,uint256)": {
        "details": "See {IERC721-approve}."
      },
      "balanceOf(address)": {
        "details": "See {IERC721-balanceOf}."
      },
      "burn(uint256)": {
        "details": "Burns `tokenId`. See {ERC721-_burn}. Requirements: - The caller must own `tokenId` or be an approved operator."
      },
      "getApproved(uint256)": {
        "details": "See {IERC721-getApproved}."
      },
      "isApprovedForAll(address,address)": {
        "details": "See {IERC721-isApprovedForAll}."
      },
      "name()": {
        "details": "See {IERC721Metadata-name}."
      },
      "owner()": {
        "details": "Returns the address of the current owner."
      },
      "ownerOf(uint256)": {
        "details": "See {IERC721-ownerOf}."
      },
      "paused()": {
        "details": "Returns true if the contract is paused, and false otherwise."
      },
      "renounceOwnership()": {
        "details": "Leaves the contract without owner. It will not be possible to call `onlyOwner` functions anymore. Can only be called by the current owner. NOTE: Renouncing ownership will leave the contract without an owner, thereby removing any functionality that is only available to the owner."
      },
      "safeTransferFrom(address,address,uint256)": {
        "details": "See {IERC721-safeTransferFrom}."
      },
      "safeTransferFrom(address,address,uint256,bytes)": {
        "details": "See {IERC721-safeTransferFrom}."
      },
      "setApprovalForAll(address,bool)": {
        "details": "See {IERC721-setApprovalForAll}."
      },
      "symbol()": {
        "details": "See {IERC721Metadata-symbol}."
      },
      "tokenByIndex(uint256)": {
        "details": "See {IERC721Enumerable-tokenByIndex}."
      },
      "tokenOfOwnerByIndex(address,uint256)": {
        "details": "See {IERC721Enumerable-tokenOfOwnerByIndex}."
      },
      "totalSupply()": {
        "details": "See {IERC721Enumerable-totalSupply}."
      },
      "transferFrom(address,address,uint256)": {
        "details": "See {IERC721-transferFrom}."
      },
      "transferOwnership(address)": {
        "details": "Transfers ownership of the contract to a new account (`newOwner`). Can only be called by the current owner."
      }
    },
    "version": 1
  },
  "userdoc": {
    "kind": "user",
    "methods": {},
    "version": 1
  }
}