{
  "contractName": "CryptoIsland",
  "abi": [
    {
      "inputs": [
        {
          "internalType": "string",
          "name": "baseURI",
          "type": "string"
        }
      ],
      "stateMutability": "nonpayable",
      "type": "constructor"
    },
    {
      "anonymous": false,
      "inputs": [
        {
          "indexed": true,
          "internalType": "address",
          "name": "owner",
          "type": "address"
        },
        {
          "indexed": true,
          "internalType": "address",
          "name": "approved",
          "type": "address"
        },
        {
          "indexed": true,
          "internalType": "uint256",
          "name": "tokenId",
          "type": "uint256"
        }
      ],
      "name": "Approval",
      "type": "event"
    },
    {
      "anonymous": false,
      "inputs": [
        {
          "indexed": true,
          "internalType": "address",
          "name": "owner",
          "type": "address"
        },
        {
          "indexed": true,
          "internalType": "address",
          "name": "operator",
          "type": "address"
        },
        {
          "indexed": false,
          "internalType": "bool",
          "name": "approved",
          "type": "bool"
        }
      ],
      "name": "ApprovalForAll",
      "type": "event"
    },
    {
      "anonymous": false,
      "inputs": [
        {
          "indexed": true,
          "internalType": "address",
          "name": "previousOwner",
          "type": "address"
        },
        {
          "indexed": true,
          "internalType": "address",
          "name": "newOwner",
          "type": "address"
        }
      ],
      "name": "OwnershipTransferred",
      "type": "event"
    },
    {
      "anonymous": false,
      "inputs": [
        {
          "indexed": true,
          "internalType": "address",
          "name": "from",
          "type": "address"
        },
        {
          "indexed": true,
          "internalType": "address",
          "name": "to",
          "type": "address"
        },
        {
          "indexed": true,
          "internalType": "uint256",
          "name": "tokenId",
          "type": "uint256"
        }
      ],
      "name": "Transfer",
      "type": "event"
    },
    {
      "inputs": [],
      "name": "MAX_PER_MINT",
      "outputs": [
        {
          "internalType": "uint256",
          "name": "",
          "type": "uint256"
        }
      ],
      "stateMutability": "view",
      "type": "function",
      "constant": true
    },
    {
      "inputs": [],
      "name": "MAX_SUPPLY",
      "outputs": [
        {
          "internalType": "uint256",
          "name": "",
          "type": "uint256"
        }
      ],
      "stateMutability": "view",
      "type": "function",
      "constant": true
    },
    {
      "inputs": [],
      "name": "PRICE",
      "outputs": [
        {
          "internalType": "uint256",
          "name": "",
          "type": "uint256"
        }
      ],
      "stateMutability": "view",
      "type": "function",
      "constant": true
    },
    {
      "inputs": [
        {
          "internalType": "address",
          "name": "to",
          "type": "address"
        },
        {
          "internalType": "uint256",
          "name": "tokenId",
          "type": "uint256"
        }
      ],
      "name": "approve",
      "outputs": [],
      "stateMutability": "nonpayable",
      "type": "function"
    },
    {
      "inputs": [
        {
          "internalType": "address",
          "name": "owner",
          "type": "address"
        }
      ],
      "name": "balanceOf",
      "outputs": [
        {
          "internalType": "uint256",
          "name": "",
          "type": "uint256"
        }
      ],
      "stateMutability": "view",
      "type": "function",
      "constant": true
    },
    {
      "inputs": [],
      "name": "baseTokenURI",
      "outputs": [
        {
          "internalType": "string",
          "name": "",
          "type": "string"
        }
      ],
      "stateMutability": "view",
      "type": "function",
      "constant": true
    },
    {
      "inputs": [
        {
          "internalType": "uint256",
          "name": "tokenId",
          "type": "uint256"
        }
      ],
      "name": "getApproved",
      "outputs": [
        {
          "internalType": "address",
          "name": "",
          "type": "address"
        }
      ],
      "stateMutability": "view",
      "type": "function",
      "constant": true
    },
    {
      "inputs": [
        {
          "internalType": "address",
          "name": "owner",
          "type": "address"
        },
        {
          "internalType": "address",
          "name": "operator",
          "type": "address"
        }
      ],
      "name": "isApprovedForAll",
      "outputs": [
        {
          "internalType": "bool",
          "name": "",
          "type": "bool"
        }
      ],
      "stateMutability": "view",
      "type": "function",
      "constant": true
    },
    {
      "inputs": [],
      "name": "name",
      "outputs": [
        {
          "internalType": "string",
          "name": "",
          "type": "string"
        }
      ],
      "stateMutability": "view",
      "type": "function",
      "constant": true
    },
    {
      "inputs": [],
      "name": "owner",
      "outputs": [
        {
          "internalType": "address",
          "name": "",
          "type": "address"
        }
      ],
      "stateMutability": "view",
      "type": "function",
      "constant": true
    },
    {
      "inputs": [
        {
          "internalType": "uint256",
          "name": "tokenId",
          "type": "uint256"
        }
      ],
      "name": "ownerOf",
      "outputs": [
        {
          "internalType": "address",
          "name": "",
          "type": "address"
        }
      ],
      "stateMutability": "view",
      "type": "function",
      "constant": true
    },
    {
      "inputs": [],
      "name": "renounceOwnership",
      "outputs": [],
      "stateMutability": "nonpayable",
      "type": "function"
    },
    {
      "inputs": [
        {
          "internalType": "address",
          "name": "from",
          "type": "address"
        },
        {
          "internalType": "address",
          "name": "to",
          "type": "address"
        },
        {
          "internalType": "uint256",
          "name": "tokenId",
          "type": "uint256"
        }
      ],
      "name": "safeTransferFrom",
      "outputs": [],
      "stateMutability": "nonpayable",
      "type": "function"
    },
    {
      "inputs": [
        {
          "internalType": "address",
          "name": "from",
          "type": "address"
        },
        {
          "internalType": "address",
          "name": "to",
          "type": "address"
        },
        {
          "internalType": "uint256",
          "name": "tokenId",
          "type": "uint256"
        },
        {
          "internalType": "bytes",
          "name": "data",
          "type": "bytes"
        }
      ],
      "name": "safeTransferFrom",
      "outputs": [],
      "stateMutability": "nonpayable",
      "type": "function"
    },
    {
      "inputs": [
        {
          "internalType": "address",
          "name": "operator",
          "type": "address"
        },
        {
          "internalType": "bool",
          "name": "approved",
          "type": "bool"
        }
      ],
      "name": "setApprovalForAll",
      "outputs": [],
      "stateMutability": "nonpayable",
      "type": "function"
    },
    {
      "inputs": [
        {
          "internalType": "bytes4",
          "name": "interfaceId",
          "type": "bytes4"
        }
      ],
      "name": "supportsInterface",
      "outputs": [
        {
          "internalType": "bool",
          "name": "",
          "type": "bool"
        }
      ],
      "stateMutability": "view",
      "type": "function",
      "constant": true
    },
    {
      "inputs": [],
      "name": "symbol",
      "outputs": [
        {
          "internalType": "string",
          "name": "",
          "type": "string"
        }
      ],
      "stateMutability": "view",
      "type": "function",
      "constant": true
    },
    {
      "inputs": [
        {
          "internalType": "uint256",
          "name": "index",
          "type": "uint256"
        }
      ],
      "name": "tokenByIndex",
      "outputs": [
        {
          "internalType": "uint256",
          "name": "",
          "type": "uint256"
        }
      ],
      "stateMutability": "view",
      "type": "function",
      "constant": true
    },
    {
      "inputs": [
        {
          "internalType": "address",
          "name": "owner",
          "type": "address"
        },
        {
          "internalType": "uint256",
          "name": "index",
          "type": "uint256"
        }
      ],
      "name": "tokenOfOwnerByIndex",
      "outputs": [
        {
          "internalType": "uint256",
          "name": "",
          "type": "uint256"
        }
      ],
      "stateMutability": "view",
      "type": "function",
      "constant": true
    },
    {
      "inputs": [
        {
          "internalType": "uint256",
          "name": "tokenId",
          "type": "uint256"
        }
      ],
      "name": "tokenURI",
      "outputs": [
        {
          "internalType": "string",
          "name": "",
          "type": "string"
        }
      ],
      "stateMutability": "view",
      "type": "function",
      "constant": true
    },
    {
      "inputs": [],
      "name": "totalSupply",
      "outputs": [
        {
          "internalType": "uint256",
          "name": "",
          "type": "uint256"
        }
      ],
      "stateMutability": "view",
      "type": "function",
      "constant": true
    },
    {
      "inputs": [
        {
          "internalType": "address",
          "name": "from",
          "type": "address"
        },
        {
          "internalType": "address",
          "name": "to",
          "type": "address"
        },
        {
          "internalType": "uint256",
          "name": "tokenId",
          "type": "uint256"
        }
      ],
      "name": "transferFrom",
      "outputs": [],
      "stateMutability": "nonpayable",
      "type": "function"
    },
    {
      "inputs": [
        {
          "internalType": "address",
          "name": "newOwner",
          "type": "address"
        }
      ],
      "name": "transferOwnership",
      "outputs": [],
      "stateMutability": "nonpayable",
      "type": "function"
    },
    {
      "inputs": [],
      "name": "reserveNFTs",
      "outputs": [],
      "stateMutability": "nonpayable",
      "type": "function"
    },
    {
      "inputs": [
        {
          "internalType": "string",
          "name": "_baseTokenURI",
          "type": "string"
        }
      ],
      "name": "setBaseURI",
      "outputs": [],
      "stateMutability": "nonpayable",
      "type": "function"
    },
    {
      "inputs": [
        {
          "internalType": "uint256",
          "name": "_count",
          "type": "uint256"
        }
      ],
      "name": "mintNFTs",
      "outputs": [],
      "stateMutability": "payable",
      "type": "function",
      "payable": true
    },
    {
      "inputs": [
        {
          "internalType": "address",
          "name": "_owner",
          "type": "address"
        }
      ],
      "name": "tokensOfOwner",
      "outputs": [
        {
          "internalType": "uint256[]",
          "name": "",
          "type": "uint256[]"
        }
      ],
      "stateMutability": "view",
      "type": "function",
      "constant": true
    },
    {
      "inputs": [],
      "name": "withdraw",
      "outputs": [],
      "stateMutability": "payable",
      "type": "function",
      "payable": true
    }
  ],
  "bytecode": "0x60806040523480156200001157600080fd5b5060405162004481380380620044818339818101604052810190620000379190620003e6565b6040518060400160405280600c81526020017f43727970746f49736c616e6400000000000000000000000000000000000000008152506040518060400160405280600481526020017f6a656a75000000000000000000000000000000000000000000000000000000008152508160009080519060200190620000bb929190620002c4565b508060019080519060200190620000d4929190620002c4565b505050620000f7620000eb6200010f60201b60201c565b6200011760201b60201c565b6200010881620001dd60201b60201c565b506200061e565b600033905090565b6000600a60009054906101000a900473ffffffffffffffffffffffffffffffffffffffff16905081600a60006101000a81548173ffffffffffffffffffffffffffffffffffffffff021916908373ffffffffffffffffffffffffffffffffffffffff1602179055508173ffffffffffffffffffffffffffffffffffffffff168173ffffffffffffffffffffffffffffffffffffffff167f8be0079c531659141344cd1fd0a4f28419497f9722a3daafe3b4186f6b6457e060405160405180910390a35050565b620001ed6200020960201b60201c565b80600c908051906020019062000205929190620002c4565b5050565b620002196200010f60201b60201c565b73ffffffffffffffffffffffffffffffffffffffff166200023f6200029a60201b60201c565b73ffffffffffffffffffffffffffffffffffffffff161462000298576040517f08c379a00000000000000000000000000000000000000000000000000000000081526004016200028f9062000452565b60405180910390fd5b565b6000600a60009054906101000a900473ffffffffffffffffffffffffffffffffffffffff16905090565b828054620002d2906200051a565b90600052602060002090601f016020900481019282620002f6576000855562000342565b82601f106200031157805160ff191683800117855562000342565b8280016001018555821562000342579182015b828111156200034157825182559160200191906001019062000324565b5b50905062000351919062000355565b5090565b5b808211156200037057600081600090555060010162000356565b5090565b60006200038b62000385846200049d565b62000474565b905082815260208101848484011115620003a457600080fd5b620003b1848285620004e4565b509392505050565b600082601f830112620003cb57600080fd5b8151620003dd84826020860162000374565b91505092915050565b600060208284031215620003f957600080fd5b600082015167ffffffffffffffff8111156200041457600080fd5b6200042284828501620003b9565b91505092915050565b60006200043a602083620004d3565b91506200044782620005f5565b602082019050919050565b600060208201905081810360008301526200046d816200042b565b9050919050565b60006200048062000493565b90506200048e828262000550565b919050565b6000604051905090565b600067ffffffffffffffff821115620004bb57620004ba620005b5565b5b620004c682620005e4565b9050602081019050919050565b600082825260208201905092915050565b60005b8381101562000504578082015181840152602081019050620004e7565b8381111562000514576000848401525b50505050565b600060028204905060018216806200053357607f821691505b602082108114156200054a576200054962000586565b5b50919050565b6200055b82620005e4565b810181811067ffffffffffffffff821117156200057d576200057c620005b5565b5b80604052505050565b7f4e487b7100000000000000000000000000000000000000000000000000000000600052602260045260246000fd5b7f4e487b7100000000000000000000000000000000000000000000000000000000600052604160045260246000fd5b6000601f19601f8301169050919050565b7f4f776e61626c653a2063616c6c6572206973206e6f7420746865206f776e6572600082015250565b613e53806200062e6000396000f3fe6080604052600436106101b75760003560e01c806355f804b3116100ec57806395d89b411161008a578063c87b56dd11610064578063c87b56dd146105de578063d547cfb71461061b578063e985e9c514610646578063f2fde38b14610683576101b7565b806395d89b4114610561578063a22cb4651461058c578063b88d4fde146105b5576101b7565b8063715018a6116100c6578063715018a6146104b75780638462151c146104ce5780638d859f3e1461050b5780638da5cb5b14610536576101b7565b806355f804b3146104145780636352211e1461043d57806370a082311461047a576101b7565b806323b872dd116101595780633b4b1381116101335780633b4b1381146103885780633ccfd60b146103a457806342842e0e146103ae5780634f6ccce7146103d7576101b7565b806323b872dd146102f75780632f745c591461032057806332cb6b0c1461035d576101b7565b8063095ea7b311610195578063095ea7b31461026157806309d42b301461028a578063144100c7146102b557806318160ddd146102cc576101b7565b806301ffc9a7146101bc57806306fdde03146101f9578063081812fc14610224575b600080fd5b3480156101c857600080fd5b506101e360048036038101906101de9190612b49565b6106ac565b6040516101f0919061311e565b60405180910390f35b34801561020557600080fd5b5061020e610726565b60405161021b9190613139565b60405180910390f35b34801561023057600080fd5b5061024b60048036038101906102469190612bdc565b6107b8565b6040516102589190613095565b60405180910390f35b34801561026d57600080fd5b5061028860048036038101906102839190612b0d565b6107fe565b005b34801561029657600080fd5b5061029f610916565b6040516102ac91906133fb565b60405180910390f35b3480156102c157600080fd5b506102ca61091b565b005b3480156102d857600080fd5b506102e16109b2565b6040516102ee91906133fb565b60405180910390f35b34801561030357600080fd5b5061031e60048036038101906103199190612a07565b6109bf565b005b34801561032c57600080fd5b5061034760048036038101906103429190612b0d565b610a1f565b60405161035491906133fb565b60405180910390f35b34801561036957600080fd5b50610372610ac4565b60405161037f91906133fb565b60405180910390f35b6103a2600480360381019061039d9190612bdc565b610ac9565b005b6103ac610c04565b005b3480156103ba57600080fd5b506103d560048036038101906103d09190612a07565b610d04565b005b3480156103e357600080fd5b506103fe60048036038101906103f99190612bdc565b610d24565b60405161040b91906133fb565b60405180910390f35b34801561042057600080fd5b5061043b60048036038101906104369190612b9b565b610dbb565b005b34801561044957600080fd5b50610464600480360381019061045f9190612bdc565b610ddd565b6040516104719190613095565b60405180910390f35b34801561048657600080fd5b506104a1600480360381019061049c91906129a2565b610e8f565b6040516104ae91906133fb565b60405180910390f35b3480156104c357600080fd5b506104cc610f47565b005b3480156104da57600080fd5b506104f560048036038101906104f091906129a2565b610f5b565b60405161050291906130fc565b60405180910390f35b34801561051757600080fd5b50610520611055565b60405161052d91906133fb565b60405180910390f35b34801561054257600080fd5b5061054b611060565b6040516105589190613095565b60405180910390f35b34801561056d57600080fd5b5061057661108a565b6040516105839190613139565b60405180910390f35b34801561059857600080fd5b506105b360048036038101906105ae9190612ad1565b61111c565b005b3480156105c157600080fd5b506105dc60048036038101906105d79190612a56565b611132565b005b3480156105ea57600080fd5b5061060560048036038101906106009190612bdc565b611194565b6040516106129190613139565b60405180910390f35b34801561062757600080fd5b506106306111fc565b60405161063d9190613139565b60405180910390f35b34801561065257600080fd5b5061066d600480360381019061066891906129cb565b61128a565b60405161067a919061311e565b60405180910390f35b34801561068f57600080fd5b506106aa60048036038101906106a591906129a2565b61131e565b005b60007f780e9d63000000000000000000000000000000000000000000000000000000007bffffffffffffffffffffffffffffffffffffffffffffffffffffffff1916827bffffffffffffffffffffffffffffffffffffffffffffffffffffffff1916148061071f575061071e826113a2565b5b9050919050565b606060008054610735906136ef565b80601f0160208091040260200160405190810160405280929190818152602001828054610761906136ef565b80156107ae5780601f10610783576101008083540402835291602001916107ae565b820191906000526020600020905b81548152906001019060200180831161079157829003601f168201915b5050505050905090565b60006107c382611484565b6004600083815260200190815260200160002060009054906101000a900473ffffffffffffffffffffffffffffffffffffffff169050919050565b600061080982610ddd565b90508073ffffffffffffffffffffffffffffffffffffffff168373ffffffffffffffffffffffffffffffffffffffff16141561087a576040517f08c379a00000000000000000000000000000000000000000000000000000000081526004016108719061337b565b60405180910390fd5b8073ffffffffffffffffffffffffffffffffffffffff166108996114cf565b73ffffffffffffffffffffffffffffffffffffffff1614806108c857506108c7816108c26114cf565b61128a565b5b610907576040517f08c379a00000000000000000000000000000000000000000000000000000000081526004016108fe906132db565b60405180910390fd5b61091183836114d7565b505050565b600581565b610923611590565b600061092f600b61160e565b90506064610947600a8361161c90919063ffffffff16565b10610987576040517f08c379a000000000000000000000000000000000000000000000000000000000815260040161097e9061315b565b60405180910390fd5b60005b600a8110156109ae5761099b611632565b80806109a690613752565b91505061098a565b5050565b6000600880549050905090565b6109d06109ca6114cf565b82611657565b610a0f576040517f08c379a0000000000000000000000000000000000000000000000000000000008152600401610a06906133db565b60405180910390fd5b610a1a8383836116ec565b505050565b6000610a2a83610e8f565b8210610a6b576040517f08c379a0000000000000000000000000000000000000000000000000000000008152600401610a629061317b565b60405180910390fd5b600660008473ffffffffffffffffffffffffffffffffffffffff1673ffffffffffffffffffffffffffffffffffffffff168152602001908152602001600020600083815260200190815260200160002054905092915050565b606481565b6000610ad5600b61160e565b90506064610aec838361161c90919063ffffffff16565b1115610b2d576040517f08c379a0000000000000000000000000000000000000000000000000000000008152600401610b249061327b565b60405180910390fd5b600082118015610b3e575060058211155b610b7d576040517f08c379a0000000000000000000000000000000000000000000000000000000008152600401610b749061329b565b60405180910390fd5b610b9782662386f26fc1000061195390919063ffffffff16565b341015610bd9576040517f08c379a0000000000000000000000000000000000000000000000000000000008152600401610bd09061325b565b60405180910390fd5b60005b82811015610bff57610bec611632565b8080610bf790613752565b915050610bdc565b505050565b610c0c611590565b600047905060008111610c54576040517f08c379a0000000000000000000000000000000000000000000000000000000008152600401610c4b9061331b565b60405180910390fd5b60003373ffffffffffffffffffffffffffffffffffffffff1682604051610c7a90613080565b60006040518083038185875af1925050503d8060008114610cb7576040519150601f19603f3d011682016040523d82523d6000602084013e610cbc565b606091505b5050905080610d00576040517f08c379a0000000000000000000000000000000000000000000000000000000008152600401610cf79061339b565b60405180910390fd5b5050565b610d1f83838360405180602001604052806000815250611132565b505050565b6000610d2e6109b2565b8210610d6f576040517f08c379a0000000000000000000000000000000000000000000000000000000008152600401610d66906133bb565b60405180910390fd5b60088281548110610da9577f4e487b7100000000000000000000000000000000000000000000000000000000600052603260045260246000fd5b90600052602060002001549050919050565b610dc3611590565b80600c9080519060200190610dd99291906127c6565b5050565b6000806002600084815260200190815260200160002060009054906101000a900473ffffffffffffffffffffffffffffffffffffffff169050600073ffffffffffffffffffffffffffffffffffffffff168173ffffffffffffffffffffffffffffffffffffffff161415610e86576040517f08c379a0000000000000000000000000000000000000000000000000000000008152600401610e7d9061335b565b60405180910390fd5b80915050919050565b60008073ffffffffffffffffffffffffffffffffffffffff168273ffffffffffffffffffffffffffffffffffffffff161415610f00576040517f08c379a0000000000000000000000000000000000000000000000000000000008152600401610ef7906132bb565b60405180910390fd5b600360008373ffffffffffffffffffffffffffffffffffffffff1673ffffffffffffffffffffffffffffffffffffffff168152602001908152602001600020549050919050565b610f4f611590565b610f596000611969565b565b60606000610f6883610e8f565b905060008167ffffffffffffffff811115610fac577f4e487b7100000000000000000000000000000000000000000000000000000000600052604160045260246000fd5b604051908082528060200260200182016040528015610fda5781602001602082028036833780820191505090505b50905060005b8281101561104a57610ff28582610a1f565b82828151811061102b577f4e487b7100000000000000000000000000000000000000000000000000000000600052603260045260246000fd5b602002602001018181525050808061104290613752565b915050610fe0565b508092505050919050565b662386f26fc1000081565b6000600a60009054906101000a900473ffffffffffffffffffffffffffffffffffffffff16905090565b606060018054611099906136ef565b80601f01602080910402602001604051908101604052809291908181526020018280546110c5906136ef565b80156111125780601f106110e757610100808354040283529160200191611112565b820191906000526020600020905b8154815290600101906020018083116110f557829003601f168201915b5050505050905090565b61112e6111276114cf565b8383611a2f565b5050565b61114361113d6114cf565b83611657565b611182576040517f08c379a0000000000000000000000000000000000000000000000000000000008152600401611179906133db565b60405180910390fd5b61118e84848484611b9c565b50505050565b606061119f82611484565b60006111a9611bf8565b905060008151116111c957604051806020016040528060008152506111f4565b806111d384611c8a565b6040516020016111e492919061305c565b6040516020818303038152906040525b915050919050565b600c8054611209906136ef565b80601f0160208091040260200160405190810160405280929190818152602001828054611235906136ef565b80156112825780601f1061125757610100808354040283529160200191611282565b820191906000526020600020905b81548152906001019060200180831161126557829003601f168201915b505050505081565b6000600560008473ffffffffffffffffffffffffffffffffffffffff1673ffffffffffffffffffffffffffffffffffffffff16815260200190815260200160002060008373ffffffffffffffffffffffffffffffffffffffff1673ffffffffffffffffffffffffffffffffffffffff16815260200190815260200160002060009054906101000a900460ff16905092915050565b611326611590565b600073ffffffffffffffffffffffffffffffffffffffff168173ffffffffffffffffffffffffffffffffffffffff161415611396576040517f08c379a000000000000000000000000000000000000000000000000000000000815260040161138d906131bb565b60405180910390fd5b61139f81611969565b50565b60007f80ac58cd000000000000000000000000000000000000000000000000000000007bffffffffffffffffffffffffffffffffffffffffffffffffffffffff1916827bffffffffffffffffffffffffffffffffffffffffffffffffffffffff1916148061146d57507f5b5e139f000000000000000000000000000000000000000000000000000000007bffffffffffffffffffffffffffffffffffffffffffffffffffffffff1916827bffffffffffffffffffffffffffffffffffffffffffffffffffffffff1916145b8061147d575061147c82611e37565b5b9050919050565b61148d81611ea1565b6114cc576040517f08c379a00000000000000000000000000000000000000000000000000000000081526004016114c39061335b565b60405180910390fd5b50565b600033905090565b816004600083815260200190815260200160002060006101000a81548173ffffffffffffffffffffffffffffffffffffffff021916908373ffffffffffffffffffffffffffffffffffffffff160217905550808273ffffffffffffffffffffffffffffffffffffffff1661154a83610ddd565b73ffffffffffffffffffffffffffffffffffffffff167f8c5be1e5ebec7d5bd14f71427d1e84f3dd0314c0f7b2291e5b200ac8c7c3b92560405160405180910390a45050565b6115986114cf565b73ffffffffffffffffffffffffffffffffffffffff166115b6611060565b73ffffffffffffffffffffffffffffffffffffffff161461160c576040517f08c379a00000000000000000000000000000000000000000000000000000000081526004016116039061333b565b60405180910390fd5b565b600081600001549050919050565b6000818361162a9190613524565b905092915050565b600061163e600b61160e565b905061164a3382611f0d565b611654600b611f2b565b50565b60008061166383610ddd565b90508073ffffffffffffffffffffffffffffffffffffffff168473ffffffffffffffffffffffffffffffffffffffff1614806116a557506116a4818561128a565b5b806116e357508373ffffffffffffffffffffffffffffffffffffffff166116cb846107b8565b73ffffffffffffffffffffffffffffffffffffffff16145b91505092915050565b8273ffffffffffffffffffffffffffffffffffffffff1661170c82610ddd565b73ffffffffffffffffffffffffffffffffffffffff1614611762576040517f08c379a0000000000000000000000000000000000000000000000000000000008152600401611759906131db565b60405180910390fd5b600073ffffffffffffffffffffffffffffffffffffffff168273ffffffffffffffffffffffffffffffffffffffff1614156117d2576040517f08c379a00000000000000000000000000000000000000000000000000000000081526004016117c99061321b565b60405180910390fd5b6117dd838383611f41565b6117e86000826114d7565b6001600360008573ffffffffffffffffffffffffffffffffffffffff1673ffffffffffffffffffffffffffffffffffffffff16815260200190815260200160002060008282546118389190613605565b925050819055506001600360008473ffffffffffffffffffffffffffffffffffffffff1673ffffffffffffffffffffffffffffffffffffffff168152602001908152602001600020600082825461188f9190613524565b92505081905550816002600083815260200190815260200160002060006101000a81548173ffffffffffffffffffffffffffffffffffffffff021916908373ffffffffffffffffffffffffffffffffffffffff160217905550808273ffffffffffffffffffffffffffffffffffffffff168473ffffffffffffffffffffffffffffffffffffffff167fddf252ad1be2c89b69c2b068fc378daa952ba7f163c4a11628f55a4df523b3ef60405160405180910390a461194e838383612055565b505050565b6000818361196191906135ab565b905092915050565b6000600a60009054906101000a900473ffffffffffffffffffffffffffffffffffffffff16905081600a60006101000a81548173ffffffffffffffffffffffffffffffffffffffff021916908373ffffffffffffffffffffffffffffffffffffffff1602179055508173ffffffffffffffffffffffffffffffffffffffff168173ffffffffffffffffffffffffffffffffffffffff167f8be0079c531659141344cd1fd0a4f28419497f9722a3daafe3b4186f6b6457e060405160405180910390a35050565b8173ffffffffffffffffffffffffffffffffffffffff168373ffffffffffffffffffffffffffffffffffffffff161415611a9e576040517f08c379a0000000000000000000000000000000000000000000000000000000008152600401611a959061323b565b60405180910390fd5b80600560008573ffffffffffffffffffffffffffffffffffffffff1673ffffffffffffffffffffffffffffffffffffffff16815260200190815260200160002060008473ffffffffffffffffffffffffffffffffffffffff1673ffffffffffffffffffffffffffffffffffffffff16815260200190815260200160002060006101000a81548160ff0219169083151502179055508173ffffffffffffffffffffffffffffffffffffffff168373ffffffffffffffffffffffffffffffffffffffff167f17307eab39ab6107e8899845ad3d59bd9653f200f220920489ca2b5937696c3183604051611b8f919061311e565b60405180910390a3505050565b611ba78484846116ec565b611bb38484848461205a565b611bf2576040517f08c379a0000000000000000000000000000000000000000000000000000000008152600401611be99061319b565b60405180910390fd5b50505050565b6060600c8054611c07906136ef565b80601f0160208091040260200160405190810160405280929190818152602001828054611c33906136ef565b8015611c805780601f10611c5557610100808354040283529160200191611c80565b820191906000526020600020905b815481529060010190602001808311611c6357829003601f168201915b5050505050905090565b60606000821415611cd2576040518060400160405280600181526020017f30000000000000000000000000000000000000000000000000000000000000008152509050611e32565b600082905060005b60008214611d04578080611ced90613752565b915050600a82611cfd919061357a565b9150611cda565b60008167ffffffffffffffff811115611d46577f4e487b7100000000000000000000000000000000000000000000000000000000600052604160045260246000fd5b6040519080825280601f01601f191660200182016040528015611d785781602001600182028036833780820191505090505b5090505b60008514611e2b57600182611d919190613605565b9150600a85611da0919061379b565b6030611dac9190613524565b60f81b818381518110611de8577f4e487b7100000000000000000000000000000000000000000000000000000000600052603260045260246000fd5b60200101907effffffffffffffffffffffffffffffffffffffffffffffffffffffffffffff1916908160001a905350600a85611e24919061357a565b9450611d7c565b8093505050505b919050565b60007f01ffc9a7000000000000000000000000000000000000000000000000000000007bffffffffffffffffffffffffffffffffffffffffffffffffffffffff1916827bffffffffffffffffffffffffffffffffffffffffffffffffffffffff1916149050919050565b60008073ffffffffffffffffffffffffffffffffffffffff166002600084815260200190815260200160002060009054906101000a900473ffffffffffffffffffffffffffffffffffffffff1673ffffffffffffffffffffffffffffffffffffffff1614159050919050565b611f278282604051806020016040528060008152506121f1565b5050565b6001816000016000828254019250508190555050565b611f4c83838361224c565b600073ffffffffffffffffffffffffffffffffffffffff168373ffffffffffffffffffffffffffffffffffffffff161415611f8f57611f8a81612251565b611fce565b8173ffffffffffffffffffffffffffffffffffffffff168373ffffffffffffffffffffffffffffffffffffffff1614611fcd57611fcc838261229a565b5b5b600073ffffffffffffffffffffffffffffffffffffffff168273ffffffffffffffffffffffffffffffffffffffff1614156120115761200c81612407565b612050565b8273ffffffffffffffffffffffffffffffffffffffff168273ffffffffffffffffffffffffffffffffffffffff161461204f5761204e828261254a565b5b5b505050565b505050565b600061207b8473ffffffffffffffffffffffffffffffffffffffff166125c9565b156121e4578373ffffffffffffffffffffffffffffffffffffffff1663150b7a026120a46114cf565b8786866040518563ffffffff1660e01b81526004016120c694939291906130b0565b602060405180830381600087803b1580156120e057600080fd5b505af192505050801561211157506040513d601f19601f8201168201806040525081019061210e9190612b72565b60015b612194573d8060008114612141576040519150601f19603f3d011682016040523d82523d6000602084013e612146565b606091505b5060008151141561218c576040517f08c379a00000000000000000000000000000000000000000000000000000000081526004016121839061319b565b60405180910390fd5b805181602001fd5b63150b7a0260e01b7bffffffffffffffffffffffffffffffffffffffffffffffffffffffff1916817bffffffffffffffffffffffffffffffffffffffffffffffffffffffff1916149150506121e9565b600190505b949350505050565b6121fb83836125ec565b612208600084848461205a565b612247576040517f08c379a000000000000000000000000000000000000000000000000000000000815260040161223e9061319b565b60405180910390fd5b505050565b505050565b6008805490506009600083815260200190815260200160002081905550600881908060018154018082558091505060019003906000526020600020016000909190919091505550565b600060016122a784610e8f565b6122b19190613605565b9050600060076000848152602001908152602001600020549050818114612396576000600660008673ffffffffffffffffffffffffffffffffffffffff1673ffffffffffffffffffffffffffffffffffffffff168152602001908152602001600020600084815260200190815260200160002054905080600660008773ffffffffffffffffffffffffffffffffffffffff1673ffffffffffffffffffffffffffffffffffffffff168152602001908152602001600020600084815260200190815260200160002081905550816007600083815260200190815260200160002081905550505b6007600084815260200190815260200160002060009055600660008573ffffffffffffffffffffffffffffffffffffffff1673ffffffffffffffffffffffffffffffffffffffff16815260200190815260200160002060008381526020019081526020016000206000905550505050565b6000600160088054905061241b9190613605565b9050600060096000848152602001908152602001600020549050600060088381548110612471577f4e487b7100000000000000000000000000000000000000000000000000000000600052603260045260246000fd5b9060005260206000200154905080600883815481106124b9577f4e487b7100000000000000000000000000000000000000000000000000000000600052603260045260246000fd5b90600052602060002001819055508160096000838152602001908152602001600020819055506009600085815260200190815260200160002060009055600880548061252e577f4e487b7100000000000000000000000000000000000000000000000000000000600052603160045260246000fd5b6001900381819060005260206000200160009055905550505050565b600061255583610e8f565b905081600660008573ffffffffffffffffffffffffffffffffffffffff1673ffffffffffffffffffffffffffffffffffffffff168152602001908152602001600020600083815260200190815260200160002081905550806007600084815260200190815260200160002081905550505050565b6000808273ffffffffffffffffffffffffffffffffffffffff163b119050919050565b600073ffffffffffffffffffffffffffffffffffffffff168273ffffffffffffffffffffffffffffffffffffffff16141561265c576040517f08c379a0000000000000000000000000000000000000000000000000000000008152600401612653906132fb565b60405180910390fd5b61266581611ea1565b156126a5576040517f08c379a000000000000000000000000000000000000000000000000000000000815260040161269c906131fb565b60405180910390fd5b6126b160008383611f41565b6001600360008473ffffffffffffffffffffffffffffffffffffffff1673ffffffffffffffffffffffffffffffffffffffff16815260200190815260200160002060008282546127019190613524565b92505081905550816002600083815260200190815260200160002060006101000a81548173ffffffffffffffffffffffffffffffffffffffff021916908373ffffffffffffffffffffffffffffffffffffffff160217905550808273ffffffffffffffffffffffffffffffffffffffff16600073ffffffffffffffffffffffffffffffffffffffff167fddf252ad1be2c89b69c2b068fc378daa952ba7f163c4a11628f55a4df523b3ef60405160405180910390a46127c260008383612055565b5050565b8280546127d2906136ef565b90600052602060002090601f0160209004810192826127f4576000855561283b565b82601f1061280d57805160ff191683800117855561283b565b8280016001018555821561283b579182015b8281111561283a57825182559160200191906001019061281f565b5b509050612848919061284c565b5090565b5b8082111561286557600081600090555060010161284d565b5090565b600061287c6128778461343b565b613416565b90508281526020810184848401111561289457600080fd5b61289f8482856136ad565b509392505050565b60006128ba6128b58461346c565b613416565b9050828152602081018484840111156128d257600080fd5b6128dd8482856136ad565b509392505050565b6000813590506128f481613dc1565b92915050565b60008135905061290981613dd8565b92915050565b60008135905061291e81613def565b92915050565b60008151905061293381613def565b92915050565b600082601f83011261294a57600080fd5b813561295a848260208601612869565b91505092915050565b600082601f83011261297457600080fd5b81356129848482602086016128a7565b91505092915050565b60008135905061299c81613e06565b92915050565b6000602082840312156129b457600080fd5b60006129c2848285016128e5565b91505092915050565b600080604083850312156129de57600080fd5b60006129ec858286016128e5565b92505060206129fd858286016128e5565b9150509250929050565b600080600060608486031215612a1c57600080fd5b6000612a2a868287016128e5565b9350506020612a3b868287016128e5565b9250506040612a4c8682870161298d565b9150509250925092565b60008060008060808587031215612a6c57600080fd5b6000612a7a878288016128e5565b9450506020612a8b878288016128e5565b9350506040612a9c8782880161298d565b925050606085013567ffffffffffffffff811115612ab957600080fd5b612ac587828801612939565b91505092959194509250565b60008060408385031215612ae457600080fd5b6000612af2858286016128e5565b9250506020612b03858286016128fa565b9150509250929050565b60008060408385031215612b2057600080fd5b6000612b2e858286016128e5565b9250506020612b3f8582860161298d565b9150509250929050565b600060208284031215612b5b57600080fd5b6000612b698482850161290f565b91505092915050565b600060208284031215612b8457600080fd5b6000612b9284828501612924565b91505092915050565b600060208284031215612bad57600080fd5b600082013567ffffffffffffffff811115612bc757600080fd5b612bd384828501612963565b91505092915050565b600060208284031215612bee57600080fd5b6000612bfc8482850161298d565b91505092915050565b6000612c11838361303e565b60208301905092915050565b612c2681613639565b82525050565b6000612c37826134ad565b612c4181856134db565b9350612c4c8361349d565b8060005b83811015612c7d578151612c648882612c05565b9750612c6f836134ce565b925050600181019050612c50565b5085935050505092915050565b612c938161364b565b82525050565b6000612ca4826134b8565b612cae81856134ec565b9350612cbe8185602086016136bc565b612cc781613888565b840191505092915050565b6000612cdd826134c3565b612ce78185613508565b9350612cf78185602086016136bc565b612d0081613888565b840191505092915050565b6000612d16826134c3565b612d208185613519565b9350612d308185602086016136bc565b80840191505092915050565b6000612d49601f83613508565b9150612d5482613899565b602082019050919050565b6000612d6c602b83613508565b9150612d77826138c2565b604082019050919050565b6000612d8f603283613508565b9150612d9a82613911565b604082019050919050565b6000612db2602683613508565b9150612dbd82613960565b604082019050919050565b6000612dd5602583613508565b9150612de0826139af565b604082019050919050565b6000612df8601c83613508565b9150612e03826139fe565b602082019050919050565b6000612e1b602483613508565b9150612e2682613a27565b604082019050919050565b6000612e3e601983613508565b9150612e4982613a76565b602082019050919050565b6000612e61602283613508565b9150612e6c82613a9f565b604082019050919050565b6000612e84601583613508565b9150612e8f82613aee565b602082019050919050565b6000612ea7602583613508565b9150612eb282613b17565b604082019050919050565b6000612eca602983613508565b9150612ed582613b66565b604082019050919050565b6000612eed603e83613508565b9150612ef882613bb5565b604082019050919050565b6000612f10602083613508565b9150612f1b82613c04565b602082019050919050565b6000612f33601983613508565b9150612f3e82613c2d565b602082019050919050565b6000612f56602083613508565b9150612f6182613c56565b602082019050919050565b6000612f79601883613508565b9150612f8482613c7f565b602082019050919050565b6000612f9c602183613508565b9150612fa782613ca8565b604082019050919050565b6000612fbf6000836134fd565b9150612fca82613cf7565b600082019050919050565b6000612fe2601083613508565b9150612fed82613cfa565b602082019050919050565b6000613005602c83613508565b915061301082613d23565b604082019050919050565b6000613028602e83613508565b915061303382613d72565b604082019050919050565b613047816136a3565b82525050565b613056816136a3565b82525050565b60006130688285612d0b565b91506130748284612d0b565b91508190509392505050565b600061308b82612fb2565b9150819050919050565b60006020820190506130aa6000830184612c1d565b92915050565b60006080820190506130c56000830187612c1d565b6130d26020830186612c1d565b6130df604083018561304d565b81810360608301526130f18184612c99565b905095945050505050565b600060208201905081810360008301526131168184612c2c565b905092915050565b60006020820190506131336000830184612c8a565b92915050565b600060208201905081810360008301526131538184612cd2565b905092915050565b6000602082019050818103600083015261317481612d3c565b9050919050565b6000602082019050818103600083015261319481612d5f565b9050919050565b600060208201905081810360008301526131b481612d82565b9050919050565b600060208201905081810360008301526131d481612da5565b9050919050565b600060208201905081810360008301526131f481612dc8565b9050919050565b6000602082019050818103600083015261321481612deb565b9050919050565b6000602082019050818103600083015261323481612e0e565b9050919050565b6000602082019050818103600083015261325481612e31565b9050919050565b6000602082019050818103600083015261327481612e54565b9050919050565b6000602082019050818103600083015261329481612e77565b9050919050565b600060208201905081810360008301526132b481612e9a565b9050919050565b600060208201905081810360008301526132d481612ebd565b9050919050565b600060208201905081810360008301526132f481612ee0565b9050919050565b6000602082019050818103600083015261331481612f03565b9050919050565b6000602082019050818103600083015261333481612f26565b9050919050565b6000602082019050818103600083015261335481612f49565b9050919050565b6000602082019050818103600083015261337481612f6c565b9050919050565b6000602082019050818103600083015261339481612f8f565b9050919050565b600060208201905081810360008301526133b481612fd5565b9050919050565b600060208201905081810360008301526133d481612ff8565b9050919050565b600060208201905081810360008301526133f48161301b565b9050919050565b6000602082019050613410600083018461304d565b92915050565b6000613420613431565b905061342c8282613721565b919050565b6000604051905090565b600067ffffffffffffffff82111561345657613455613859565b5b61345f82613888565b9050602081019050919050565b600067ffffffffffffffff82111561348757613486613859565b5b61349082613888565b9050602081019050919050565b6000819050602082019050919050565b600081519050919050565b600081519050919050565b600081519050919050565b6000602082019050919050565b600082825260208201905092915050565b600082825260208201905092915050565b600081905092915050565b600082825260208201905092915050565b600081905092915050565b600061352f826136a3565b915061353a836136a3565b9250827fffffffffffffffffffffffffffffffffffffffffffffffffffffffffffffffff0382111561356f5761356e6137cc565b5b828201905092915050565b6000613585826136a3565b9150613590836136a3565b9250826135a05761359f6137fb565b5b828204905092915050565b60006135b6826136a3565b91506135c1836136a3565b9250817fffffffffffffffffffffffffffffffffffffffffffffffffffffffffffffffff04831182151516156135fa576135f96137cc565b5b828202905092915050565b6000613610826136a3565b915061361b836136a3565b92508282101561362e5761362d6137cc565b5b828203905092915050565b600061364482613683565b9050919050565b60008115159050919050565b60007fffffffff0000000000000000000000000000000000000000000000000000000082169050919050565b600073ffffffffffffffffffffffffffffffffffffffff82169050919050565b6000819050919050565b82818337600083830152505050565b60005b838110156136da5780820151818401526020810190506136bf565b838111156136e9576000848401525b50505050565b6000600282049050600182168061370757607f821691505b6020821081141561371b5761371a61382a565b5b50919050565b61372a82613888565b810181811067ffffffffffffffff8211171561374957613748613859565b5b80604052505050565b600061375d826136a3565b91507fffffffffffffffffffffffffffffffffffffffffffffffffffffffffffffffff8214156137905761378f6137cc565b5b600182019050919050565b60006137a6826136a3565b91506137b1836136a3565b9250826137c1576137c06137fb565b5b828206905092915050565b7f4e487b7100000000000000000000000000000000000000000000000000000000600052601160045260246000fd5b7f4e487b7100000000000000000000000000000000000000000000000000000000600052601260045260246000fd5b7f4e487b7100000000000000000000000000000000000000000000000000000000600052602260045260246000fd5b7f4e487b7100000000000000000000000000000000000000000000000000000000600052604160045260246000fd5b6000601f19601f8301169050919050565b7f4e6f7420656e6f756768204e465473206c65667420746f207265736572766500600082015250565b7f455243373231456e756d657261626c653a206f776e657220696e646578206f7560008201527f74206f6620626f756e6473000000000000000000000000000000000000000000602082015250565b7f4552433732313a207472616e7366657220746f206e6f6e20455243373231526560008201527f63656976657220696d706c656d656e7465720000000000000000000000000000602082015250565b7f4f776e61626c653a206e6577206f776e657220697320746865207a65726f206160008201527f6464726573730000000000000000000000000000000000000000000000000000602082015250565b7f4552433732313a207472616e736665722066726f6d20696e636f72726563742060008201527f6f776e6572000000000000000000000000000000000000000000000000000000602082015250565b7f4552433732313a20746f6b656e20616c7265616479206d696e74656400000000600082015250565b7f4552433732313a207472616e7366657220746f20746865207a65726f2061646460008201527f7265737300000000000000000000000000000000000000000000000000000000602082015250565b7f4552433732313a20617070726f766520746f2063616c6c657200000000000000600082015250565b7f4e6f7420656e6f75676820657468657220746f207075726368617365204e465460008201527f732e000000000000000000000000000000000000000000000000000000000000602082015250565b7f4e6f7420656e6f756768204e465473206c656674210000000000000000000000600082015250565b7f43616e6e6f74206d696e7420737065636966696564206e756d626572206f662060008201527f4e4654732e000000000000000000000000000000000000000000000000000000602082015250565b7f4552433732313a2061646472657373207a65726f206973206e6f74206120766160008201527f6c6964206f776e65720000000000000000000000000000000000000000000000602082015250565b7f4552433732313a20617070726f76652063616c6c6572206973206e6f7420746f60008201527f6b656e206f776e6572206e6f7220617070726f76656420666f7220616c6c0000602082015250565b7f4552433732313a206d696e7420746f20746865207a65726f2061646472657373600082015250565b7f4e6f206574686572206c65667420746f20776974686472617700000000000000600082015250565b7f4f776e61626c653a2063616c6c6572206973206e6f7420746865206f776e6572600082015250565b7f4552433732313a20696e76616c696420746f6b656e2049440000000000000000600082015250565b7f4552433732313a20617070726f76616c20746f2063757272656e74206f776e6560008201527f7200000000000000000000000000000000000000000000000000000000000000602082015250565b50565b7f5472616e73666572206661696c65642e00000000000000000000000000000000600082015250565b7f455243373231456e756d657261626c653a20676c6f62616c20696e646578206f60008201527f7574206f6620626f756e64730000000000000000000000000000000000000000602082015250565b7f4552433732313a2063616c6c6572206973206e6f7420746f6b656e206f776e6560008201527f72206e6f7220617070726f766564000000000000000000000000000000000000602082015250565b613dca81613639565b8114613dd557600080fd5b50565b613de18161364b565b8114613dec57600080fd5b50565b613df881613657565b8114613e0357600080fd5b50565b613e0f816136a3565b8114613e1a57600080fd5b5056fea2646970667358221220c7887556dc775151b576497ecdaf0cac2ec1dd93e8939c585022b08e74273b5b64736f6c63430008020033",
  "immutableReferences": {},
  "source": "// SPDX-License-Identifier: MIT\r\npragma solidity ^0.8.2;\r\n\r\nimport \"@openzeppelin/contracts/utils/Counters.sol\";\r\nimport \"@openzeppelin/contracts/access/Ownable.sol\";\r\nimport \"@openzeppelin/contracts/utils/math/SafeMath.sol\";\r\nimport \"@openzeppelin/contracts/token/ERC721/extensions/ERC721Enumerable.sol\";\r\n\r\ncontract CryptoIsland is ERC721Enumerable, Ownable {\r\n    using SafeMath for uint256;\r\n    using Counters for Counters.Counter;\r\n\r\n    Counters.Counter private _tokenIds;\r\n\r\n    uint256 public constant MAX_SUPPLY = 100;\r\n    uint256 public constant PRICE = 0.01 ether;\r\n    uint256 public constant MAX_PER_MINT = 5;\r\n\r\n    string public baseTokenURI;\r\n\r\n    constructor(string memory baseURI) ERC721(\"CryptoIsland\", \"jeju\") {\r\n        setBaseURI(baseURI);\r\n    }\r\n\r\n    function reserveNFTs() public onlyOwner {\r\n        uint256 totalMinted = _tokenIds.current();\r\n\r\n        require(\r\n            totalMinted.add(10) < MAX_SUPPLY,\r\n            \"Not enough NFTs left to reserve\"\r\n        );\r\n\r\n        for (uint256 i = 0; i < 10; i++) {\r\n            _mintSingleNFT();\r\n        }\r\n    }\r\n\r\n    function _baseURI() internal view virtual override returns (string memory) {\r\n        return baseTokenURI;\r\n    }\r\n\r\n    function setBaseURI(string memory _baseTokenURI) public onlyOwner {\r\n        baseTokenURI = _baseTokenURI;\r\n    }\r\n\r\n    function mintNFTs(uint256 _count) public payable {\r\n        uint256 totalMinted = _tokenIds.current();\r\n\r\n        require(totalMinted.add(_count) <= MAX_SUPPLY, \"Not enough NFTs left!\");\r\n        require(\r\n            _count > 0 && _count <= MAX_PER_MINT,\r\n            \"Cannot mint specified number of NFTs.\"\r\n        );\r\n        require(\r\n            msg.value >= PRICE.mul(_count),\r\n            \"Not enough ether to purchase NFTs.\"\r\n        );\r\n\r\n        for (uint256 i = 0; i < _count; i++) {\r\n            _mintSingleNFT();\r\n        }\r\n    }\r\n\r\n    function _mintSingleNFT() private {\r\n        uint256 newTokenID = _tokenIds.current();\r\n        _safeMint(msg.sender, newTokenID);\r\n        _tokenIds.increment();\r\n    }\r\n\r\n    function tokensOfOwner(address _owner)\r\n        external\r\n        view\r\n        returns (uint256[] memory)\r\n    {\r\n        uint256 tokenCount = balanceOf(_owner);\r\n        uint256[] memory tokensId = new uint256[](tokenCount);\r\n\r\n        for (uint256 i = 0; i < tokenCount; i++) {\r\n            tokensId[i] = tokenOfOwnerByIndex(_owner, i);\r\n        }\r\n        return tokensId;\r\n    }\r\n\r\n    function withdraw() public payable onlyOwner {\r\n        uint256 balance = address(this).balance;\r\n        require(balance > 0, \"No ether left to withdraw\");\r\n\r\n        (bool success, ) = (msg.sender).call{value: balance}(\"\");\r\n        require(success, \"Transfer failed.\");\r\n    }\r\n}\r\n",
  "sourcePath": "C:\\CryptoIsland\\contracts\\CryptoIsland.sol",
  "compiler": {
    "name": "solc",
    "version": "0.8.2+commit.661d1103.Emscripten.clang"
  },
  "schemaVersion": "3.4.8",
  "updatedAt": "2022-08-08T08:19:18.531Z",
  "networkType": "ethereum",
  "devdoc": {
    "kind": "dev",
    "methods": {
      "approve(address,uint256)": {
        "details": "See {IERC721-approve}."
      },
      "balanceOf(address)": {
        "details": "See {IERC721-balanceOf}."
      },
      "getApproved(uint256)": {
        "details": "See {IERC721-getApproved}."
      },
      "isApprovedForAll(address,address)": {
        "details": "See {IERC721-isApprovedForAll}."
      },
      "name()": {
        "details": "See {IERC721Metadata-name}."
      },
      "owner()": {
        "details": "Returns the address of the current owner."
      },
      "ownerOf(uint256)": {
        "details": "See {IERC721-ownerOf}."
      },
      "renounceOwnership()": {
        "details": "Leaves the contract without owner. It will not be possible to call `onlyOwner` functions anymore. Can only be called by the current owner. NOTE: Renouncing ownership will leave the contract without an owner, thereby removing any functionality that is only available to the owner."
      },
      "safeTransferFrom(address,address,uint256)": {
        "details": "See {IERC721-safeTransferFrom}."
      },
      "safeTransferFrom(address,address,uint256,bytes)": {
        "details": "See {IERC721-safeTransferFrom}."
      },
      "setApprovalForAll(address,bool)": {
        "details": "See {IERC721-setApprovalForAll}."
      },
      "supportsInterface(bytes4)": {
        "details": "See {IERC165-supportsInterface}."
      },
      "symbol()": {
        "details": "See {IERC721Metadata-symbol}."
      },
      "tokenByIndex(uint256)": {
        "details": "See {IERC721Enumerable-tokenByIndex}."
      },
      "tokenOfOwnerByIndex(address,uint256)": {
        "details": "See {IERC721Enumerable-tokenOfOwnerByIndex}."
      },
      "tokenURI(uint256)": {
        "details": "See {IERC721Metadata-tokenURI}."
      },
      "totalSupply()": {
        "details": "See {IERC721Enumerable-totalSupply}."
      },
      "transferFrom(address,address,uint256)": {
        "details": "See {IERC721-transferFrom}."
      },
      "transferOwnership(address)": {
        "details": "Transfers ownership of the contract to a new account (`newOwner`). Can only be called by the current owner."
      }
    },
    "version": 1
  },
  "userdoc": {
    "kind": "user",
    "methods": {},
    "version": 1
  }
}